{
  "address": "0xC049c7fE5EAa024095861212BD8a8E8Df88a2b1f",
  "abi": [
    {
      "inputs": [
        {
          "internalType": "address",
          "name": "_farmingOwner",
          "type": "address"
        },
        {
          "internalType": "contract IERC20",
          "name": "_smardexToken",
          "type": "address"
        },
        {
          "internalType": "uint256",
          "name": "_startFarmingCampaign",
          "type": "uint256"
        }
      ],
      "stateMutability": "nonpayable",
      "type": "constructor"
    },
    {
      "inputs": [],
      "name": "farming",
      "outputs": [
        {
          "internalType": "contract IFarmingRange",
          "name": "",
          "type": "address"
        }
      ],
      "stateMutability": "view",
      "type": "function"
    },
    {
      "inputs": [
        {
          "internalType": "uint256",
          "name": "_campaignId",
          "type": "uint256"
        }
      ],
      "name": "resetAllowance",
      "outputs": [],
      "stateMutability": "nonpayable",
      "type": "function"
    },
    {
      "inputs": [],
      "name": "staking",
      "outputs": [
        {
          "internalType": "contract IStaking",
          "name": "",
          "type": "address"
        }
      ],
      "stateMutability": "view",
      "type": "function"
    }
  ],
  "transactionHash": "0x282f26a5b12fa9f8c29ecc285ade325f6bebd5e7389ef7a218b61baa86ad49b2",
  "args": [
    "0xcaEc63ce78a0D4DAb2b5112295789A542A0fdAee",
    "0x5DE8ab7E27f6E7A1fFf3E5B337584Aa43961BEeF",
    "17741110"
  ],
  "numDeployments": 2,
  "solcInputHash": "1a3e5ed825e3a0bcaf935206aae1ecd3",
  "bytecode": "0x60c060405234801561001057600080fd5b5060405162005f1c38038062005f1c833981016040819052610031916102f4565b4381116100975760405162461bcd60e51b815260206004820152602a60248201527f5265776172644d616e616765723a7374617274206661726d696e6720697320696044820152691b881d1a19481c185cdd60b21b606482015260840160405180910390fd5b306040516100a4906102c0565b6001600160a01b039091168152602001604051809103906000f0801580156100d0573d6000803e3d6000fd5b506001600160a01b031660808190526040518391906100ee906102ce565b6001600160a01b03928316815291166020820152604001604051809103906000f080158015610121573d6000803e3d6000fd5b506001600160a01b0390811660a0819052608051604051631027803f60e21b815260048101929092528483166024830152604482018490529091169063409e00fc90606401600060405180830381600087803b15801561018057600080fd5b505af1158015610194573d6000803e3d6000fd5b5050505060a0516001600160a01b031663c0939f496040518163ffffffff1660e01b8152600401600060405180830381600087803b1580156101d557600080fd5b505af11580156101e9573d6000803e3d6000fd5b5050608051604080518082018252601a81527f7472616e736665724f776e65727368697028616464726573732900000000000060209182015281516001600160a01b03898116602480840191909152845180840390910181526044909201845291810180516001600160e01b031663f2fde38b60e01b179052915192169350610273925090610337565b6000604051808303816000865af19150503d80600081146102b0576040519150601f19603f3d011682016040523d82523d6000602084013e6102b5565b606091505b505050505050610366565b6133e0806200092c83390190565b6122108062003d0c83390190565b6001600160a01b03811681146102f157600080fd5b50565b60008060006060848603121561030957600080fd5b8351610314816102dc565b6020850151909350610325816102dc565b80925050604084015190509250925092565b6000825160005b81811015610358576020818601810151858301520161033e565b506000920191825250919050565b60805160a051610580620003ac6000396000604b015260008181608e0152818160c7015281816101c601528181610258015281816102e5015261031101526105806000f3fe608060405234801561001057600080fd5b50600436106100415760003560e01c80634cf088d9146100465780634e3ad80f14610089578063eee4f11b146100b0575b600080fd5b61006d7f000000000000000000000000000000000000000000000000000000000000000081565b6040516001600160a01b03909116815260200160405180910390f35b61006d7f000000000000000000000000000000000000000000000000000000000000000081565b6100c36100be36600461046b565b6100c5565b005b7f00000000000000000000000000000000000000000000000000000000000000006001600160a01b0316634ad7ce806040518163ffffffff1660e01b8152600401602060405180830381865afa158015610123573d6000803e3d6000fd5b505050506040513d601f19601f820116820180604052508101906101479190610484565b81106101ad5760405162461bcd60e51b815260206004820152602a60248201527f5265776172644d616e616765723a63616d706169676e49643a77726f6e672063604482015269185b5c185a59db88125160b21b60648201526084015b60405180910390fd5b604051632ec88e3b60e21b8152600481018290526000907f00000000000000000000000000000000000000000000000000000000000000006001600160a01b03169063bb2238ec9060240160e060405180830381865afa158015610215573d6000803e3d6000fd5b505050506040513d601f19601f8201168201806040525081019061023991906104b9565b5050604051636eb1769f60e11b81523060048201526001600160a01b037f000000000000000000000000000000000000000000000000000000000000000081166024830152949650938616945063dd62ed3e936044019250610299915050565b602060405180830381865afa1580156102b6573d6000803e3d6000fd5b505050506040513d601f19601f820116820180604052508101906102da9190610484565b1561030b5761030b817f0000000000000000000000000000000000000000000000000000000000000000600061033c565b610338817f000000000000000000000000000000000000000000000000000000000000000060001961033c565b5050565b604080516001600160a01b038481166024830152604480830185905283518084039091018152606490920183526020820180516001600160e01b031663095ea7b360e01b1790529151600092839290871691610398919061051b565b6000604051808303816000865af19150503d80600081146103d5576040519150601f19603f3d011682016040523d82523d6000602084013e6103da565b606091505b5091509150818015610404575080511580610404575080806020019051810190610404919061054a565b6104645760405162461bcd60e51b815260206004820152602b60248201527f5472616e7366657248656c7065723a3a73616665417070726f76653a2061707060448201526a1c9bdd994819985a5b195960aa1b60648201526084016101a4565b5050505050565b60006020828403121561047d57600080fd5b5035919050565b60006020828403121561049657600080fd5b5051919050565b80516001600160a01b03811681146104b457600080fd5b919050565b600080600080600080600060e0888a0312156104d457600080fd5b6104dd8861049d565b96506104eb6020890161049d565b604089015160608a015160808b015160a08c015160c0909c01519a9d939c50919a90999198509650945092505050565b6000825160005b8181101561053c5760208186018101518583015201610522565b506000920191825250919050565b60006020828403121561055c57600080fd5b8151801515811461056c57600080fd5b939250505056fea164736f6c6343000811000a60a06040523480156200001157600080fd5b50604051620033e0380380620033e083398101604081905262000034916200012b565b6200003f33620000db565b6001805560346005556001600160a01b038116620000c95760405162461bcd60e51b815260206004820152603860248201527f4661726d696e6752616e67653a3a636f6e7374727563746f723a3a526577617260448201527f64206d616e61676572206973206e6f7420646566696e65640000000000000000606482015260840160405180910390fd5b6001600160a01b03166080526200015d565b600080546001600160a01b038381166001600160a01b0319831681178455604051919092169283917f8be0079c531659141344cd1fd0a4f28419497f9722a3daafe3b4186f6b6457e09190a35050565b6000602082840312156200013e57600080fd5b81516001600160a01b03811681146200015657600080fd5b9392505050565b60805161323d620001a3600039600081816101ff0152818161151201528181611b3701528181611ba601528181611c6b0152818161230c015261254e015261323d6000f3fe608060405234801561001057600080fd5b50600436106101d95760003560e01c8063715018a6116101045780639a63bc16116100a2578063e2bbb15811610071578063e2bbb1581461046c578063eebdced51461047f578063f2fde38b14610487578063fa8f5f191461049a57600080fd5b80639a63bc16146103e0578063bb2238ec146103f3578063cdc8c93014610446578063cef7042d1461045957600080fd5b80638d48aff0116100de5780638d48aff0146103775780638da5cb5b1461038a57806393f1a40b1461039b57806398969e82146103cd57600080fd5b8063715018a6146103495780637bafb0291461035157806380637e891461036457600080fd5b80633bbda19b1161017c5780634ad7ce801161014b5780634ad7ce80146102fb5780634ae56bae146103035780635312ea8e146103235780635d14b06f1461033657600080fd5b80633bbda19b146102af578063409e00fc146102c257806342ee0aba146102d5578063441a3e70146102e857600080fd5b80631693074b116101b85780631693074b146102615780632ea807c51461027657806330d78fda1461028957806333824b871461029c57600080fd5b8062d74850146101de5780630f4ef8a6146101fa57806310f7a6af14610239575b600080fd5b6101e760055481565b6040519081526020015b60405180910390f35b6102217f000000000000000000000000000000000000000000000000000000000000000081565b6040516001600160a01b0390911681526020016101f1565b61024c610247366004612b8f565b6104ad565b604080519283526020830191909152016101f1565b61027461026f366004612bc6565b6104e9565b005b610274610284366004612c17565b610572565b610274610297366004612c51565b6108ab565b6102746102aa366004612cbf565b610908565b6102746102bd366004612d24565b61094b565b6102746102d0366004612d9e565b610a1d565b6102746102e3366004612e85565b610c88565b6102746102f6366004612b8f565b610d85565b6003546101e7565b6101e7610311366004612cbf565b60009081526002602052604090205490565b610274610331366004612cbf565b610da4565b610274610344366004612f17565b610e6c565b610274610eb3565b6101e761035f366004612c17565b610ec7565b610274610372366004612cbf565b610f10565b6101e7610385366004612cbf565b611129565b6000546001600160a01b0316610221565b61024c6103a9366004612f59565b60046020908152600092835260408084209091529082529020805460019091015482565b6101e76103db366004612f59565b61113b565b6101e76103ee366004612cbf565b611170565b610406610401366004612cbf565b61117c565b604080516001600160a01b039889168152979096166020880152948601939093526060850191909152608084015260a083015260c082015260e0016101f1565b610274610454366004612f89565b6111d8565b610274610467366004612cbf565b611600565b61027461047a366004612b8f565b61161a565b61027461177c565b610274610495366004612fbb565b6117ad565b6102746104a8366004612fd8565b611823565b600260205281600052604060002081815481106104c957600080fd5b600091825260209091206002909102018054600190910154909250905082565b3330146105575760405162461bcd60e51b815260206004820152603160248201527f4661726d696e6752616e67653a3a617474656d70745472616e736665723a3a53604482015270656e646572206e6f74206661726d696e6760781b60648201526084015b60405180910390fd5b61056c6001600160a01b0385168484846119fa565b50505050565b61057a611a65565b610582611abf565b600083815260026020526040812060038054919291869081106105a7576105a761309c565b9060005260206000209060070201905060055482805490501061063c5760405162461bcd60e51b815260206004820152604160248201527f4661726d696e6752616e67653a3a616464526577617264496e666f3a3a72657760448201527f61726420696e666f206c656e677468206578636565647320746865206c696d696064820152601d60fa1b608482015260a40161054e565b8154158061067c5750815443908390610657906001906130c8565b815481106106675761066761309c565b90600052602060002090600202016000015410155b6106e15760405162461bcd60e51b815260206004820152603060248201527f4661726d696e6752616e67653a3a616464526577617264496e666f3a3a72657760448201526f185c99081c195c9a5bd908195b99195960821b606482015260840161054e565b8154158061072057508154849083906106fc906001906130c8565b8154811061070c5761070c61309c565b906000526020600020906002020160000154105b6107825760405162461bcd60e51b815260206004820152602d60248201527f4661726d696e6752616e67653a3a616464526577617264496e666f3a3a62616460448201526c206e657720656e64626c6f636b60981b606482015260840161054e565b8154600090156107c3578254839061079c906001906130c8565b815481106107ac576107ac61309c565b9060005260206000209060020201600001546107c9565b81600201545b905060006107d782876130c8565b905060006107e582876130db565b90508084600601546107f791906130f2565b6006850155604080518082019091528781526020808201888152875460018181018a5560008a81529390932093516002909102909301928355519181019190915584015461084f906001600160a01b0316828a611b18565b845461085d906001906130c8565b60408051898152602081018990528a917fad90731bd0d97445f5af66088f3adebf343c520c20e033cc42f93b124258cdc2910160405180910390a350505050506108a660018055565b505050565b6108f5600388815481106108c1576108c161309c565b60009182526020909120600790910201546001600160a01b03163330886108e857896108ec565b6000195b88888888611c91565b6108ff878761161a565b50505050505050565b610910611a65565b60058190556040518181527fb64f58843e750a8bea7135ef396cf0a7790bfc9a8f43f11ac0e0aacc1b5787ba9060200160405180910390a150565b610953611a65565b8281146109c85760405162461bcd60e51b815260206004820152603860248201527f4661726d696e6752616e67653a3a6164645265776172644d756c7469706c653a60448201527f3a77726f6e6720706172616d6574657273206c656e6774680000000000000000606482015260840161054e565b60005b808414610a1557610a0d868686848181106109e8576109e861309c565b90506020020135858585818110610a0157610a0161309c565b90506020020135610572565b6001016109cb565b505050505050565b610a25611a65565b438111610aa55760405162461bcd60e51b815260206004820152604260248201527f4661726d696e6752616e67653a3a61646443616d706169676e496e666f3a3a5360448201527f7461727420626c6f636b2073686f756c6420626520696e207468652066757475606482015261726560f01b608482015260a40161054e565b6040805160e0810182526001600160a01b038086168252848116602083019081529282018481526060830185815260006080850181815260a0860182815260c08701838152600380546001818101835595829052985160079099027fc2575a0e9e593c00f959f8c92f12db2869c3395a3b0502d05e2516446f71f85b810180549a8a166001600160a01b03199b8c1617905599517fc2575a0e9e593c00f959f8c92f12db2869c3395a3b0502d05e2516446f71f85c8b0180549190991699169890981790965593517fc2575a0e9e593c00f959f8c92f12db2869c3395a3b0502d05e2516446f71f85d88015591517fc2575a0e9e593c00f959f8c92f12db2869c3395a3b0502d05e2516446f71f85e87015590517fc2575a0e9e593c00f959f8c92f12db2869c3395a3b0502d05e2516446f71f85f86015590517fc2575a0e9e593c00f959f8c92f12db2869c3395a3b0502d05e2516446f71f86085015590517fc2575a0e9e593c00f959f8c92f12db2869c3395a3b0502d05e2516446f71f8619093019290925554610c3891906130c8565b604080516001600160a01b038087168252851660208201529081018390527f9b2f18f9a188a5aec4a95ee3164fe234dfbb6117628b2ad1a581939e61c69f4e9060600160405180910390a2505050565b610c90611a65565b81518351148015610ca2575080518351145b610d145760405162461bcd60e51b815260206004820152603b60248201527f4661726d696e6752616e67653a3a7570646174655265776172644d756c74697060448201527f6c653a3a77726f6e6720706172616d6574657273206c656e6774680000000000606482015260840161054e565b60005b83518114610d7e57610d7685858381518110610d3557610d3561309c565b6020026020010151858481518110610d4f57610d4f61309c565b6020026020010151858581518110610d6957610d6961309c565b60200260200101516111d8565b600101610d17565b5050505050565b610d8d611abf565b610d978282611e67565b610da060018055565b5050565b610dac611abf565b600060038281548110610dc157610dc161309c565b60009182526020808320858452600482526040808520338652909252922080546007929092029092016005810154909350610dfd9082906130c8565b6005840155600080835560018301558254610e22906001600160a01b03163383612018565b604080518281526020810186905233917fbb757047c2b5f3974fe26b7c10f732e7bce710b0952a71082702781e62ae0595910160405180910390a2505050610e6960018055565b50565b610e74611abf565b60005b808214610ea957610ea1838383818110610e9357610e9361309c565b905060200201356000611e67565b600101610e77565b50610da060018055565b610ebb611a65565b610ec56000612048565b565b60008184101580610ed757508284115b15610ee457506000610f09565b818311610efc57610ef584846130c8565b9050610f09565b610f0684836130c8565b90505b9392505050565b610f18611a65565b60008181526002602052604081206003805491929184908110610f3d57610f3d61309c565b6000918252602082208454600790920201925090819003610fbf5760405162461bcd60e51b815260206004820152603660248201527f4661726d696e6752616e67653a3a75706461746543616d706169676e7352657760448201527530b932399d1d3737903932bbb0b93224b73337a632b760511b606482015260840161054e565b600083610fcd6001846130c8565b81548110610fdd57610fdd61309c565b6000918252602090912060029091020180549091504381116110675760405162461bcd60e51b815260206004820152603760248201527f4661726d696e6752616e67653a3a72656d6f76654c617374526577617264496e60448201527f666f3a3a72657761726420706572696f6420656e646564000000000000000000606482015260840161054e565b61107086612098565b6001820154156110b95760008061109661108b6001876130c8565b8460008a8a8961243b565b9150915081156110b6578086600601546110b091906130c8565b60068701555b50505b848054806110c9576110c9613105565b60008281526020812060026000199093019283020181815560019081019190915591556110f690846130c8565b60405187907f997b6670781194c0d30c477be41ce4ba9b7f3f12417aa00965b9d9f978251e2390600090a3505050505050565b60006111358243612586565b92915050565b60008281526004602090815260408083206001600160a01b038516845290915281208054600190910154610f0991859161267c565b60006111358243612878565b6003818154811061118c57600080fd5b600091825260209091206007909102018054600182015460028301546003840154600485015460058601546006909601546001600160a01b039586169750949093169491939092919087565b6111e0611a65565b6111e8611abf565b6000848152600260205260408120600380549192918790811061120d5761120d61309c565b9060005260206000209060070201905060008286815481106112315761123161309c565b60009182526020909120600290910201805490915061124f88612098565b438110156112bb5760405162461bcd60e51b815260206004820152603360248201527f4661726d696e6752616e67653a3a757064617465526577617264496e666f3a3a6044820152721c995dd85c99081c195c9a5bd908195b991959606a1b606482015260840161054e565b86156113565785846112ce60018a6130c8565b815481106112de576112de61309c565b906000526020600020906002020160000154106113565760405162461bcd60e51b815260206004820152603060248201527f4661726d696e6752616e67653a3a757064617465526577617264496e666f3a3a60448201526f626164206e657720656e64626c6f636b60801b606482015260840161054e565b6113618760016130f2565b8454111561141657836113758860016130f2565b815481106113855761138561309c565b90600052602060002090600202016000015486106114165760405162461bcd60e51b815260206004820152604260248201527f4661726d696e6752616e67653a3a757064617465526577617264496e666f3a3a60448201527f72657761726420706572696f6420656e6420697320696e206e6578742072616e606482015261676560f01b608482015260a40161054e565b60008061142789898989898961243b565b915091508115801561143857508015155b15611456576001850154611456906001600160a01b0316828c611b18565b828814158015611473575085548990611471906001906130c8565b115b1561157b576000866114868b60016130f2565b815481106114965761149661309c565b6000918252602082206002909102018054909250906114b586836130c8565b905060006114c38c846130c8565b600185015490915060006114d782856130db565b9050826114e485846130db565b6114ee919061311b565b915060006114fc83856130db565b60018801849055905081811015611573576115507f000000000000000000000000000000000000000000000000000000000000000061153b83856130c8565b60018f01546001600160a01b03169190612018565b61155a81836130c8565b8c600601600082825461156d91906130c8565b90915550505b505050505050505b816115955780856006015461159091906130f2565b6115a5565b8085600601546115a591906130c8565b60068601558784556001840187905560408051898152602081018990528a918c917fcd251e3ce758f4da844a7b790619743994a9ce956a4abb78aec611623ae8af5f910160405180910390a350505050505061056c60018055565b611608611abf565b61161181612098565b610e6960018055565b611622611abf565b6000600383815481106116375761163761309c565b6000918252602080832086845260048252604080852033865290925292206007909102909101915061166884612098565b8054156116cb576000816001015468056bc75e2d631000008460040154846000015461169491906130db565b61169e919061311b565b6116a891906130c8565b905080156116c95760018301546116c9906001600160a01b03163383612018565b505b821561170c5780546116de9084906130f2565b815560058201546116f09084906130f2565b6005830155815461170c906001600160a01b03163330866119fa565b6004820154815468056bc75e2d6310000091611727916130db565b611731919061311b565b6001820155604080518481526020810186905233917f90890809c654f11d6e72a28fa60149770a0d11ec6c92319d6ceb2bb0a4ea1a15910160405180910390a25050610da060018055565b611784611abf565b60035460005b8181146117a25761179a81612098565b60010161178a565b5050610ec560018055565b6117b5611a65565b6001600160a01b03811661181a5760405162461bcd60e51b815260206004820152602660248201527f4f776e61626c653a206e6577206f776e657220697320746865207a65726f206160448201526564647265737360d01b606482015260840161054e565b610e6981612048565b61182b611a65565b868514801561183957508483145b801561184457508481145b6118b65760405162461bcd60e51b815260206004820152603d60248201527f4661726d696e6752616e67653a3a75706461746543616d706169676e7352657760448201527f617264733a3a77726f6e6720726577617264496e666f206c656e677468000000606482015260840161054e565b60005b8088146119ef576119e78989838181106118d5576118d561309c565b905060200201358888848181106118ee576118ee61309c565b9050602002810190611900919061313d565b808060200260200160405190810160405280939291908181526020018383602002808284376000920191909152508a92508991508690508181106119465761194661309c565b9050602002810190611958919061313d565b8080602002602001604051908101604052809392919081815260200183836020028082843760009201919091525089925088915087905081811061199e5761199e61309c565b90506020028101906119b0919061313d565b80806020026020016040519081016040528093929190818152602001838360200280828437600092019190915250610c8892505050565b6001016118b9565b505050505050505050565b6040516001600160a01b038085166024830152831660448201526064810182905261056c9085906323b872dd60e01b906084015b60408051601f198184030181529190526020810180516001600160e01b03166001600160e01b031990931692909217909152612995565b6000546001600160a01b03163314610ec55760405162461bcd60e51b815260206004820181905260248201527f4f776e61626c653a2063616c6c6572206973206e6f7420746865206f776e6572604482015260640161054e565b600260015403611b115760405162461bcd60e51b815260206004820152601f60248201527f5265656e7472616e637947756172643a207265656e7472616e742063616c6c00604482015260640161054e565b6002600155565b604051631693074b60e01b81526001600160a01b0380851660048301527f000000000000000000000000000000000000000000000000000000000000000016602482015230604482018190526064820184905290631693074b90608401600060405180830381600087803b158015611b8f57600080fd5b505af1925050508015611ba0575060015b6108a6577f00000000000000000000000000000000000000000000000000000000000000006001600160a01b031681604051602401611be191815260200190565b60408051601f198184030181529181526020820180516001600160e01b031663eee4f11b60e01b17905251611c1691906131ab565b6000604051808303816000865af19150503d8060008114611c53576040519150601f19603f3d011682016040523d82523d6000602084013e611c58565b606091505b506108a69150506001600160a01b0384167f000000000000000000000000000000000000000000000000000000000000000030856119fa565b604051623f675f60e91b81526001600160a01b038881166004830152600091908a1690637ecebe0090602401602060405180830381865afa158015611cda573d6000803e3d6000fd5b505050506040513d601f19601f82011682018060405250810190611cfe91906131c7565b60405163d505accf60e01b81526001600160a01b038a811660048301528981166024830152604482018990526064820188905260ff8716608483015260a4820186905260c48201859052919250908a169063d505accf9060e401600060405180830381600087803b158015611d7257600080fd5b505af1158015611d86573d6000803e3d6000fd5b5050604051623f675f60e91b81526001600160a01b038b81166004830152600093508c169150637ecebe0090602401602060405180830381865afa158015611dd2573d6000803e3d6000fd5b505050506040513d601f19601f82011682018060405250810190611df691906131c7565b9050611e038260016130f2565b8114611e5b5760405162461bcd60e51b815260206004820152602160248201527f5361666545524332303a207065726d697420646964206e6f74207375636365656044820152601960fa1b606482015260840161054e565b50505050505050505050565b600060038381548110611e7c57611e7c61309c565b600091825260208083208684526004825260408085203386529092529220805460079092029092019250831115611f095760405162461bcd60e51b815260206004820152602b60248201527f4661726d696e6752616e67653a3a77697468647261773a3a626164207769746860448201526a191c985dc8185b5bdd5b9d60aa1b606482015260840161054e565b611f1284612098565b6000816001015468056bc75e2d6310000084600401548460000154611f3791906130db565b611f41919061311b565b611f4b91906130c8565b90508015611f6c576001830154611f6c906001600160a01b03163383612018565b8315611fac578154611f7f9085906130c8565b82556005830154611f919085906130c8565b60058401558254611fac906001600160a01b03163386612018565b6004830154825468056bc75e2d6310000091611fc7916130db565b611fd1919061311b565b6001830155604080518581526020810187905233917ff279e6a1f5e320cca91135676d9cb6e44ca8a08c0b88342bcdb1144f6511b568910160405180910390a25050505050565b6040516001600160a01b0383166024820152604481018290526108a690849063a9059cbb60e01b90606401611a2e565b600080546001600160a01b038381166001600160a01b0319831681178455604051919092169283917f8be0079c531659141344cd1fd0a4f28419497f9722a3daafe3b4186f6b6457e09190a35050565b60035481106121065760405162461bcd60e51b815260206004820152603460248201527f4661726d696e6752616e67653a3a5f75706461746543616d706169676e3a3a43604482015273185b5c185a59db881a59081b9bdd081d985b1a5960621b606482015260840161054e565b60006003828154811061211b5761211b61309c565b60009182526020808320858452600282526040808520805482518186028101860190935280835260079095029092019550929091849084015b8282101561219a57838290600052602060002090600202016040518060400160405290816000820154815260200160018201548152505081526020019060010190612154565b505050509050816003015443116121b057505050565b816005015460000361233d576000805b825181146122f15783600301548382815181106121df576121df61309c565b602002602001015160000151106122e95760008160000361220457846003015461222d565b836122106001846130c8565b815181106122205761222061309c565b6020026020010151600001515b90506000438584815181106122445761224461309c565b60200260200101516000015111905060008660030154831161226a57866003015461226c565b825b82612294578685815181106122835761228361309c565b602002602001015160000151612296565b435b6122a091906130c8565b9050808685815181106122b5576122b561309c565b6020026020010151602001516122cb91906130db565b6122d590866130f2565b945081156122e5575050506122f1565b5050505b6001016121c0565b508015612331576001830154612331906001600160a01b03167f000000000000000000000000000000000000000000000000000000000000000083612018565b50504360039091015550565b60005b8151811461056c5760006123768460030154438585815181106123655761236561309c565b602002602001015160000151610ec7565b90508015612432578282815181106123905761239061309c565b6020026020010151600001514311156123cb578282815181106123b5576123b561309c565b60209081029190910101515160038501556123d2565b4360038501555b83600501548383815181106123e9576123e961309c565b6020026020010151602001518261240091906130db565b6124139068056bc75e2d631000006130db565b61241d919061311b565b846004015461242c91906130f2565b60048501555b50600101612340565b600080808815612478578561245160018b6130c8565b815481106124615761246161309c565b90600052602060002090600202016000015461247e565b84600201545b9050600081431161248f5781612491565b435b905060008286600001546124a591906130c8565b905060006124b3838c6130c8565b60018801549091506000816124c887876130c8565b6124d291906130db565b905060006124e085846130db565b905060006124ee858f6130db565b90506124fa83826130f2565b821199508961251d578161250e84836130f2565b61251891906130c8565b612532565b8261252882846130c8565b61253291906130c8565b985089156125735760018c0154612573906001600160a01b03167f00000000000000000000000000000000000000000000000000000000000000008b612018565b5050505050505050965096945050505050565b600082815260026020908152604080832080548251818502810185019093528083528493849084015b828210156125f5578382906000526020600020906002020160405180604001604052908160008201548152602001600182015481525050815260200190600101906125af565b505082519293505050600081900361261257600092505050611135565b60005b8181146126705782818151811061262e5761262e61309c565b6020026020010151600001518511612668578281815181106126525761265261309c565b6020026020010151602001519350505050611135565b600101612615565b50600095945050505050565b600080600385815481106126925761269261309c565b600091825260208083206040805160e081018252600790940290910180546001600160a01b03908116855260018201541684840152600280820154858401526003820154606086015260048201546080860152600582015460a086015260069091015460c08501528985528252808420805482518185028101850190935280835293955090929091849084015b828210156127655783829060005260206000209060020201604051806040016040529081600082015481526020016001820154815250508152602001906001019061271f565b50505050905060008260800151905082606001514311801561278a575060a083015115155b1561284457606083015160005b835181146128415760006127b883438785815181106123655761236561309c565b90508015612838578482815181106127d2576127d261309c565b60200260200101516000015192508560a001518583815181106127f7576127f761309c565b6020026020010151602001518261280e91906130db565b6128219068056bc75e2d631000006130db565b61282b919061311b565b61283590856130f2565b93505b50600101612797565b50505b8468056bc75e2d6310000061285983896130db565b612863919061311b565b61286d91906130c8565b979650505050505050565b600082815260026020908152604080832080548251818502810185019093528083528493849084015b828210156128e7578382906000526020600020906002020160405180604001604052908160008201548152602001600182015481525050815260200190600101906128a1565b505082519293505050600081900361290457600092505050611135565b60005b818114612962578281815181106129205761292061309c565b602002602001015160000151851161295a578281815181106129445761294461309c565b6020026020010151600001519350505050611135565b600101612907565b508161296f6001836130c8565b8151811061297f5761297f61309c565b6020026020010151600001519250505092915050565b60006129ea826040518060400160405280602081526020017f5361666545524332303a206c6f772d6c6576656c2063616c6c206661696c6564815250856001600160a01b0316612a6a9092919063ffffffff16565b9050805160001480612a0b575080806020019051810190612a0b91906131e0565b6108a65760405162461bcd60e51b815260206004820152602a60248201527f5361666545524332303a204552433230206f7065726174696f6e20646964206e6044820152691bdd081cdd58d8d9595960b21b606482015260840161054e565b6060610f06848460008585600080866001600160a01b03168587604051612a9191906131ab565b60006040518083038185875af1925050503d8060008114612ace576040519150601f19603f3d011682016040523d82523d6000602084013e612ad3565b606091505b5091509150612ae487838387612af1565b925050505b949350505050565b60608315612b60578251600003612b59576001600160a01b0385163b612b595760405162461bcd60e51b815260206004820152601d60248201527f416464726573733a2063616c6c20746f206e6f6e2d636f6e7472616374000000604482015260640161054e565b5081612ae9565b612ae98383815115612b755781518083602001fd5b8060405162461bcd60e51b815260040161054e91906131fd565b60008060408385031215612ba257600080fd5b50508035926020909101359150565b6001600160a01b0381168114610e6957600080fd5b60008060008060808587031215612bdc57600080fd5b8435612be781612bb1565b93506020850135612bf781612bb1565b92506040850135612c0781612bb1565b9396929550929360600135925050565b600080600060608486031215612c2c57600080fd5b505081359360208301359350604090920135919050565b8015158114610e6957600080fd5b600080600080600080600060e0888a031215612c6c57600080fd5b87359650602088013595506040880135612c8581612c43565b945060608801359350608088013560ff81168114612ca257600080fd5b9699959850939692959460a0840135945060c09093013592915050565b600060208284031215612cd157600080fd5b5035919050565b60008083601f840112612cea57600080fd5b50813567ffffffffffffffff811115612d0257600080fd5b6020830191508360208260051b8501011115612d1d57600080fd5b9250929050565b600080600080600060608688031215612d3c57600080fd5b85359450602086013567ffffffffffffffff80821115612d5b57600080fd5b612d6789838a01612cd8565b90965094506040880135915080821115612d8057600080fd5b50612d8d88828901612cd8565b969995985093965092949392505050565b600080600060608486031215612db357600080fd5b8335612dbe81612bb1565b92506020840135612dce81612bb1565b929592945050506040919091013590565b634e487b7160e01b600052604160045260246000fd5b600082601f830112612e0657600080fd5b8135602067ffffffffffffffff80831115612e2357612e23612ddf565b8260051b604051601f19603f83011681018181108482111715612e4857612e48612ddf565b604052938452858101830193838101925087851115612e6657600080fd5b83870191505b8482101561286d57813583529183019190830190612e6c565b60008060008060808587031215612e9b57600080fd5b84359350602085013567ffffffffffffffff80821115612eba57600080fd5b612ec688838901612df5565b94506040870135915080821115612edc57600080fd5b612ee888838901612df5565b93506060870135915080821115612efe57600080fd5b50612f0b87828801612df5565b91505092959194509250565b60008060208385031215612f2a57600080fd5b823567ffffffffffffffff811115612f4157600080fd5b612f4d85828601612cd8565b90969095509350505050565b60008060408385031215612f6c57600080fd5b823591506020830135612f7e81612bb1565b809150509250929050565b60008060008060808587031215612f9f57600080fd5b5050823594602084013594506040840135936060013592509050565b600060208284031215612fcd57600080fd5b8135610f0981612bb1565b6000806000806000806000806080898b031215612ff457600080fd5b883567ffffffffffffffff8082111561300c57600080fd5b6130188c838d01612cd8565b909a50985060208b013591508082111561303157600080fd5b61303d8c838d01612cd8565b909850965060408b013591508082111561305657600080fd5b6130628c838d01612cd8565b909650945060608b013591508082111561307b57600080fd5b506130888b828c01612cd8565b999c989b5096995094979396929594505050565b634e487b7160e01b600052603260045260246000fd5b634e487b7160e01b600052601160045260246000fd5b81810381811115611135576111356130b2565b8082028115828204841417611135576111356130b2565b80820180821115611135576111356130b2565b634e487b7160e01b600052603160045260246000fd5b60008261313857634e487b7160e01b600052601260045260246000fd5b500490565b6000808335601e1984360301811261315457600080fd5b83018035915067ffffffffffffffff82111561316f57600080fd5b6020019150600581901b3603821315612d1d57600080fd5b60005b838110156131a257818101518382015260200161318a565b50506000910152565b600082516131bd818460208701613187565b9190910192915050565b6000602082840312156131d957600080fd5b5051919050565b6000602082840312156131f257600080fd5b8151610f0981612c43565b602081526000825180602084015261321c816040850160208701613187565b601f01601f1916919091016040019291505056fea164736f6c6343000811000a60c06040526007805460ff191690553480156200001b57600080fd5b5060405162002210380380620022108339810160408190526200003e91620001cb565b6040518060400160405280601481526020017f5374616b656420536d617244657820546f6b656e000000000000000000000000815250604051806040016040528060068152602001650e6e8a6888ab60d31b8152508160039081620000a49190620002af565b506004620000b38282620002af565b5050506001600160a01b0382166200012d5760405162461bcd60e51b815260206004820152603260248201527f5374616b696e673a3a636f6e7374727563746f723a3a536d617264657820746f6044820152711ad95b881a5cc81b9bdd081919599a5b995960721b60648201526084015b60405180910390fd5b6001600160a01b0381166200019a5760405162461bcd60e51b815260206004820152602c60248201527f5374616b696e673a3a636f6e7374727563746f723a3a4661726d696e6720697360448201526b081b9bdd081919599a5b995960a21b606482015260840162000124565b6001600160a01b039182166080521660a0526200037b565b6001600160a01b0381168114620001c857600080fd5b50565b60008060408385031215620001df57600080fd5b8251620001ec81620001b2565b6020840151909250620001ff81620001b2565b809150509250929050565b634e487b7160e01b600052604160045260246000fd5b600181811c908216806200023557607f821691505b6020821081036200025657634e487b7160e01b600052602260045260246000fd5b50919050565b601f821115620002aa57600081815260208120601f850160051c81016020861015620002855750805b601f850160051c820191505b81811015620002a65782815560010162000291565b5050505b505050565b81516001600160401b03811115620002cb57620002cb6200020a565b620002e381620002dc845462000220565b846200025c565b602080601f8311600181146200031b5760008415620003025750858301515b600019600386901b1c1916600185901b178555620002a6565b600085815260208120601f198616915b828110156200034c578886015182559484019460019091019084016200032b565b50858210156200036b5787850151600019600388901b60f8161c191681555b5050505050600190811b01905550565b60805160a051611e0d62000403600039600081816102800152818161054e01528181610c4401528181610c9201528181610ddc01526110db0152600081816102bf015281816104c4015281816106050152818161075e0152818161080501528181610a0901528181610b5a01528181610d5201528181610f8301526110540152611e0d6000f3fe608060405234801561001057600080fd5b506004361061018e5760003560e01c80636ff1c9bc116100de578063b6b55f2511610097578063eed06a6311610071578063eed06a6314610397578063f3044ac7146103a4578063f3fef3a3146103b7578063fe2ed8b0146103ca57600080fd5b8063b6b55f2514610369578063c0939f491461037c578063dd62ed3e1461038457600080fd5b80636ff1c9bc146102f657806370a082311461030957806395d89b4114610332578063a1a47d711461033a578063a457c2d714610343578063a9059cbb1461035657600080fd5b806327def4fd1161014b5780633a98ef39116101255780633a98ef39146102725780634e3ad80f1461027b578063670b3a0b146102ba5780636e28ee66146102e157600080fd5b806327def4fd1461023d578063313ce56714610250578063395093511461025f57600080fd5b806306fdde0314610193578063095ea7b3146101b157806318160ddd146101d45780631959a002146101e657806323b872dd1461022257806326c07fd714610235575b600080fd5b61019b6103d2565b6040516101a89190611aa2565b60405180910390f35b6101c46101bf366004611af1565b610464565b60405190151581526020016101a8565b6002545b6040519081526020016101a8565b61020d6101f4366004611b1b565b6005602052600090815260409020805460019091015482565b604080519283526020830191909152016101a8565b6101c4610230366004611b36565b61047e565b6101d8600081565b6101d861024b366004611b72565b6104a2565b604051601281526020016101a8565b6101c461026d366004611af1565b6105de565b6101d860065481565b6102a27f000000000000000000000000000000000000000000000000000000000000000081565b6040516001600160a01b0390911681526020016101a8565b6102a27f000000000000000000000000000000000000000000000000000000000000000081565b6102f46102ef366004611b9c565b610600565b005b6102f4610304366004611b1b565b61064f565b6101d8610317366004611b1b565b6001600160a01b031660009081526020819052604090205490565b61019b610881565b6101d86103e881565b6101c4610351366004611af1565b610890565b6101c4610364366004611af1565b61090b565b6102f4610377366004611b72565b610919565b6102f4610bc3565b6101d8610392366004611bfe565b610d05565b6007546101c49060ff1681565b6101d86103b2366004611b72565b610d30565b6102f46103c5366004611af1565b610e65565b6102f46110be565b6060600380546103e190611c31565b80601f016020809104026020016040519081016040528092919081815260200182805461040d90611c31565b801561045a5780601f1061042f5761010080835404028352916020019161045a565b820191906000526020600020905b81548152906001019060200180831161043d57829003601f168201915b5050505050905090565b600033610472818585611141565b60019150505b92915050565b60003361048c858285611265565b6104978585856112d9565b506001949350505050565b6040516370a0823160e01b815230600482015260009081906001600160a01b037f000000000000000000000000000000000000000000000000000000000000000016906370a0823190602401602060405180830381865afa15801561050b573d6000803e3d6000fd5b505050506040513d601f19601f8201168201806040525081019061052f9190611c6b565b604051634c4b4f4160e11b8152600060048201523060248201529091507f00000000000000000000000000000000000000000000000000000000000000006001600160a01b0316906398969e8290604401602060405180830381865afa15801561059d573d6000803e3d6000fd5b505050506040513d601f19601f820116820180604052508101906105c19190611c6b565b6105cb9082611c9a565b90506105d7838261147d565b9392505050565b6000336104728185856105f18383610d05565b6105fb9190611c9a565b611141565b61063e7f00000000000000000000000000000000000000000000000000000000000000003330886106315789610635565b6000195b888888886114b7565b61064786610919565b505050505050565b60075460ff16151560011461067f5760405162461bcd60e51b815260040161067690611cad565b60405180910390fd5b3360009081526005602052604090206001015443116106b05760405162461bcd60e51b815260040161067690611d0a565b33600090815260056020526040812043600182015554900361072e5760405162461bcd60e51b815260206004820152603160248201527f5374616b696e673a3a656d657267656e637957697468647261773a3a6e6f2073604482015270686172657320746f20776974686472617760781b6064820152608401610676565b336000908152600560205260408082205490516370a0823160e01b81523060048201529091906001600160a01b037f000000000000000000000000000000000000000000000000000000000000000016906370a0823190602401602060405180830381865afa1580156107a5573d6000803e3d6000fd5b505050506040513d601f19601f820116820180604052508101906107c99190611c6b565b905060006107d7838361147d565b905082600660008282546107eb9190611d7b565b9091555050336000908152600560205260408120556108347f00000000000000000000000000000000000000000000000000000000000000006001600160a01b0316858361168d565b60408051828152602081018590526001600160a01b0386169133917f1401b6ff3b281e84fd77353369caed48ba7e787dd3821db05cc006437360820191015b60405180910390a350505050565b6060600480546103e190611c31565b6000338161089e8286610d05565b9050838110156108fe5760405162461bcd60e51b815260206004820152602560248201527f45524332303a2064656372656173656420616c6c6f77616e63652062656c6f77604482015264207a65726f60d81b6064820152608401610676565b6104978286868403611141565b6000336104728185856112d9565b60075460ff1615156001146109405760405162461bcd60e51b815260040161067690611cad565b3360009081526005602052604090206001015443116109715760405162461bcd60e51b815260040161067690611d0a565b336000908152600560205260408120436001909101558190036109e95760405162461bcd60e51b815260206004820152602a60248201527f5374616b696e673a3a6465706f7369743a3a63616e2774206465706f736974206044820152693d32b937903a37b5b2b760b11b6064820152608401610676565b6109f16110be565b6040516370a0823160e01b81523060048201526000907f00000000000000000000000000000000000000000000000000000000000000006001600160a01b0316906370a0823190602401602060405180830381865afa158015610a58573d6000803e3d6000fd5b505050506040513d601f19601f82011682018060405250810190610a7c9190611c6b565b90506000610a8a83836116f5565b90506000600654600003610aab57610aa46103e883611d7b565b9050610aae565b50805b80600003610b0f5760405162461bcd60e51b815260206004820152602860248201527f5374616b696e673a3a6465706f7369743a3a6e6f206e657720736861726573206044820152671c9958d95a5d995960c21b6064820152608401610676565b3360009081526005602052604081208054839290610b2e908490611c9a565b925050819055508160066000828254610b479190611c9a565b90915550610b8290506001600160a01b037f000000000000000000000000000000000000000000000000000000000000000016333087611722565b604080518581526020810183905233917f90890809c654f11d6e72a28fa60149770a0d11ec6c92319d6ceb2bb0a4ea1a15910160405180910390a250505050565b60075460ff1615610c3e576040805162461bcd60e51b81526020600482015260248101919091527f5374616b696e673a3a696e697469616c697a654661726d696e673a3a4661726d60448201527f696e672063616d706169676e20616c726561647920696e697469616c697a65646064820152608401610676565b610c6a307f00000000000000000000000000000000000000000000000000000000000000006001611141565b610c7530600161175a565b604051631c57762b60e31b815260006004820152600160248201527f00000000000000000000000000000000000000000000000000000000000000006001600160a01b03169063e2bbb15890604401600060405180830381600087803b158015610cde57600080fd5b505af1158015610cf2573d6000803e3d6000fd5b50506007805460ff191660011790555050565b6001600160a01b03918216600090815260016020908152604080832093909416825291909152205490565b6040516370a0823160e01b815230600482015260009081906001600160a01b037f000000000000000000000000000000000000000000000000000000000000000016906370a0823190602401602060405180830381865afa158015610d99573d6000803e3d6000fd5b505050506040513d601f19601f82011682018060405250810190610dbd9190611c6b565b604051634c4b4f4160e11b8152600060048201523060248201529091507f00000000000000000000000000000000000000000000000000000000000000006001600160a01b0316906398969e8290604401602060405180830381865afa158015610e2b573d6000803e3d6000fd5b505050506040513d601f19601f82011682018060405250810190610e4f9190611c6b565b610e599082611c9a565b90506105d783826116f5565b60075460ff161515600114610e8c5760405162461bcd60e51b815260040161067690611cad565b336000908152600560205260409020600101544311610ebd5760405162461bcd60e51b815260040161067690611d0a565b336000908152600560205260409020436001909101558015801590610ef15750336000908152600560205260409020548111155b610f635760405162461bcd60e51b815260206004820152603f60248201527f5374616b696e673a3a77697468647261773a3a63616e2774207769746864726160448201527f77206d6f7265207468616e207573657220736861726573206f72207a65726f006064820152608401610676565b610f6b6110be565b6040516370a0823160e01b81523060048201526000907f00000000000000000000000000000000000000000000000000000000000000006001600160a01b0316906370a0823190602401602060405180830381865afa158015610fd2573d6000803e3d6000fd5b505050506040513d601f19601f82011682018060405250810190610ff69190611c6b565b90506000611004838361147d565b33600090815260056020526040812080549293508592909190611028908490611d7b565b9250508190555082600660008282546110419190611d7b565b9091555061107b90506001600160a01b037f000000000000000000000000000000000000000000000000000000000000000016858361168d565b60408051828152602081018590526001600160a01b0386169133917ff341246adaac6f497bc2a656f546ab9e182111d630394f0c57c710a59a2cb5679101610873565b604051630441a3e760e41b815260006004820181905260248201527f00000000000000000000000000000000000000000000000000000000000000006001600160a01b03169063441a3e7090604401600060405180830381600087803b15801561112757600080fd5b505af115801561113b573d6000803e3d6000fd5b50505050565b6001600160a01b0383166111a35760405162461bcd60e51b8152602060048201526024808201527f45524332303a20617070726f76652066726f6d20746865207a65726f206164646044820152637265737360e01b6064820152608401610676565b6001600160a01b0382166112045760405162461bcd60e51b815260206004820152602260248201527f45524332303a20617070726f766520746f20746865207a65726f206164647265604482015261737360f01b6064820152608401610676565b6001600160a01b0383811660008181526001602090815260408083209487168084529482529182902085905590518481527f8c5be1e5ebec7d5bd14f71427d1e84f3dd0314c0f7b2291e5b200ac8c7c3b925910160405180910390a3505050565b60006112718484610d05565b9050600019811461113b57818110156112cc5760405162461bcd60e51b815260206004820152601d60248201527f45524332303a20696e73756666696369656e7420616c6c6f77616e63650000006044820152606401610676565b61113b8484848403611141565b6001600160a01b03831661133d5760405162461bcd60e51b815260206004820152602560248201527f45524332303a207472616e736665722066726f6d20746865207a65726f206164604482015264647265737360d81b6064820152608401610676565b6001600160a01b03821661139f5760405162461bcd60e51b815260206004820152602360248201527f45524332303a207472616e7366657220746f20746865207a65726f206164647260448201526265737360e81b6064820152608401610676565b6001600160a01b038316600090815260208190526040902054818110156114175760405162461bcd60e51b815260206004820152602660248201527f45524332303a207472616e7366657220616d6f756e7420657863656564732062604482015265616c616e636560d01b6064820152608401610676565b6001600160a01b03848116600081815260208181526040808320878703905593871680835291849020805487019055925185815290927fddf252ad1be2c89b69c2b068fc378daa952ba7f163c4a11628f55a4df523b3ef910160405180910390a361113b565b60006006546000036114a05761149b670de0b6b3a764000084611d8e565b6105d7565b6006546114ad8385611db0565b6105d79190611d8e565b604051623f675f60e91b81526001600160a01b038881166004830152600091908a1690637ecebe0090602401602060405180830381865afa158015611500573d6000803e3d6000fd5b505050506040513d601f19601f820116820180604052508101906115249190611c6b565b60405163d505accf60e01b81526001600160a01b038a811660048301528981166024830152604482018990526064820188905260ff8716608483015260a4820186905260c48201859052919250908a169063d505accf9060e401600060405180830381600087803b15801561159857600080fd5b505af11580156115ac573d6000803e3d6000fd5b5050604051623f675f60e91b81526001600160a01b038b81166004830152600093508c169150637ecebe0090602401602060405180830381865afa1580156115f8573d6000803e3d6000fd5b505050506040513d601f19601f8201168201806040525081019061161c9190611c6b565b9050611629826001611c9a565b81146116815760405162461bcd60e51b815260206004820152602160248201527f5361666545524332303a207065726d697420646964206e6f74207375636365656044820152601960fa1b6064820152608401610676565b50505050505050505050565b6040516001600160a01b0383166024820152604481018290526116f090849063a9059cbb60e01b906064015b60408051601f198184030181529190526020810180516001600160e01b03166001600160e01b031990931692909217909152611819565b505050565b60006006546000036117135761149b670de0b6b3a764000084611db0565b81600654846114ad9190611db0565b6040516001600160a01b038085166024830152831660448201526064810182905261113b9085906323b872dd60e01b906084016116b9565b6001600160a01b0382166117b05760405162461bcd60e51b815260206004820152601f60248201527f45524332303a206d696e7420746f20746865207a65726f2061646472657373006044820152606401610676565b80600260008282546117c29190611c9a565b90915550506001600160a01b038216600081815260208181526040808320805486019055518481527fddf252ad1be2c89b69c2b068fc378daa952ba7f163c4a11628f55a4df523b3ef910160405180910390a35050565b600061186e826040518060400160405280602081526020017f5361666545524332303a206c6f772d6c6576656c2063616c6c206661696c6564815250856001600160a01b03166118ee9092919063ffffffff16565b905080516000148061188f57508080602001905181019061188f9190611dc7565b6116f05760405162461bcd60e51b815260206004820152602a60248201527f5361666545524332303a204552433230206f7065726174696f6e20646964206e6044820152691bdd081cdd58d8d9595960b21b6064820152608401610676565b60606118fd8484600085611905565b949350505050565b6060824710156119665760405162461bcd60e51b815260206004820152602660248201527f416464726573733a20696e73756666696369656e742062616c616e636520666f6044820152651c8818d85b1b60d21b6064820152608401610676565b600080866001600160a01b031685876040516119829190611de4565b60006040518083038185875af1925050503d80600081146119bf576040519150601f19603f3d011682016040523d82523d6000602084013e6119c4565b606091505b50915091506119d5878383876119e0565b979650505050505050565b60608315611a4f578251600003611a48576001600160a01b0385163b611a485760405162461bcd60e51b815260206004820152601d60248201527f416464726573733a2063616c6c20746f206e6f6e2d636f6e74726163740000006044820152606401610676565b50816118fd565b6118fd8383815115611a645781518083602001fd5b8060405162461bcd60e51b81526004016106769190611aa2565b60005b83811015611a99578181015183820152602001611a81565b50506000910152565b6020815260008251806020840152611ac1816040850160208701611a7e565b601f01601f19169190910160400192915050565b80356001600160a01b0381168114611aec57600080fd5b919050565b60008060408385031215611b0457600080fd5b611b0d83611ad5565b946020939093013593505050565b600060208284031215611b2d57600080fd5b6105d782611ad5565b600080600060608486031215611b4b57600080fd5b611b5484611ad5565b9250611b6260208501611ad5565b9150604084013590509250925092565b600060208284031215611b8457600080fd5b5035919050565b8015158114611b9957600080fd5b50565b60008060008060008060c08789031215611bb557600080fd5b863595506020870135611bc781611b8b565b945060408701359350606087013560ff81168114611be457600080fd5b9598949750929560808101359460a0909101359350915050565b60008060408385031215611c1157600080fd5b611c1a83611ad5565b9150611c2860208401611ad5565b90509250929050565b600181811c90821680611c4557607f821691505b602082108103611c6557634e487b7160e01b600052602260045260246000fd5b50919050565b600060208284031215611c7d57600080fd5b5051919050565b634e487b7160e01b600052601160045260246000fd5b8082018082111561047857610478611c84565b6020808252603f908201527f5374616b696e673a3a69734661726d696e67496e697469616c697a65643a3a4660408201527f61726d696e672063616d706169676e206e6f7420696e697469616c697a656400606082015260800190565b6020808252604b908201527f5374616b696e673a3a636865636b55736572426c6f636b3a3a5573657220616c60408201527f72656164792063616c6c6564206465706f736974206f7220776974686472617760608201526a207468697320626c6f636b60a81b608082015260a00190565b8181038181111561047857610478611c84565b600082611dab57634e487b7160e01b600052601260045260246000fd5b500490565b808202811582820484141761047857610478611c84565b600060208284031215611dd957600080fd5b81516105d781611b8b565b60008251611df6818460208701611a7e565b919091019291505056fea164736f6c6343000811000a",
  "devdoc": {
    "kind": "dev",
    "methods": {
      "constructor": {
        "params": {
          "_farmingOwner": "address who will own the farming",
          "_smardexToken": "address of the smardex token",
          "_startFarmingCampaign": "block number the staking pool in the farming will start to give rewards"
        }
      },
      "resetAllowance(uint256)": {
        "params": {
          "_campaignId": "campaign id"
        }
      }
    },
    "stateVariables": {
      "farming": {
        "return": "farming contract address (or FarmingRange contract type in Solidity)",
        "returns": {
          "_0": "farming contract address (or FarmingRange contract type in Solidity)"
        }
      },
      "staking": {
        "return": "staking contract address (or Staking contract type in Solidity)",
        "returns": {
          "_0": "staking contract address (or Staking contract type in Solidity)"
        }
      }
    },
    "title": "RewardManager",
    "version": 1
  },
  "userdoc": {
    "kind": "user",
    "methods": {
      "farming()": {
        "notice": "used to get the farming contract address"
      },
      "resetAllowance(uint256)": {
        "notice": "used to resetAllowance with farming contract to take rewards"
      },
      "staking()": {
        "notice": "used to get the staking contract address"
      }
    },
    "notice": "RewardManager handles the creation of the contract staking and farming, automatically create a campaignInfo in the farming for the staking, at slot 0 and initialize farming. The RewardManager is the owner of the funds in the FarmingRange, only the RewardManager is capable of sending funds to be farmed and only the RewardManager will get the funds back when updating of removing campaigns.",
    "version": 1
  },
  "storageLayout": {
    "storage": [],
    "types": null
  }
}