{
  "address": "0xC33984ABcAe20f47a754eF78f6526FeF266c0C6F",
  "abi": [
    {
      "inputs": [
        {
          "internalType": "address",
          "name": "_factory",
          "type": "address"
        },
        {
          "internalType": "address",
          "name": "_WETH",
          "type": "address"
        }
      ],
      "stateMutability": "nonpayable",
      "type": "constructor"
    },
    {
      "anonymous": false,
      "inputs": [
        {
          "indexed": false,
          "internalType": "address",
          "name": "tokenA",
          "type": "address"
        },
        {
          "indexed": false,
          "internalType": "address",
          "name": "tokenB",
          "type": "address"
        },
        {
          "indexed": false,
          "internalType": "address",
          "name": "pair",
          "type": "address"
        }
      ],
      "name": "PairWhitelisted",
      "type": "event"
    },
    {
      "inputs": [],
      "name": "WETH",
      "outputs": [
        {
          "internalType": "address",
          "name": "",
          "type": "address"
        }
      ],
      "stateMutability": "view",
      "type": "function"
    },
    {
      "inputs": [
        {
          "components": [
            {
              "internalType": "address",
              "name": "tokenA",
              "type": "address"
            },
            {
              "internalType": "address",
              "name": "tokenB",
              "type": "address"
            },
            {
              "internalType": "uint256",
              "name": "amountADesired",
              "type": "uint256"
            },
            {
              "internalType": "uint256",
              "name": "amountBDesired",
              "type": "uint256"
            },
            {
              "internalType": "uint256",
              "name": "amountAMin",
              "type": "uint256"
            },
            {
              "internalType": "uint256",
              "name": "amountBMin",
              "type": "uint256"
            },
            {
              "internalType": "uint128",
              "name": "fictiveReserveB",
              "type": "uint128"
            },
            {
              "internalType": "uint128",
              "name": "fictiveReserveAMin",
              "type": "uint128"
            },
            {
              "internalType": "uint128",
              "name": "fictiveReserveAMax",
              "type": "uint128"
            }
          ],
          "internalType": "struct ISmardexRouter.AddLiquidityParams",
          "name": "_params",
          "type": "tuple"
        },
        {
          "internalType": "address",
          "name": "_to",
          "type": "address"
        },
        {
          "internalType": "uint256",
          "name": "_deadline",
          "type": "uint256"
        }
      ],
      "name": "addLiquidity",
      "outputs": [
        {
          "internalType": "uint256",
          "name": "amountA_",
          "type": "uint256"
        },
        {
          "internalType": "uint256",
          "name": "amountB_",
          "type": "uint256"
        },
        {
          "internalType": "uint256",
          "name": "liquidity_",
          "type": "uint256"
        }
      ],
      "stateMutability": "nonpayable",
      "type": "function"
    },
    {
      "inputs": [
        {
          "components": [
            {
              "internalType": "address",
              "name": "token",
              "type": "address"
            },
            {
              "internalType": "uint256",
              "name": "amountTokenDesired",
              "type": "uint256"
            },
            {
              "internalType": "uint256",
              "name": "amountTokenMin",
              "type": "uint256"
            },
            {
              "internalType": "uint256",
              "name": "amountETHMin",
              "type": "uint256"
            },
            {
              "internalType": "uint128",
              "name": "fictiveReserveETH",
              "type": "uint128"
            },
            {
              "internalType": "uint128",
              "name": "fictiveReserveTokenMin",
              "type": "uint128"
            },
            {
              "internalType": "uint128",
              "name": "fictiveReserveTokenMax",
              "type": "uint128"
            }
          ],
          "internalType": "struct ISmardexRouter.AddLiquidityETHParams",
          "name": "_params",
          "type": "tuple"
        },
        {
          "internalType": "address",
          "name": "_to",
          "type": "address"
        },
        {
          "internalType": "uint256",
          "name": "_deadline",
          "type": "uint256"
        }
      ],
      "name": "addLiquidityETH",
      "outputs": [
        {
          "internalType": "uint256",
          "name": "amountToken_",
          "type": "uint256"
        },
        {
          "internalType": "uint256",
          "name": "amountETH_",
          "type": "uint256"
        },
        {
          "internalType": "uint256",
          "name": "liquidity_",
          "type": "uint256"
        }
      ],
      "stateMutability": "payable",
      "type": "function"
    },
    {
      "inputs": [
        {
          "internalType": "address",
          "name": "_tokenA",
          "type": "address"
        },
        {
          "internalType": "address",
          "name": "_tokenB",
          "type": "address"
        }
      ],
      "name": "addPairToWhitelist",
      "outputs": [
        {
          "internalType": "address",
          "name": "pair_",
          "type": "address"
        }
      ],
      "stateMutability": "nonpayable",
      "type": "function"
    },
    {
      "inputs": [],
      "name": "factory",
      "outputs": [
        {
          "internalType": "address",
          "name": "",
          "type": "address"
        }
      ],
      "stateMutability": "view",
      "type": "function"
    },
    {
      "inputs": [
        {
          "components": [
            {
              "internalType": "uint256",
              "name": "amount",
              "type": "uint256"
            },
            {
              "internalType": "uint256",
              "name": "reserveIn",
              "type": "uint256"
            },
            {
              "internalType": "uint256",
              "name": "reserveOut",
              "type": "uint256"
            },
            {
              "internalType": "uint256",
              "name": "fictiveReserveIn",
              "type": "uint256"
            },
            {
              "internalType": "uint256",
              "name": "fictiveReserveOut",
              "type": "uint256"
            },
            {
              "internalType": "uint256",
              "name": "priceAverageIn",
              "type": "uint256"
            },
            {
              "internalType": "uint256",
              "name": "priceAverageOut",
              "type": "uint256"
            },
            {
              "internalType": "uint128",
              "name": "feesLP",
              "type": "uint128"
            },
            {
              "internalType": "uint128",
              "name": "feesPool",
              "type": "uint128"
            }
          ],
          "internalType": "struct SmardexLibrary.GetAmountParameters",
          "name": "_param",
          "type": "tuple"
        }
      ],
      "name": "getAmountIn",
      "outputs": [
        {
          "internalType": "uint256",
          "name": "amountIn_",
          "type": "uint256"
        },
        {
          "internalType": "uint256",
          "name": "newReserveIn_",
          "type": "uint256"
        },
        {
          "internalType": "uint256",
          "name": "newReserveOut_",
          "type": "uint256"
        },
        {
          "internalType": "uint256",
          "name": "newFictiveReserveIn_",
          "type": "uint256"
        },
        {
          "internalType": "uint256",
          "name": "newFictiveReserveOut_",
          "type": "uint256"
        }
      ],
      "stateMutability": "pure",
      "type": "function"
    },
    {
      "inputs": [
        {
          "internalType": "uint256",
          "name": "_amountOut",
          "type": "uint256"
        },
        {
          "internalType": "address",
          "name": "_tokenIn",
          "type": "address"
        },
        {
          "internalType": "address",
          "name": "_tokenOut",
          "type": "address"
        }
      ],
      "name": "getAmountInFromPair",
      "outputs": [
        {
          "internalType": "uint256",
          "name": "amountIn_",
          "type": "uint256"
        },
        {
          "internalType": "uint256",
          "name": "newReserveIn_",
          "type": "uint256"
        },
        {
          "internalType": "uint256",
          "name": "newReserveOut_",
          "type": "uint256"
        },
        {
          "internalType": "uint256",
          "name": "newFictiveReserveIn_",
          "type": "uint256"
        },
        {
          "internalType": "uint256",
          "name": "newFictiveReserveOut_",
          "type": "uint256"
        }
      ],
      "stateMutability": "view",
      "type": "function"
    },
    {
      "inputs": [
        {
          "components": [
            {
              "internalType": "uint256",
              "name": "amount",
              "type": "uint256"
            },
            {
              "internalType": "uint256",
              "name": "reserveIn",
              "type": "uint256"
            },
            {
              "internalType": "uint256",
              "name": "reserveOut",
              "type": "uint256"
            },
            {
              "internalType": "uint256",
              "name": "fictiveReserveIn",
              "type": "uint256"
            },
            {
              "internalType": "uint256",
              "name": "fictiveReserveOut",
              "type": "uint256"
            },
            {
              "internalType": "uint256",
              "name": "priceAverageIn",
              "type": "uint256"
            },
            {
              "internalType": "uint256",
              "name": "priceAverageOut",
              "type": "uint256"
            },
            {
              "internalType": "uint128",
              "name": "feesLP",
              "type": "uint128"
            },
            {
              "internalType": "uint128",
              "name": "feesPool",
              "type": "uint128"
            }
          ],
          "internalType": "struct SmardexLibrary.GetAmountParameters",
          "name": "_param",
          "type": "tuple"
        }
      ],
      "name": "getAmountOut",
      "outputs": [
        {
          "internalType": "uint256",
          "name": "amountOut_",
          "type": "uint256"
        },
        {
          "internalType": "uint256",
          "name": "newReserveIn_",
          "type": "uint256"
        },
        {
          "internalType": "uint256",
          "name": "newReserveOut_",
          "type": "uint256"
        },
        {
          "internalType": "uint256",
          "name": "newFictiveReserveIn_",
          "type": "uint256"
        },
        {
          "internalType": "uint256",
          "name": "newFictiveReserveOut_",
          "type": "uint256"
        }
      ],
      "stateMutability": "pure",
      "type": "function"
    },
    {
      "inputs": [
        {
          "internalType": "uint256",
          "name": "_amountIn",
          "type": "uint256"
        },
        {
          "internalType": "address",
          "name": "_tokenIn",
          "type": "address"
        },
        {
          "internalType": "address",
          "name": "_tokenOut",
          "type": "address"
        }
      ],
      "name": "getAmountOutFromPair",
      "outputs": [
        {
          "internalType": "uint256",
          "name": "amountOut_",
          "type": "uint256"
        },
        {
          "internalType": "uint256",
          "name": "newReserveIn_",
          "type": "uint256"
        },
        {
          "internalType": "uint256",
          "name": "newReserveOut_",
          "type": "uint256"
        },
        {
          "internalType": "uint256",
          "name": "newFictiveReserveIn_",
          "type": "uint256"
        },
        {
          "internalType": "uint256",
          "name": "newFictiveReserveOut_",
          "type": "uint256"
        }
      ],
      "stateMutability": "view",
      "type": "function"
    },
    {
      "inputs": [
        {
          "internalType": "uint256",
          "name": "_amountA",
          "type": "uint256"
        },
        {
          "internalType": "uint256",
          "name": "_reserveA",
          "type": "uint256"
        },
        {
          "internalType": "uint256",
          "name": "_reserveB",
          "type": "uint256"
        }
      ],
      "name": "quote",
      "outputs": [
        {
          "internalType": "uint256",
          "name": "amountB_",
          "type": "uint256"
        }
      ],
      "stateMutability": "pure",
      "type": "function"
    },
    {
      "inputs": [
        {
          "internalType": "address",
          "name": "_tokenA",
          "type": "address"
        },
        {
          "internalType": "address",
          "name": "_tokenB",
          "type": "address"
        },
        {
          "internalType": "uint256",
          "name": "_liquidity",
          "type": "uint256"
        },
        {
          "internalType": "uint256",
          "name": "_amountAMin",
          "type": "uint256"
        },
        {
          "internalType": "uint256",
          "name": "_amountBMin",
          "type": "uint256"
        },
        {
          "internalType": "address",
          "name": "_to",
          "type": "address"
        },
        {
          "internalType": "uint256",
          "name": "_deadline",
          "type": "uint256"
        }
      ],
      "name": "removeLiquidity",
      "outputs": [
        {
          "internalType": "uint256",
          "name": "amountA_",
          "type": "uint256"
        },
        {
          "internalType": "uint256",
          "name": "amountB_",
          "type": "uint256"
        }
      ],
      "stateMutability": "nonpayable",
      "type": "function"
    },
    {
      "inputs": [
        {
          "internalType": "address",
          "name": "_token",
          "type": "address"
        },
        {
          "internalType": "uint256",
          "name": "_liquidity",
          "type": "uint256"
        },
        {
          "internalType": "uint256",
          "name": "_amountTokenMin",
          "type": "uint256"
        },
        {
          "internalType": "uint256",
          "name": "_amountETHMin",
          "type": "uint256"
        },
        {
          "internalType": "address",
          "name": "_to",
          "type": "address"
        },
        {
          "internalType": "uint256",
          "name": "_deadline",
          "type": "uint256"
        }
      ],
      "name": "removeLiquidityETH",
      "outputs": [
        {
          "internalType": "uint256",
          "name": "amountToken_",
          "type": "uint256"
        },
        {
          "internalType": "uint256",
          "name": "amountETH_",
          "type": "uint256"
        }
      ],
      "stateMutability": "nonpayable",
      "type": "function"
    },
    {
      "inputs": [
        {
          "internalType": "address",
          "name": "_token",
          "type": "address"
        },
        {
          "internalType": "uint256",
          "name": "_liquidity",
          "type": "uint256"
        },
        {
          "internalType": "uint256",
          "name": "_amountTokenMin",
          "type": "uint256"
        },
        {
          "internalType": "uint256",
          "name": "_amountETHMin",
          "type": "uint256"
        },
        {
          "internalType": "address",
          "name": "_to",
          "type": "address"
        },
        {
          "internalType": "uint256",
          "name": "_deadline",
          "type": "uint256"
        },
        {
          "internalType": "bool",
          "name": "_approveMax",
          "type": "bool"
        },
        {
          "internalType": "uint8",
          "name": "_v",
          "type": "uint8"
        },
        {
          "internalType": "bytes32",
          "name": "_r",
          "type": "bytes32"
        },
        {
          "internalType": "bytes32",
          "name": "_s",
          "type": "bytes32"
        }
      ],
      "name": "removeLiquidityETHWithPermit",
      "outputs": [
        {
          "internalType": "uint256",
          "name": "amountToken_",
          "type": "uint256"
        },
        {
          "internalType": "uint256",
          "name": "amountETH_",
          "type": "uint256"
        }
      ],
      "stateMutability": "nonpayable",
      "type": "function"
    },
    {
      "inputs": [
        {
          "internalType": "address",
          "name": "_tokenA",
          "type": "address"
        },
        {
          "internalType": "address",
          "name": "_tokenB",
          "type": "address"
        },
        {
          "internalType": "uint256",
          "name": "_liquidity",
          "type": "uint256"
        },
        {
          "internalType": "uint256",
          "name": "_amountAMin",
          "type": "uint256"
        },
        {
          "internalType": "uint256",
          "name": "_amountBMin",
          "type": "uint256"
        },
        {
          "internalType": "address",
          "name": "_to",
          "type": "address"
        },
        {
          "internalType": "uint256",
          "name": "_deadline",
          "type": "uint256"
        },
        {
          "internalType": "bool",
          "name": "_approveMax",
          "type": "bool"
        },
        {
          "internalType": "uint8",
          "name": "_v",
          "type": "uint8"
        },
        {
          "internalType": "bytes32",
          "name": "_r",
          "type": "bytes32"
        },
        {
          "internalType": "bytes32",
          "name": "_s",
          "type": "bytes32"
        }
      ],
      "name": "removeLiquidityWithPermit",
      "outputs": [
        {
          "internalType": "uint256",
          "name": "amountA_",
          "type": "uint256"
        },
        {
          "internalType": "uint256",
          "name": "amountB_",
          "type": "uint256"
        }
      ],
      "stateMutability": "nonpayable",
      "type": "function"
    },
    {
      "inputs": [
        {
          "components": [
            {
              "internalType": "address",
              "name": "token0",
              "type": "address"
            },
            {
              "internalType": "address",
              "name": "token1",
              "type": "address"
            },
            {
              "internalType": "uint256",
              "name": "amount0",
              "type": "uint256"
            },
            {
              "internalType": "uint256",
              "name": "amount1",
              "type": "uint256"
            },
            {
              "internalType": "address",
              "name": "payer",
              "type": "address"
            }
          ],
          "internalType": "struct ISmardexMintCallback.MintCallbackData",
          "name": "_data",
          "type": "tuple"
        }
      ],
      "name": "smardexMintCallback",
      "outputs": [],
      "stateMutability": "nonpayable",
      "type": "function"
    },
    {
      "inputs": [
        {
          "internalType": "int256",
          "name": "_amount0Delta",
          "type": "int256"
        },
        {
          "internalType": "int256",
          "name": "_amount1Delta",
          "type": "int256"
        },
        {
          "internalType": "bytes",
          "name": "_data",
          "type": "bytes"
        }
      ],
      "name": "smardexSwapCallback",
      "outputs": [],
      "stateMutability": "nonpayable",
      "type": "function"
    },
    {
      "inputs": [
        {
          "internalType": "uint256",
          "name": "_amountOut",
          "type": "uint256"
        },
        {
          "internalType": "address[]",
          "name": "_path",
          "type": "address[]"
        },
        {
          "internalType": "address",
          "name": "_to",
          "type": "address"
        },
        {
          "internalType": "uint256",
          "name": "_deadline",
          "type": "uint256"
        }
      ],
      "name": "swapETHForExactTokens",
      "outputs": [
        {
          "internalType": "uint256",
          "name": "amountIn_",
          "type": "uint256"
        }
      ],
      "stateMutability": "payable",
      "type": "function"
    },
    {
      "inputs": [
        {
          "internalType": "uint256",
          "name": "_amountOutMin",
          "type": "uint256"
        },
        {
          "internalType": "address[]",
          "name": "_path",
          "type": "address[]"
        },
        {
          "internalType": "address",
          "name": "_to",
          "type": "address"
        },
        {
          "internalType": "uint256",
          "name": "_deadline",
          "type": "uint256"
        }
      ],
      "name": "swapExactETHForTokens",
      "outputs": [
        {
          "internalType": "uint256",
          "name": "amountOut_",
          "type": "uint256"
        }
      ],
      "stateMutability": "payable",
      "type": "function"
    },
    {
      "inputs": [
        {
          "internalType": "uint256",
          "name": "_amountIn",
          "type": "uint256"
        },
        {
          "internalType": "uint256",
          "name": "_amountOutMin",
          "type": "uint256"
        },
        {
          "internalType": "address[]",
          "name": "_path",
          "type": "address[]"
        },
        {
          "internalType": "address",
          "name": "_to",
          "type": "address"
        },
        {
          "internalType": "uint256",
          "name": "_deadline",
          "type": "uint256"
        }
      ],
      "name": "swapExactTokensForETH",
      "outputs": [
        {
          "internalType": "uint256",
          "name": "amountOut_",
          "type": "uint256"
        }
      ],
      "stateMutability": "nonpayable",
      "type": "function"
    },
    {
      "inputs": [
        {
          "internalType": "uint256",
          "name": "_amountIn",
          "type": "uint256"
        },
        {
          "internalType": "uint256",
          "name": "_amountOutMin",
          "type": "uint256"
        },
        {
          "internalType": "address[]",
          "name": "_path",
          "type": "address[]"
        },
        {
          "internalType": "address",
          "name": "_to",
          "type": "address"
        },
        {
          "internalType": "uint256",
          "name": "_deadline",
          "type": "uint256"
        },
        {
          "internalType": "bool",
          "name": "_approveMax",
          "type": "bool"
        },
        {
          "internalType": "uint8",
          "name": "_v",
          "type": "uint8"
        },
        {
          "internalType": "bytes32",
          "name": "_r",
          "type": "bytes32"
        },
        {
          "internalType": "bytes32",
          "name": "_s",
          "type": "bytes32"
        }
      ],
      "name": "swapExactTokensForETHWithPermit",
      "outputs": [
        {
          "internalType": "uint256",
          "name": "amountOut_",
          "type": "uint256"
        }
      ],
      "stateMutability": "nonpayable",
      "type": "function"
    },
    {
      "inputs": [
        {
          "internalType": "uint256",
          "name": "_amountIn",
          "type": "uint256"
        },
        {
          "internalType": "uint256",
          "name": "_amountOutMin",
          "type": "uint256"
        },
        {
          "internalType": "address[]",
          "name": "_path",
          "type": "address[]"
        },
        {
          "internalType": "address",
          "name": "_to",
          "type": "address"
        },
        {
          "internalType": "uint256",
          "name": "_deadline",
          "type": "uint256"
        }
      ],
      "name": "swapExactTokensForTokens",
      "outputs": [
        {
          "internalType": "uint256",
          "name": "amountOut_",
          "type": "uint256"
        }
      ],
      "stateMutability": "nonpayable",
      "type": "function"
    },
    {
      "inputs": [
        {
          "internalType": "uint256",
          "name": "_amountIn",
          "type": "uint256"
        },
        {
          "internalType": "uint256",
          "name": "_amountOutMin",
          "type": "uint256"
        },
        {
          "internalType": "address[]",
          "name": "_path",
          "type": "address[]"
        },
        {
          "internalType": "address",
          "name": "_to",
          "type": "address"
        },
        {
          "internalType": "uint256",
          "name": "_deadline",
          "type": "uint256"
        },
        {
          "internalType": "bool",
          "name": "_approveMax",
          "type": "bool"
        },
        {
          "internalType": "uint8",
          "name": "_v",
          "type": "uint8"
        },
        {
          "internalType": "bytes32",
          "name": "_r",
          "type": "bytes32"
        },
        {
          "internalType": "bytes32",
          "name": "_s",
          "type": "bytes32"
        }
      ],
      "name": "swapExactTokensForTokensWithPermit",
      "outputs": [
        {
          "internalType": "uint256",
          "name": "amountOut_",
          "type": "uint256"
        }
      ],
      "stateMutability": "nonpayable",
      "type": "function"
    },
    {
      "inputs": [
        {
          "internalType": "uint256",
          "name": "_amountOut",
          "type": "uint256"
        },
        {
          "internalType": "uint256",
          "name": "_amountInMax",
          "type": "uint256"
        },
        {
          "internalType": "address[]",
          "name": "_path",
          "type": "address[]"
        },
        {
          "internalType": "address",
          "name": "_to",
          "type": "address"
        },
        {
          "internalType": "uint256",
          "name": "_deadline",
          "type": "uint256"
        }
      ],
      "name": "swapTokensForExactETH",
      "outputs": [
        {
          "internalType": "uint256",
          "name": "amountIn_",
          "type": "uint256"
        }
      ],
      "stateMutability": "nonpayable",
      "type": "function"
    },
    {
      "inputs": [
        {
          "internalType": "uint256",
          "name": "_amountOut",
          "type": "uint256"
        },
        {
          "internalType": "uint256",
          "name": "_amountInMax",
          "type": "uint256"
        },
        {
          "internalType": "address[]",
          "name": "_path",
          "type": "address[]"
        },
        {
          "internalType": "address",
          "name": "_to",
          "type": "address"
        },
        {
          "internalType": "uint256",
          "name": "_deadline",
          "type": "uint256"
        },
        {
          "internalType": "bool",
          "name": "_approveMax",
          "type": "bool"
        },
        {
          "internalType": "uint8",
          "name": "_v",
          "type": "uint8"
        },
        {
          "internalType": "bytes32",
          "name": "_r",
          "type": "bytes32"
        },
        {
          "internalType": "bytes32",
          "name": "_s",
          "type": "bytes32"
        }
      ],
      "name": "swapTokensForExactETHWithPermit",
      "outputs": [
        {
          "internalType": "uint256",
          "name": "amountIn_",
          "type": "uint256"
        }
      ],
      "stateMutability": "nonpayable",
      "type": "function"
    },
    {
      "inputs": [
        {
          "internalType": "uint256",
          "name": "_amountOut",
          "type": "uint256"
        },
        {
          "internalType": "uint256",
          "name": "_amountInMax",
          "type": "uint256"
        },
        {
          "internalType": "address[]",
          "name": "_path",
          "type": "address[]"
        },
        {
          "internalType": "address",
          "name": "_to",
          "type": "address"
        },
        {
          "internalType": "uint256",
          "name": "_deadline",
          "type": "uint256"
        }
      ],
      "name": "swapTokensForExactTokens",
      "outputs": [
        {
          "internalType": "uint256",
          "name": "amountIn_",
          "type": "uint256"
        }
      ],
      "stateMutability": "nonpayable",
      "type": "function"
    },
    {
      "inputs": [
        {
          "internalType": "uint256",
          "name": "_amountOut",
          "type": "uint256"
        },
        {
          "internalType": "uint256",
          "name": "_amountInMax",
          "type": "uint256"
        },
        {
          "internalType": "address[]",
          "name": "_path",
          "type": "address[]"
        },
        {
          "internalType": "address",
          "name": "_to",
          "type": "address"
        },
        {
          "internalType": "uint256",
          "name": "_deadline",
          "type": "uint256"
        },
        {
          "internalType": "bool",
          "name": "_approveMax",
          "type": "bool"
        },
        {
          "internalType": "uint8",
          "name": "_v",
          "type": "uint8"
        },
        {
          "internalType": "bytes32",
          "name": "_r",
          "type": "bytes32"
        },
        {
          "internalType": "bytes32",
          "name": "_s",
          "type": "bytes32"
        }
      ],
      "name": "swapTokensForExactTokensWithPermit",
      "outputs": [
        {
          "internalType": "uint256",
          "name": "amountIn_",
          "type": "uint256"
        }
      ],
      "stateMutability": "nonpayable",
      "type": "function"
    },
    {
      "stateMutability": "payable",
      "type": "receive"
    }
  ],
  "transactionHash": "0x2868708d071ed1defbc670db2b240e3edc3837492f3c00f5a94b888a0b4e7acc",
  "args": [
    "0xB878DC600550367e14220d4916Ff678fB284214F",
    "0xC02aaA39b223FE8D0A0e5C4F27eAD9083C756Cc2"
  ],
  "numDeployments": 1,
  "solcInputHash": "9a528e97f00c020ac3457d0320b39a43",
  "bytecode": "0x60c06040526000196001553480156200001757600080fd5b50604051620058a0380380620058a08339810160408190526200003a916200006f565b6001600160a01b039182166080521660a052620000a7565b80516001600160a01b03811681146200006a57600080fd5b919050565b600080604083850312156200008357600080fd5b6200008e8362000052565b91506200009e6020840162000052565b90509250929050565b60805160a05161570f620001916000396000818161019501528181610431015281816105c00152818161060f015281816106b601528181610abb0152818161155401528181611b1101528181612232015281816122fd0152818161242c015281816126ed015281816127c2015281816133090152818161334f01526133e40152600081816104e50152818161075c01528181610c0d01528181610ec2015281816113ff015281816117110152818161188801528181611aef01528181611c11015281816128a10152818161293a01528181612a960152818161313401526135aa015261570f6000f3fe6080604052600436106101855760003560e01c80638803dbee116100d1578063c424a3fd1161008a578063df91785811610064578063df91785814610527578063e2b8de5d14610547578063f770006614610567578063fb3bdb411461057a57600080fd5b8063c424a3fd146104b3578063c45a0155146104d3578063ded9382a1461050757600080fd5b80638803dbee146103df578063a1dab4eb146103ff578063ad5c46481461041f578063ad615dec14610453578063baa2abde14610473578063bced01161461049357600080fd5b80634a25d94a1161013e5780635438fd0c116101185780635438fd0c1461036c57806356e73a9c1461038c578063797c4a13146103ac5780637ff36ab5146103cc57600080fd5b80634a25d94a146102f45780634b6e9b27146103145780634c61b0211461033457600080fd5b806302751cec146101c957806318cbafe5146102035780632195995c1461023157806323d6837014610251578063375e31931461028c57806338ed1739146102d457600080fd5b366101c457336001600160a01b037f000000000000000000000000000000000000000000000000000000000000000016146101c2576101c26149c7565b005b600080fd5b3480156101d557600080fd5b506101e96101e43660046149fd565b61058d565b604080519283526020830191909152015b60405180910390f35b34801561020f57600080fd5b5061022361021e366004614aa0565b610689565b6040519081526020016101fa565b34801561023d57600080fd5b506101e961024c366004614b32565b610752565b34801561025d57600080fd5b5061027161026c366004614bdc565b610827565b604080519384526020840192909252908201526060016101fa565b34801561029857600080fd5b506102ac6102a7366004614cda565b610956565b604080519586526020860194909452928401919091526060830152608082015260a0016101fa565b3480156102e057600080fd5b506102236102ef366004614aa0565b610979565b34801561030057600080fd5b5061022361030f366004614aa0565b610a8e565b34801561032057600080fd5b5061022361032f366004614d5f565b610b4c565b34801561034057600080fd5b5061035461034f366004614e09565b610c09565b6040516001600160a01b0390911681526020016101fa565b34801561037857600080fd5b50610223610387366004614d5f565b610dd8565b34801561039857600080fd5b506102ac6103a7366004614e42565b610e85565b3480156103b857600080fd5b506101c26103c7366004614e84565b6113fa565b6102236103da366004614e96565b61152f565b3480156103eb57600080fd5b506102236103fa366004614aa0565b6115e3565b34801561040b57600080fd5b506101c261041a366004614efd565b6116bd565b34801561042b57600080fd5b506103547f000000000000000000000000000000000000000000000000000000000000000081565b34801561045f57600080fd5b5061022361046e366004614f7d565b611848565b34801561047f57600080fd5b506101e961048e366004614fa9565b61185d565b34801561049f57600080fd5b506102ac6104ae366004614cda565b611a27565b3480156104bf57600080fd5b506102236104ce366004614d5f565b611a38565b3480156104df57600080fd5b506103547f000000000000000000000000000000000000000000000000000000000000000081565b34801561051357600080fd5b506101e961052236600461501b565b611ae5565b34801561053357600080fd5b506102ac610542366004614e42565b611bd4565b34801561055357600080fd5b50610223610562366004614d5f565b612132565b6102716105753660046150b1565b6121df565b610223610588366004614e96565b612407565b60008082428110156105ba5760405162461bcd60e51b81526004016105b1906150fa565b60405180910390fd5b6105e9897f00000000000000000000000000000000000000000000000000000000000000008a8a8a308a61185d565b90935091506105f98986856124c5565b604051632e1a7d4d60e01b8152600481018390527f00000000000000000000000000000000000000000000000000000000000000006001600160a01b031690632e1a7d4d90602401600060405180830381600087803b15801561065b57600080fd5b505af115801561066f573d6000803e3d6000fd5b5050505061067d85836125f6565b50965096945050505050565b600081428110156106ac5760405162461bcd60e51b81526004016105b1906150fa565b6001600160a01b037f00000000000000000000000000000000000000000000000000000000000000001686866106e3600182615140565b8181106106f2576106f2615153565b90506020020160208101906107079190615169565b6001600160a01b03161461072d5760405162461bcd60e51b81526004016105b190615186565b61073b888888883088610979565b915061074782856126d5565b509695505050505050565b60008060006107847f00000000000000000000000000000000000000000000000000000000000000008f8f6000612830565b9050600087610793578c610797565b6000195b60405163d505accf60e01b81529091506001600160a01b0383169063d505accf906107d2903390309086908f908e908e908e906004016151bd565b600060405180830381600087803b1580156107ec57600080fd5b505af19250505080156107fd575060015b5061080d8f8f8f8f8f8f8f61185d565b809450819550505050509b509b9950505050505050505050565b6000806000834281101561084d5760405162461bcd60e51b81526004016105b1906150fa565b6000610866610861368a90038a018a6151fe565b61286c565b91965094509050600061087f60408a0160208b01615169565b6001600160a01b031661089560208b018b615169565b6001600160a01b0316109050816001600160a01b031663f74bfe8e89836108bc57876108be565b885b846108c957896108cb565b885b6040516001600160e01b031960e086901b1681526001600160a01b039093166004840152602483019190915260448201523360648201526084016020604051808303816000875af1158015610924573d6000803e3d6000fd5b505050506040513d601f19601f82011682018060405250810190610948919061527a565b935050505093509350939050565b600080600080600061096786612c98565b939a9299509097509550909350915050565b6000814281101561099c5760405162461bcd60e51b81526004016105b1906150fa565b3360006109a98888613019565b90505b60006109b7826130b1565b90506109f58b826109c857886109ca565b305b60405180604001604052806109de876130d4565b8152602001876001600160a01b03168152506130f4565b9a508015610a1057309250610a0982613225565b9150610a19565b8a945050610a1f565b506109ac565b88841015610a815760405162461bcd60e51b815260206004820152602960248201527f536d6172446578526f757465723a20494e53554646494349454e545f4f555450604482015268155517d05353d5539560ba1b60648201526084016105b1565b5050509695505050505050565b60008142811015610ab15760405162461bcd60e51b81526004016105b1906150fa565b6001600160a01b037f0000000000000000000000000000000000000000000000000000000000000000168686610ae8600182615140565b818110610af757610af7615153565b9050602002016020810190610b0c9190615169565b6001600160a01b031614610b325760405162461bcd60e51b81526004016105b190615186565b610b408888888830886115e3565b915061074788856126d5565b60008085610b5a578b610b5e565b6000195b905089896000818110610b7357610b73615153565b9050602002016020810190610b889190615169565b6001600160a01b031663d505accf3330848b8a8a8a6040518863ffffffff1660e01b8152600401610bbf97969594939291906151bd565b600060405180830381600087803b158015610bd957600080fd5b505af1925050508015610bea575060015b50610bf98c8c8c8c8c8c610979565b9c9b505050505050505050505050565b60007f000000000000000000000000000000000000000000000000000000000000000081610c38828686613239565b60405163e6a4390560e01b81526001600160a01b03878116600483015286811660248301529192509083169063e6a4390590604401602060405180830381865afa158015610c8a573d6000803e3d6000fd5b505050506040513d601f19601f82011682018060405250810190610cae9190615293565b92506001600160a01b038316610d065760405162461bcd60e51b815260206004820152601b60248201527f536d6172646578526f757465723a20504149525f4d495353494e47000000000060448201526064016105b1565b6001600160a01b0380841690821603610d615760405162461bcd60e51b815260206004820181905260248201527f536d6172646578526f757465723a204e4f545f57484954454c49535441424c4560448201526064016105b1565b6000818152602081815260409182902080546001600160a01b0319166001600160a01b038781169182179092558351898316815291881692820192909252918201527ff713208a722221e3d54834b6b5cbf8f17074a0624e8148f0956eb68795cdd73c9060600160405180910390a1505092915050565b60008085610de6578a610dea565b6000195b905089896000818110610dff57610dff615153565b9050602002016020810190610e149190615169565b6001600160a01b031663d505accf3330848b8a8a8a6040518863ffffffff1660e01b8152600401610e4b97969594939291906151bd565b600060405180830381600087803b158015610e6557600080fd5b505af1925050508015610e76575060015b50610bf98c8c8c8c8c8c610a8e565b6000806000806000610e95614969565b88815260405163e6a4390560e01b81526001600160a01b03898116600483015288811660248301526000917f00000000000000000000000000000000000000000000000000000000000000009091169063e6a4390590604401602060405180830381865afa158015610f0b573d6000803e3d6000fd5b505050506040513d601f19601f82011682018060405250810190610f2f9190615293565b90506001600160a01b038116610f875760405162461bcd60e51b815260206004820152601d60248201527f536d6172446578526f757465723a20494e56414c49445f544f4b454e5300000060448201526064016105b1565b6000816001600160a01b0316630dfe16816040518163ffffffff1660e01b8152600401602060405180830381865afa158015610fc7573d6000803e3d6000fd5b505050506040513d601f19601f82011682018060405250810190610feb9190615293565b6001600160a01b03168a6001600160a01b03160361116157816001600160a01b0316630902f1ac6040518163ffffffff1660e01b81526004016040805180830381865afa158015611040573d6000803e3d6000fd5b505050506040513d601f19601f8201168201806040525081019061106491906152b0565b846020018560400182815250828152505050816001600160a01b0316639a20767b6040518163ffffffff1660e01b81526004016040805180830381865afa1580156110b3573d6000803e3d6000fd5b505050506040513d601f19601f820116820180604052508101906110d791906152b0565b60808501526060808501919091526040805163ee2046c760e01b815290516001600160a01b0385169263ee2046c792600480820193918290030181865afa158015611126573d6000803e3d6000fd5b505050506040513d601f19601f8201168201806040525081019061114a91906152d4565b60c086019190915260a085019190915290506112ba565b816001600160a01b0316630902f1ac6040518163ffffffff1660e01b81526004016040805180830381865afa15801561119e573d6000803e3d6000fd5b505050506040513d601f19601f820116820180604052508101906111c291906152b0565b60208501526040808501919091528051639a20767b60e01b815281516001600160a01b03851692639a20767b92600480820193918290030181865afa15801561120f573d6000803e3d6000fd5b505050506040513d601f19601f8201168201806040525081019061123391906152b0565b846080018560600182815250828152505050816001600160a01b031663ee2046c76040518163ffffffff1660e01b8152600401606060405180830381865afa158015611283573d6000803e3d6000fd5b505050506040513d601f19601f820116820180604052508101906112a791906152d4565b60a086019190915260c085019190915290505b6060830151608084015160a085015160c086015160405163fb753b6960e01b81526004810194909452602484019290925260448301849052606483015260848201524260a48201526001600160a01b0383169063fb753b699060c4016040805180830381865afa158015611332573d6000803e3d6000fd5b505050506040513d601f19601f8201168201806040525081019061135691906152b0565b60c085015260a084015260408051623b15fd60e01b815281516001600160a01b03851692623b15fd92600480820193918290030181865afa15801561139f573d6000803e3d6000fd5b505050506040513d601f19601f820116820180604052508101906113c39190615302565b6001600160801b039081166101008601521660e08401526113e383612c98565b939f929e50909c509a509098509650505050505050565b6114427f000000000000000000000000000000000000000000000000000000000000000061142b6020840184615169565b61143b6040850160208601615169565b6000612830565b6001600160a01b0316336001600160a01b0316146114a25760405162461bcd60e51b815260206004820152601b60248201527f536d6172446578526f757465723a20494e56414c49445f50414952000000000060448201526064016105b1565b60408101351515806114b75750606081013515155b6114d35760405162461bcd60e51b81526004016105b190615331565b6114fe6114e36020830183615169565b6114f360a0840160808501615169565b338460400135613307565b61152c6115116040830160208401615169565b61152160a0840160808501615169565b338460600135613307565b50565b600081428110156115525760405162461bcd60e51b81526004016105b1906150fa565b7f00000000000000000000000000000000000000000000000000000000000000006001600160a01b03168686600081811061158f5761158f615153565b90506020020160208101906115a49190615169565b6001600160a01b0316146115ca5760405162461bcd60e51b81526004016105b190615186565b6115d8348888888888610979565b979650505050505050565b600081428110156116065760405162461bcd60e51b81526004016105b1906150fa565b6000611612878761348d565b905061163c89866040518060400160405280858152602001336001600160a01b0316815250613526565b9250600286111561164d5760015492505b878311156116ab5760405162461bcd60e51b815260206004820152602560248201527f536d6172446578526f757465723a204558434553534956455f494e5055545f416044820152641353d5539560da1b60648201526084016105b1565b50506000196001559695505050505050565b60008413806116cc5750600083135b6116e85760405162461bcd60e51b81526004016105b190615331565b60006116f682840184615377565b9050600080611708836000015161368f565b915091506117397f000000000000000000000000000000000000000000000000000000000000000083836000612830565b6001600160a01b0316336001600160a01b0316146117995760405162461bcd60e51b815260206004820152601b60248201527f536d6172446578526f757465723a20494e56414c49445f50414952000000000060448201526064016105b1565b600080600089136117bf57836001600160a01b0316836001600160a01b031610886117d6565b826001600160a01b0316846001600160a01b031610895b9150915081156117f5576117f08486602001513384613307565b61183d565b8451611800906130b1565b1561182357845161181090613225565b855261181d813387613526565b5061183d565b8060018190555082935061183d8486602001513384613307565b505050505050505050565b60006118558484846136b0565b949350505050565b60008082428110156118815760405162461bcd60e51b81526004016105b1906150fa565b60006118b07f00000000000000000000000000000000000000000000000000000000000000008c8c6000612830565b6040516323b872dd60e01b81523360048201526001600160a01b03821660248201819052604482018c90529192506323b872dd906064016020604051808303816000875af1158015611906573d6000803e3d6000fd5b505050506040513d601f19601f8201168201806040525081019061192a9190615448565b5060405163226bf2d160e21b81526001600160a01b03878116600483015260009182918416906389afcb449060240160408051808303816000875af1158015611977573d6000803e3d6000fd5b505050506040513d601f19601f8201168201806040525081019061199b91906152b0565b9150915060006119ab8e8e61378a565b509050806001600160a01b03168e6001600160a01b0316146119ce5781836119d1565b82825b90975095508a8710156119f65760405162461bcd60e51b81526004016105b190615465565b89861015611a165760405162461bcd60e51b81526004016105b1906154a9565b505050505097509795505050505050565b60008060008060006109678661387e565b60008085611a46578a611a4a565b6000195b905089896000818110611a5f57611a5f615153565b9050602002016020810190611a749190615169565b6001600160a01b031663d505accf3330848b8a8a8a6040518863ffffffff1660e01b8152600401611aab97969594939291906151bd565b600060405180830381600087803b158015611ac557600080fd5b505af1925050508015611ad6575060015b50610bf98c8c8c8c8c8c6115e3565b6000806000611b377f00000000000000000000000000000000000000000000000000000000000000008e7f00000000000000000000000000000000000000000000000000000000000000006000612830565b9050600087611b46578c611b4a565b6000195b60405163d505accf60e01b81529091506001600160a01b0383169063d505accf90611b85903390309086908f908e908e908e906004016151bd565b600060405180830381600087803b158015611b9f57600080fd5b505af1925050508015611bb0575060015b50611bbf8e8e8e8e8e8e61058d565b909f909e509c50505050505050505050505050565b6000806000806000611be4614969565b88815260405163e6a4390560e01b81526001600160a01b03898116600483015288811660248301526000917f00000000000000000000000000000000000000000000000000000000000000009091169063e6a4390590604401602060405180830381865afa158015611c5a573d6000803e3d6000fd5b505050506040513d601f19601f82011682018060405250810190611c7e9190615293565b90506001600160a01b038116611cd65760405162461bcd60e51b815260206004820152601d60248201527f536d6172446578526f757465723a20494e56414c49445f544f4b454e5300000060448201526064016105b1565b6000816001600160a01b0316630dfe16816040518163ffffffff1660e01b8152600401602060405180830381865afa158015611d16573d6000803e3d6000fd5b505050506040513d601f19601f82011682018060405250810190611d3a9190615293565b6001600160a01b03168a6001600160a01b031603611eb057816001600160a01b0316630902f1ac6040518163ffffffff1660e01b81526004016040805180830381865afa158015611d8f573d6000803e3d6000fd5b505050506040513d601f19601f82011682018060405250810190611db391906152b0565b846020018560400182815250828152505050816001600160a01b0316639a20767b6040518163ffffffff1660e01b81526004016040805180830381865afa158015611e02573d6000803e3d6000fd5b505050506040513d601f19601f82011682018060405250810190611e2691906152b0565b60808501526060808501919091526040805163ee2046c760e01b815290516001600160a01b0385169263ee2046c792600480820193918290030181865afa158015611e75573d6000803e3d6000fd5b505050506040513d601f19601f82011682018060405250810190611e9991906152d4565b60c086019190915260a08501919091529050612009565b816001600160a01b0316630902f1ac6040518163ffffffff1660e01b81526004016040805180830381865afa158015611eed573d6000803e3d6000fd5b505050506040513d601f19601f82011682018060405250810190611f1191906152b0565b60208501526040808501919091528051639a20767b60e01b815281516001600160a01b03851692639a20767b92600480820193918290030181865afa158015611f5e573d6000803e3d6000fd5b505050506040513d601f19601f82011682018060405250810190611f8291906152b0565b846080018560600182815250828152505050816001600160a01b031663ee2046c76040518163ffffffff1660e01b8152600401606060405180830381865afa158015611fd2573d6000803e3d6000fd5b505050506040513d601f19601f82011682018060405250810190611ff691906152d4565b60a086019190915260c085019190915290505b6060830151608084015160a085015160c086015160405163fb753b6960e01b81526004810194909452602484019290925260448301849052606483015260848201524260a48201526001600160a01b0383169063fb753b699060c4016040805180830381865afa158015612081573d6000803e3d6000fd5b505050506040513d601f19601f820116820180604052508101906120a591906152b0565b60c085015260a084015260408051623b15fd60e01b815281516001600160a01b03851692623b15fd92600480820193918290030181865afa1580156120ee573d6000803e3d6000fd5b505050506040513d601f19601f820116820180604052508101906121129190615302565b6001600160801b039081166101008601521660e08401526113e38361387e565b60008085612140578b612144565b6000195b90508989600081811061215957612159615153565b905060200201602081019061216e9190615169565b6001600160a01b031663d505accf3330848b8a8a8a6040518863ffffffff1660e01b81526004016121a597969594939291906151bd565b600060405180830381600087803b1580156121bf57600080fd5b505af19250505080156121d0575060015b50610bf98c8c8c8c8c8c610689565b600080600083428110156122055760405162461bcd60e51b81526004016105b1906150fa565b6040805161012081019091526000908061222260208b018b615169565b6001600160a01b031681526020017f00000000000000000000000000000000000000000000000000000000000000006001600160a01b0316815260200189602001358152602001348152602001896040013581526020018960600135815260200189608001602081019061229691906154ed565b6001600160801b031681526020016122b460c08b0160a08c016154ed565b6001600160801b031681526020016122d260e08b0160c08c016154ed565b6001600160801b03169052905060006122ea8261286c565b9197509550905060006001600160a01b037f00000000000000000000000000000000000000000000000000000000000000001661232a60208c018c615169565b6001600160a01b0316109050816001600160a01b031663f74bfe8e8a836123515788612353565b895b8461235e578a612360565b895b6040516001600160e01b031960e086901b1681526001600160a01b039093166004840152602483019190915260448201523360648201526084016020604051808303816000875af11580156123b9573d6000803e3d6000fd5b505050506040513d601f19601f820116820180604052508101906123dd919061527a565b9450853411156123fa576123fa336123f58834615140565b6125f6565b5050505093509350939050565b6000814281101561242a5760405162461bcd60e51b81526004016105b1906150fa565b7f00000000000000000000000000000000000000000000000000000000000000006001600160a01b03168686600081811061246757612467615153565b905060200201602081019061247c9190615169565b6001600160a01b0316146124a25760405162461bcd60e51b81526004016105b190615186565b6124b08734888888886115e3565b91506124bb33613af3565b5095945050505050565b604080516001600160a01b038481166024830152604480830185905283518084039091018152606490920183526020820180516001600160e01b031663a9059cbb60e01b1790529151600092839290871691612521919061552e565b6000604051808303816000865af19150503d806000811461255e576040519150601f19603f3d011682016040523d82523d6000602084013e612563565b606091505b509150915081801561258d57508051158061258d57508080602001905181019061258d9190615448565b6125ef5760405162461bcd60e51b815260206004820152602d60248201527f5472616e7366657248656c7065723a3a736166655472616e736665723a20747260448201526c185b9cd9995c8819985a5b1959609a1b60648201526084016105b1565b5050505050565b604080516000808252602082019092526001600160a01b038416908390604051612620919061552e565b60006040518083038185875af1925050503d806000811461265d576040519150601f19603f3d011682016040523d82523d6000602084013e612662565b606091505b50509050806126d05760405162461bcd60e51b815260206004820152603460248201527f5472616e7366657248656c7065723a3a736166655472616e736665724554483a60448201527308115512081d1c985b9cd9995c8819985a5b195960621b60648201526084016105b1565b505050565b6040516370a0823160e01b81523060048201526000907f00000000000000000000000000000000000000000000000000000000000000006001600160a01b0316906370a0823190602401602060405180830381865afa15801561273c573d6000803e3d6000fd5b505050506040513d601f19601f82011682018060405250810190612760919061527a565b9050828110156127a65760405162461bcd60e51b8152602060048201526011602482015270092dce6eaccccd2c6d2cadce840ae8aa89607b1b60448201526064016105b1565b80156126d057604051632e1a7d4d60e01b8152600481018290527f00000000000000000000000000000000000000000000000000000000000000006001600160a01b031690632e1a7d4d90602401600060405180830381600087803b15801561280e57600080fd5b505af1158015612822573d6000803e3d6000fd5b505050506126d082826125f6565b60008061283e868686613239565b6000818152602085905260409020546001600160a01b03169250905081612863579050805b50949350505050565b8051602082015160405163e6a4390560e01b81526001600160a01b0392831660048201529082166024820152600091829182917f0000000000000000000000000000000000000000000000000000000000000000169063e6a4390590604401602060405180830381865afa1580156128e8573d6000803e3d6000fd5b505050506040513d601f19601f8201168201806040525081019061290c9190615293565b90506001600160a01b0381166129c857835160208501516040516364e329cb60e11b81526001600160a01b037f0000000000000000000000000000000000000000000000000000000000000000169263c9c6539692612982926004016001600160a01b0392831681529116602082015260400190565b6020604051808303816000875af11580156129a1573d6000803e3d6000fd5b505050506040513d601f19601f820116820180604052508101906129c59190615293565b90505b806001600160a01b03166318160ddd6040518163ffffffff1660e01b8152600401602060405180830381865afa158015612a06573d6000803e3d6000fd5b505050506040513d601f19601f82011682018060405250810190612a2a919061527a565b600003612a8b5760405163bc25cf7760e01b81523360048201526001600160a01b0382169063bc25cf7790602401600060405180830381600087803b158015612a7257600080fd5b505af1158015612a86573d6000803e3d6000fd5b505050505b600080600080612ac67f000000000000000000000000000000000000000000000000000000000000000089600001518a602001516000613b03565b9350935093509350836000148015612adc575082155b15612af557604088015160608901519097509550612c8d565b60008860c001516001600160801b031683612b10919061554a565b9050818961010001516001600160801b0316612b2c919061554a565b811115612b7b5760405162461bcd60e51b815260206004820152601d60248201527f536d6172446578526f757465723a2050524943455f544f4f5f4849474800000060448201526064016105b1565b818960e001516001600160801b0316612b94919061554a565b811015612be35760405162461bcd60e51b815260206004820152601c60248201527f536d6172446578526f757465723a2050524943455f544f4f5f4c4f570000000060448201526064016105b1565b6000612bf48a6040015187876136b0565b905089606001518111612c34578960a00151811015612c255760405162461bcd60e51b81526004016105b1906154a9565b60408a01519850965086612c8a565b6000612c458b6060015187896136b0565b90508a60400151811115612c5b57612c5b6149c7565b8a60800151811015612c7f5760405162461bcd60e51b81526004016105b190615465565b60608b015190995097505b50505b505050509193909250565b60008060008060008560000151600003612d065760405162461bcd60e51b815260206004820152602960248201527f536d61724465784c6962726172793a20494e53554646494349454e545f494e50604482015268155517d05353d5539560ba1b60648201526084016105b1565b602086015115801590612d1c5750604086015115155b8015612d2b5750606086015115155b8015612d3a5750608086015115155b612d565760405162461bcd60e51b81526004016105b190615561565b6000620f42408760e001516001600160801b03168861010001516001600160801b0316620f4240612d879190615140565b612d919190615140565b8851612d9d919061554a565b612da791906155bd565b90506000612e266040518061012001604052808481526020018a6020015181526020018a6040015181526020018a6060015181526020018a6080015181526020018a60a0015181526020018a60c0015181526020018a60e001516001600160801b031681526020018a61010001516001600160801b0316815250613c40565b90508181148015612e4e5750612e4e886060015189608001518a60a001518b60c00151613e3d565b15612e7a57612e6f886020015189604001518a606001518b60800151613e64565b60808a015260608901525b60008860e001516001600160801b03168961010001516001600160801b0316620f4240612ea79190615140565b612eb19190615140565b612ebe620f42408461554a565b612ec891906155bd565b9050612f456040518061012001604052808381526020018b6020015181526020018b6040015181526020018b6060015181526020018b6080015181526020018b60a0015181526020018b60c0015181526020018b60e001516001600160801b031681526020018b61010001516001600160801b0316815250613f60565b8d51949c50929a509098509650945081908a90612f63908390615140565b905250508181101561300e57612f7b86868686613e64565b80945081955050506000612ff46040518061012001604052808b6000015181526020018981526020018881526020018781526020018681526020018b60a0015181526020018b60c0015181526020018b60e001516001600160801b031681526020018b61010001516001600160801b0316815250613f60565b929a5090985096509450905061300a81896155df565b9750505b505091939590929450565b60608160005b8181146130a9578285858381811061303957613039615153565b905060200201602081019061304e9190615169565b604051602001613071919060609190911b6001600160601b031916815260140190565b60408051601f198184030181529082905261308f92916020016155f2565b60408051601f19818403018152919052925060010161301f565b505092915050565b600060146130bf81806155df565b6130c991906155df565b825110159050919050565b60606130ee60006130e66014806155df565b84919061407c565b92915050565b60006001600160a01b038316613108573092505b600080613118846000015161368f565b90925090506001600160a01b038082169083161060008061315b7f0000000000000000000000000000000000000000000000000000000000000000868684612830565b6001600160a01b0316631f18b37189856131748d6141d2565b8b604051602001613185919061564d565b6040516020818303038152906040526040518563ffffffff1660e01b81526004016131b3949392919061568a565b60408051808303816000875af11580156131d1573d6000803e3d6000fd5b505050506040513d601f19601f820116820180604052508101906131f591906152b0565b915091506132188361320f5761320a836156c3565b614240565b61320a826156c3565b9998505050505050505050565b60606130ee60148084516130e69190615140565b6000806000613248858561378a565b6040516001600160601b0319606084811b8216602084015283901b16603482015291935091508690604801604051602081830303815290604052805190602001206040516020016132e69291906001600160f81b0319815260609290921b6001600160601b031916600183015260158201527fc762a0f9885cc92b9fd8eef224b75997682b634460611bc0f2138986e20b653f603582015260550190565b60405160208183030381529060405280519060200120925050509392505050565b7f00000000000000000000000000000000000000000000000000000000000000006001600160a01b0316846001600160a01b03161480156133485750804710155b1561345b577f00000000000000000000000000000000000000000000000000000000000000006001600160a01b031663d0e30db0826040518263ffffffff1660e01b81526004016000604051808303818588803b1580156133a857600080fd5b505af11580156133bc573d6000803e3d6000fd5b505060405163a9059cbb60e01b81526001600160a01b038681166004830152602482018690527f000000000000000000000000000000000000000000000000000000000000000016935063a9059cbb925060440190506020604051808303816000875af1158015613431573d6000803e3d6000fd5b505050506040513d601f19601f820116820180604052508101906134559190615448565b50613487565b306001600160a01b0384160361347b576134768483836124c5565b613487565b61348784848484614292565b50505050565b606081805b80156130a9578285856134a6600185615140565b8181106134b5576134b5615153565b90506020020160208101906134ca9190615169565b6040516020016134ed919060609190911b6001600160601b031916815260140190565b60408051601f198184030181529082905261350b92916020016155f2565b60408051601f19818403018152919052925060001901613492565b60006001600160a01b03831661357e5760405162461bcd60e51b815260206004820181905260248201527f536d6172446578526f757465723a20494e56414c49445f524543495049454e5460448201526064016105b1565b60008061358e846000015161368f565b90925090506001600160a01b03808316908216106000806135d17f0000000000000000000000000000000000000000000000000000000000000000868684612830565b6001600160a01b0316631f18b37189856135ea8d6141d2565b6135f3906156c3565b8b604051602001613604919061564d565b6040516020818303038152906040526040518563ffffffff1660e01b8152600401613632949392919061568a565b60408051808303816000875af1158015613650573d6000803e3d6000fd5b505050506040513d601f19601f8201168201806040525081019061367491906152b0565b91509150826136835780613218565b50979650505050505050565b60008061369c83826143d0565b91506136a98360146143d0565b9050915091565b60008360000361370d5760405162461bcd60e51b815260206004820152602260248201527f536d617264657848656c7065723a20494e53554646494349454e545f414d4f55604482015261139560f21b60648201526084016105b1565b821580159061371b57508115155b6137755760405162461bcd60e51b815260206004820152602560248201527f536d617264657848656c7065723a20494e53554646494349454e545f4c495155604482015264494449545960d81b60648201526084016105b1565b82613780838661554a565b61185591906155bd565b600080826001600160a01b0316846001600160a01b0316036137f95760405162461bcd60e51b815260206004820152602260248201527f536d617264657848656c7065723a204944454e544943414c5f41444452455353604482015261455360f01b60648201526084016105b1565b826001600160a01b0316846001600160a01b03161061381957828461381c565b83835b90925090506001600160a01b0382166138775760405162461bcd60e51b815260206004820152601b60248201527f536d617264657848656c7065723a205a45524f5f41444452455353000000000060448201526064016105b1565b9250929050565b600080600080600085600001516000036138ed5760405162461bcd60e51b815260206004820152602a60248201527f536d61724465784c6962726172793a20494e53554646494349454e545f4f555460448201526914155517d05353d5539560b21b60648201526084016105b1565b608086015186511080156139045750602086015115155b80156139135750604086015115155b80156139225750606086015115155b80156139315750608086015115155b61394d5760405162461bcd60e51b81526004016105b190615561565b600061395887614484565b8751909150811480156139825750613982876060015188608001518960a001518a60c00151613e3d565b156139ae576139a38760200151886040015189606001518a60800151613e64565b608089015260608801525b613a29604051806101200160405280838152602001896020015181526020018960400151815260200189606001518152602001896080015181526020018960a0015181526020018960c0015181526020018960e001516001600160801b031681526020018961010001516001600160801b0316815250614638565b8b51949a5092985090965094509250811015613ae957613a4b85858585613e64565b80935081945050506000613acf604051806101200160405280848b60000151613a749190615140565b81526020018881526020018781526020018681526020018581526020018a60a0015181526020018a60c0015181526020018a60e001516001600160801b031681526020018a61010001516001600160801b0316815250614638565b929950909750955093509050613ae581886155df565b9650505b5091939590929450565b471561152c5761152c81476125f6565b6000806000806000613b15888861378a565b5090506000613b268a8a8a8a612830565b9050600080826001600160a01b0316630902f1ac6040518163ffffffff1660e01b81526004016040805180830381865afa158015613b68573d6000803e3d6000fd5b505050506040513d601f19601f82011682018060405250810190613b8c91906152b0565b91509150600080846001600160a01b0316639a20767b6040518163ffffffff1660e01b81526004016040805180830381865afa158015613bd0573d6000803e3d6000fd5b505050506040513d601f19601f82011682018060405250810190613bf491906152b0565b91509150856001600160a01b03168d6001600160a01b031614613c1a5782848284613c1f565b838383835b809a50819b50829c50839d5050505050505050505050945094509450949050565b805160c08201516060830151613c56919061554a565b8260a001518360800151613c6a919061554a565b1115613e385760008260e001516001600160801b03168361010001516002613c9291906156df565b6001600160801b0316613ca9620f4240600261554a565b613cb39190615140565b613cbd9190615140565b8360600151613ccc919061554a565b905060008361010001516001600160801b0316620f4240613ced9190615140565b613cf890600261554a565b60e0850151909150600090613d0d90806156df565b6001600160801b031685606001518660600151613d2a919061554a565b613d34919061554a565b610100860151613d50906001600160801b0316620f4240615140565b8660e001516001600160801b03168761010001516001600160801b0316620f4240613d7b9190615140565b613d859190615140565b613d8f919061554a565b8660a001518760c0015188608001518960600151613dad919061554a565b613db890600461554a565b613dc291906155bd565b613dcc919061554a565b613dd6919061554a565b613de091906155df565b90506000828660000151613df4919061554a565b613dfe90856155df565b9050613e0a818061554a565b821015613e33578284613e1c8461475f565b613e269190615140565b613e3091906155bd565b94505b505050505b919050565b6000613e5b613e4c838761554a565b613e56858761554a565b61484e565b95945050505050565b600080613e71838761554a565b613e7b858761554a565b1015613ef8576000868585613e90898061554a565b613e9a91906155bd565b613ea4919061554a565b613eae91906155bd565b905083613ebb868861554a565b613ec591906155bd565b84613ed0878461554a565b613eda91906155bd565b613ee491906155df565b9250613ef081876155df565b915050613f3d565b8583613f04878761554a565b613f0e91906155bd565b613f1891906155df565b91508484613f26858961554a565b613f3091906155bd565b613f3a91906155df565b90505b613f486004836155bd565b9150613f556004826155bd565b905094509492505050565b6000806000806000808661010001516001600160801b03168760e001516001600160801b0316620f4240613f949190615140565b613f9e9190615140565b8751613faa919061554a565b90506000876080015182613fbe919061554a565b9050600082620f42408a60600151613fd6919061554a565b613fe091906155df565b9050613fec81836155bd565b97506000620f42408a60e001516001600160801b03168b60000151614011919061554a565b61401b90866155df565b61402591906155bd565b9050808a6020015161403791906155df565b9750808a6060015161404991906155df565b9550888a6040015161405b9190615140565b9650888a6080015161406d9190615140565b94505050505091939590929450565b60608161408a81601f6155df565b10156140c95760405162461bcd60e51b815260206004820152600e60248201526d736c6963655f6f766572666c6f7760901b60448201526064016105b1565b826140d483826155df565b10156141135760405162461bcd60e51b815260206004820152600e60248201526d736c6963655f6f766572666c6f7760901b60448201526064016105b1565b61411d82846155df565b845110156141615760405162461bcd60e51b8152602060048201526011602482015270736c6963655f6f75744f66426f756e647360781b60448201526064016105b1565b6060821580156141805760405191506000825260208201604052612863565b6040519150601f8416801560200281840101858101878315602002848b0101015b818310156141b95780518352602092830192016141a1565b5050858452601f01601f19166040525050949350505050565b60006001600160ff1b0382111561423c5760405162461bcd60e51b815260206004820152602860248201527f53616665436173743a2076616c756520646f65736e27742066697420696e2061604482015267371034b73a191a9b60c11b60648201526084016105b1565b5090565b60008082121561423c5760405162461bcd60e51b815260206004820181905260248201527f53616665436173743a2076616c7565206d75737420626520706f73697469766560448201526064016105b1565b604080516001600160a01b0385811660248301528481166044830152606480830185905283518084039091018152608490920183526020820180516001600160e01b03166323b872dd60e01b17905291516000928392908816916142f6919061552e565b6000604051808303816000865af19150503d8060008114614333576040519150601f19603f3d011682016040523d82523d6000602084013e614338565b606091505b50915091508180156143625750805115806143625750808060200190518101906143629190615448565b6143c85760405162461bcd60e51b815260206004820152603160248201527f5472616e7366657248656c7065723a3a7472616e7366657246726f6d3a207472604482015270185b9cd9995c919c9bdb4819985a5b1959607a1b60648201526084016105b1565b505050505050565b6000816143de8160146155df565b10156144215760405162461bcd60e51b8152602060048201526012602482015271746f416464726573735f6f766572666c6f7760701b60448201526064016105b1565b61442c8260146155df565b835110156144745760405162461bcd60e51b8152602060048201526015602482015274746f416464726573735f6f75744f66426f756e647360581b60448201526064016105b1565b500160200151600160601b900490565b805160e08201516101008301516000916001600160801b03908116916144ae9116620f4240615140565b6144b89190615140565b90508260c0015183606001516144ce919061554a565b8360a0015184608001516144e2919061554a565b11156146325760008360a001518460c001518560e001516001600160801b03168660600151614511919061554a565b61451b919061554a565b61452591906155bd565b905060008183866080015161453a919061554a565b61454590600261554a565b61454f91906155df565b9050600061455e84600261554a565b9050600061456c848061554a565b8760e001516001600160801b03168861010001516001600160801b0316620f42406145979190615140565b6145a1908861554a565b868a608001516145b1919061554a565b6145bc90600461554a565b6145c6919061554a565b6145d091906155bd565b6145da91906155df565b905060008288600001516145ee919061554a565b6145f89085615140565b9050614604818061554a565b82111561462c57826146158361475f565b61461f9086615140565b61462991906155bd565b96505b50505050505b50919050565b600080600080600080620f424087600001518860600151614659919061554a565b614663919061554a565b905060008760e001516001600160801b03168861010001516001600160801b0316620f42406146929190615140565b61469c9190615140565b885160808a01516146ad9190615140565b6146b7919061554a565b90506146c381836155bd565b6146ce9060016155df565b96506000620f42408961010001516001600160801b0316620f42406146f39190615140565b6146fd908a61554a565b61470791906155bd565b905080896020015161471991906155df565b965080896060015161472b91906155df565b895160408b015191965061473e91615140565b895160808b015191975061475191615140565b935050505091939590929450565b60008160000361477157506000919050565b6000600161477e846148bf565b901c6001901b90506001818481614797576147976155a7565b048201901c905060018184816147af576147af6155a7565b048201901c905060018184816147c7576147c76155a7565b048201901c905060018184816147df576147df6155a7565b048201901c905060018184816147f7576147f76155a7565b048201901c9050600181848161480f5761480f6155a7565b048201901c90506001818481614827576148276155a7565b048201901c905061484781828581614841576148416155a7565b04614953565b9392505050565b600081830361485f575060016130ee565b8183111561489357620f424061487660018461554a565b61488091906155bd565b61488a90836155df565b831090506130ee565b620f42406148a260018561554a565b6148ac91906155bd565b6148b690846155df565b821090506130ee565b600080608083901c156148d457608092831c92015b604083901c156148e657604092831c92015b602083901c156148f857602092831c92015b601083901c1561490a57601092831c92015b600883901c1561491c57600892831c92015b600483901c1561492e57600492831c92015b600283901c1561494057600292831c92015b600183901c156130ee5760010192915050565b60008183106149625781614847565b5090919050565b6040518061012001604052806000815260200160008152602001600081526020016000815260200160008152602001600081526020016000815260200160006001600160801b0316815260200160006001600160801b031681525090565b634e487b7160e01b600052600160045260246000fd5b6001600160a01b038116811461152c57600080fd5b8035613e38816149dd565b60008060008060008060c08789031215614a1657600080fd5b8635614a21816149dd565b95506020870135945060408701359350606087013592506080870135614a46816149dd565b8092505060a087013590509295509295509295565b60008083601f840112614a6d57600080fd5b50813567ffffffffffffffff811115614a8557600080fd5b6020830191508360208260051b850101111561387757600080fd5b60008060008060008060a08789031215614ab957600080fd5b8635955060208701359450604087013567ffffffffffffffff811115614ade57600080fd5b614aea89828a01614a5b565b9095509350506060870135614afe816149dd565b80925050608087013590509295509295509295565b801515811461152c57600080fd5b803560ff81168114613e3857600080fd5b60008060008060008060008060008060006101608c8e031215614b5457600080fd5b8b35614b5f816149dd565b9a5060208c0135614b6f816149dd565b995060408c0135985060608c0135975060808c0135965060a08c0135614b94816149dd565b955060c08c0135945060e08c0135614bab81614b13565b9350614bba6101008d01614b21565b92506101208c013591506101408c013590509295989b509295989b9093969950565b6000806000838503610160811215614bf357600080fd5b61012080821215614c0357600080fd5b8594508401359050614c14816149dd565b92959294505050610140919091013590565b634e487b7160e01b600052604160045260246000fd5b604051610120810167ffffffffffffffff81118282101715614c6057614c60614c26565b60405290565b6040805190810167ffffffffffffffff81118282101715614c6057614c60614c26565b604051601f8201601f1916810167ffffffffffffffff81118282101715614cb257614cb2614c26565b604052919050565b6001600160801b038116811461152c57600080fd5b8035613e3881614cba565b60006101208284031215614ced57600080fd5b614cf5614c3c565b823581526020830135602082015260408301356040820152606083013560608201526080830135608082015260a083013560a082015260c083013560c0820152614d4160e08401614ccf565b60e0820152610100614d54818501614ccf565b908201529392505050565b6000806000806000806000806000806101208b8d031215614d7f57600080fd5b8a35995060208b0135985060408b013567ffffffffffffffff811115614da457600080fd5b614db08d828e01614a5b565b90995097505060608b0135614dc4816149dd565b955060808b0135945060a08b0135614ddb81614b13565b9350614de960c08c01614b21565b925060e08b013591506101008b013590509295989b9194979a5092959850565b60008060408385031215614e1c57600080fd5b8235614e27816149dd565b91506020830135614e37816149dd565b809150509250929050565b600080600060608486031215614e5757600080fd5b833592506020840135614e69816149dd565b91506040840135614e79816149dd565b809150509250925092565b600060a0828403121561463257600080fd5b600080600080600060808688031215614eae57600080fd5b85359450602086013567ffffffffffffffff811115614ecc57600080fd5b614ed888828901614a5b565b9095509350506040860135614eec816149dd565b949793965091946060013592915050565b60008060008060608587031215614f1357600080fd5b8435935060208501359250604085013567ffffffffffffffff80821115614f3957600080fd5b818701915087601f830112614f4d57600080fd5b813581811115614f5c57600080fd5b886020828501011115614f6e57600080fd5b95989497505060200194505050565b600080600060608486031215614f9257600080fd5b505081359360208301359350604090920135919050565b600080600080600080600060e0888a031215614fc457600080fd5b8735614fcf816149dd565b96506020880135614fdf816149dd565b955060408801359450606088013593506080880135925060a0880135615004816149dd565b8092505060c0880135905092959891949750929550565b6000806000806000806000806000806101408b8d03121561503b57600080fd5b8a35615046816149dd565b995060208b0135985060408b0135975060608b0135965060808b013561506b816149dd565b955060a08b0135945060c08b013561508281614b13565b935061509060e08c01614b21565b92506101008b013591506101208b013590509295989b9194979a5092959850565b60008060008385036101208112156150c857600080fd5b60e08112156150d657600080fd5b5083925060e08401356150e8816149dd565b92959294505050610100919091013590565b60208082526016908201527514db585c91195e149bdd5d195c8e881156141254915160521b604082015260600190565b634e487b7160e01b600052601160045260246000fd5b818103818111156130ee576130ee61512a565b634e487b7160e01b600052603260045260246000fd5b60006020828403121561517b57600080fd5b8135614847816149dd565b6020808252601b908201527f536d6172446578526f757465723a20494e56414c49445f504154480000000000604082015260600190565b6001600160a01b0397881681529590961660208601526040850193909352606084019190915260ff16608083015260a082015260c081019190915260e00190565b6000610120828403121561521157600080fd5b615219614c3c565b615222836149f2565b8152615230602084016149f2565b602082015260408301356040820152606083013560608201526080830135608082015260a083013560a082015261526960c08401614ccf565b60c0820152614d4160e08401614ccf565b60006020828403121561528c57600080fd5b5051919050565b6000602082840312156152a557600080fd5b8151614847816149dd565b600080604083850312156152c357600080fd5b505080516020909101519092909150565b6000806000606084860312156152e957600080fd5b8351925060208401519150604084015190509250925092565b6000806040838503121561531557600080fd5b825161532081614cba565b6020840151909250614e3781614cba565b60208082526026908201527f536d6172646578526f757465723a2043616c6c6261636b20496e76616c696420604082015265185b5bdd5b9d60d21b606082015260800190565b6000602080838503121561538a57600080fd5b823567ffffffffffffffff808211156153a257600080fd5b90840190604082870312156153b657600080fd5b6153be614c66565b8235828111156153cd57600080fd5b8301601f810188136153de57600080fd5b8035838111156153f0576153f0614c26565b615402601f8201601f19168701614c89565b9350808452888682840101111561541857600080fd5b80868301878601376000908401860152508181526154378385016149f2565b848201528094505050505092915050565b60006020828403121561545a57600080fd5b815161484781614b13565b60208082526024908201527f536d6172446578526f757465723a20494e53554646494349454e545f415f414d60408201526313d5539560e21b606082015260800190565b60208082526024908201527f536d6172446578526f757465723a20494e53554646494349454e545f425f414d60408201526313d5539560e21b606082015260800190565b6000602082840312156154ff57600080fd5b813561484781614cba565b60005b8381101561552557818101518382015260200161550d565b50506000910152565b6000825161554081846020870161550a565b9190910192915050565b80820281158282048414176130ee576130ee61512a565b60208082526026908201527f536d61724465784c6962726172793a20494e53554646494349454e545f4c495160408201526555494449545960d01b606082015260800190565b634e487b7160e01b600052601260045260246000fd5b6000826155da57634e487b7160e01b600052601260045260246000fd5b500490565b808201808211156130ee576130ee61512a565b6000835161560481846020880161550a565b83519083019061561881836020880161550a565b01949350505050565b6000815180845261563981602086016020860161550a565b601f01601f19169290920160200192915050565b6020815260008251604060208401526156696060840182615621565b602094909401516001600160a01b0316604093909301929092525090919050565b60018060a01b038516815283151560208201528260408201526080606082015260006156b96080830184615621565b9695505050505050565b6000600160ff1b82016156d8576156d861512a565b5060000390565b6001600160801b038181168382160280821691908281146130a9576130a961512a56fea164736f6c6343000811000a",
  "devdoc": {
    "kind": "dev",
    "methods": {
      "addLiquidity((address,address,uint256,uint256,uint256,uint256,uint128,uint128,uint128),address,uint256)": {
        "params": {
          "_deadline": "Unix timestamp after which the transaction will revert.",
          "_params": "all the parameters required to add liquidity from struct AddLiquidityParams",
          "_to": "Recipient of the liquidity tokens."
        },
        "returns": {
          "amountA_": "The amount of tokenA sent to the pool.",
          "amountB_": "The amount of tokenB sent to the pool.",
          "liquidity_": "The amount of liquidity tokens minted."
        }
      },
      "addLiquidityETH((address,uint256,uint256,uint256,uint128,uint128,uint128),address,uint256)": {
        "params": {
          "_deadline": "Unix timestamp after which the transaction will revert.",
          "_params": "all the parameters required to add liquidity from struct AddLiquidityETHParams",
          "_to": "Recipient of the liquidity tokens."
        },
        "returns": {
          "amountETH_": "The amount of ETH converted to WETH and sent to the pool.",
          "amountToken_": "The amount of token sent to the pool.",
          "liquidity_": "The amount of liquidity tokens minted."
        }
      },
      "addPairToWhitelist(address,address)": {
        "details": "this function is callable by anyone, only the pairs also whitelisted by the factory will be accepted.",
        "params": {
          "_tokenA": "address of the first token in the pair",
          "_tokenB": "address of the second token in the pair"
        },
        "returns": {
          "pair_": "address of the created pair"
        }
      },
      "constructor": {
        "params": {
          "_WETH": "address of the WETH token",
          "_factory": "address of the factory used to get pair address"
        }
      },
      "getAmountIn((uint256,uint256,uint256,uint256,uint256,uint256,uint256,uint128,uint128))": {
        "params": {
          "_param": "all the parameters required to get amount from struct GetAmountParameters"
        },
        "returns": {
          "amountIn_": "The amount of token the user would spend to receive _amountOut",
          "newFictiveReserveIn_": "fictive reserve of the selling token after the swap",
          "newFictiveReserveOut_": "fictive reserve of the buying token after the swap",
          "newReserveIn_": "reserves of the selling token after the swap",
          "newReserveOut_": "reserves of the buying token after the swap"
        }
      },
      "getAmountInFromPair(uint256,address,address)": {
        "params": {
          "_amountOut": "quantity of token the user want to swap (to sell)",
          "_tokenIn": "address of the token the user want to sell",
          "_tokenOut": "address of the token the user want to buy"
        },
        "returns": {
          "amountIn_": "The amount of token the user would spend to receive _amountOut",
          "newFictiveReserveIn_": "fictive reserve of the selling token after the swap",
          "newFictiveReserveOut_": "fictive reserve of the buying token after the swap",
          "newReserveIn_": "reserves of the selling token after the swap",
          "newReserveOut_": "reserves of the buying token after the swap"
        }
      },
      "getAmountOut((uint256,uint256,uint256,uint256,uint256,uint256,uint256,uint128,uint128))": {
        "params": {
          "_param": "all the parameters required to get amount from struct GetAmountParameters"
        },
        "returns": {
          "amountOut_": "The amount of token the user would receive",
          "newFictiveReserveIn_": "fictive reserve of the selling token after the swap",
          "newFictiveReserveOut_": "fictive reserve of the buying token after the swap",
          "newReserveIn_": "reserves of the selling token after the swap",
          "newReserveOut_": "reserves of the buying token after the swap"
        }
      },
      "getAmountOutFromPair(uint256,address,address)": {
        "params": {
          "_amountIn": "quantity of token the user want to swap (to buy)",
          "_tokenIn": "address of the token the user want to sell",
          "_tokenOut": "address of the token the user want to buy"
        },
        "returns": {
          "amountOut_": "The amount of token the user would receive",
          "newFictiveReserveIn_": "fictive reserve of the selling token after the swap",
          "newFictiveReserveOut_": "fictive reserve of the buying token after the swap",
          "newReserveIn_": "reserves of the selling token after the swap",
          "newReserveOut_": "reserves of the buying token after the swap"
        }
      },
      "removeLiquidity(address,address,uint256,uint256,uint256,address,uint256)": {
        "params": {
          "_amountAMin": "The minimum amount of tokenA that must be received for the transaction not to revert.",
          "_amountBMin": "The minimum amount of tokenB that must be received for the transaction not to revert.",
          "_deadline": "Unix timestamp after which the transaction will revert.",
          "_liquidity": "The amount of liquidity tokens to remove.",
          "_to": "Recipient of the liquidity tokens.",
          "_tokenA": "A pool token.",
          "_tokenB": "A pool token."
        },
        "returns": {
          "amountA_": "The amount of tokenA received.",
          "amountB_": "The amount of tokenB received."
        }
      },
      "removeLiquidityETH(address,uint256,uint256,uint256,address,uint256)": {
        "params": {
          "_amountETHMin": "The minimum amount of ETH that must be received for the transaction not to revert.",
          "_amountTokenMin": "The minimum amount of token that must be received for the transaction not to revert.",
          "_deadline": "Unix timestamp after which the transaction will revert.",
          "_liquidity": "The amount of liquidity tokens to remove.",
          "_to": "Recipient of the liquidity tokens.",
          "_token": "A pool token."
        },
        "returns": {
          "amountETH_": "The amount of ETH received.",
          "amountToken_": "The amount of token received."
        }
      },
      "removeLiquidityETHWithPermit(address,uint256,uint256,uint256,address,uint256,bool,uint8,bytes32,bytes32)": {
        "params": {
          "_amountETHMin": "The minimum amount of ETH that must be received for the transaction not to revert.",
          "_amountTokenMin": "The minimum amount of token that must be received for the transaction not to revert.",
          "_approveMax": "Whether or not the approval amount in the signature is for liquidity or uint(-1).",
          "_deadline": "Unix timestamp after which the transaction will revert.",
          "_liquidity": "The amount of liquidity tokens to remove.",
          "_r": "The r component of the permit signature.",
          "_s": "The s component of the permit signature.",
          "_to": "Recipient of the liquidity tokens.",
          "_token": "A pool token.",
          "_v": "The v component of the permit signature."
        },
        "returns": {
          "amountETH_": "The amount of ETH received.",
          "amountToken_": "The amount of token received."
        }
      },
      "removeLiquidityWithPermit(address,address,uint256,uint256,uint256,address,uint256,bool,uint8,bytes32,bytes32)": {
        "params": {
          "_amountAMin": "The minimum amount of tokenA that must be received for the transaction not to revert.",
          "_amountBMin": "The minimum amount of tokenB that must be received for the transaction not to revert.",
          "_approveMax": "Whether or not the approval amount in the signature is for liquidity or uint(-1).",
          "_deadline": "Unix timestamp after which the transaction will revert.",
          "_liquidity": "The amount of liquidity tokens to remove.",
          "_r": "The r component of the permit signature.",
          "_s": "The s component of the permit signature.",
          "_to": "Recipient of the liquidity tokens.",
          "_tokenA": "A pool token.",
          "_tokenB": "A pool token.",
          "_v": "The v component of the permit signature."
        },
        "returns": {
          "amountA_": "The amount of tokenA received.",
          "amountB_": "The amount of tokenB received."
        }
      },
      "smardexMintCallback((address,address,uint256,uint256,address))": {
        "params": {
          "_data": "callback data for mint"
        }
      },
      "smardexSwapCallback(int256,int256,bytes)": {
        "params": {
          "_amount0Delta": "amount of token0 for the swap (negative is incoming, positive is required to pay to pair)",
          "_amount1Delta": "amount of token1 for the swap (negative is incoming, positive is required to pay to pair)",
          "_data": "for Router path and payer for the swap (see router for details)"
        }
      },
      "swapETHForExactTokens(uint256,address[],address,uint256)": {
        "params": {
          "_amountOut": "The amount of tokens to receive.",
          "_deadline": "Unix timestamp after which the transaction will revert.",
          "_path": "An array of token addresses. path.length must be >= 2. Pools for each consecutive pair of addresses must exist and have liquidity.",
          "_to": "Recipient of output tokens."
        },
        "returns": {
          "amountIn_": "The input token amount."
        }
      },
      "swapExactETHForTokens(uint256,address[],address,uint256)": {
        "params": {
          "_amountOutMin": "The minimum amount of output tokens that must be received for the transaction not to revert.",
          "_deadline": "Unix timestamp after which the transaction will revert.",
          "_path": "An array of token addresses. path.length must be >= 2. Pools for each consecutive pair of addresses must exist and have liquidity.",
          "_to": "Recipient of the output tokens."
        },
        "returns": {
          "amountOut_": "The input token amount."
        }
      },
      "swapExactTokensForETH(uint256,uint256,address[],address,uint256)": {
        "params": {
          "_amountIn": "The amount of input tokens to send.",
          "_amountOutMin": "The minimum amount of output tokens that must be received for the transaction not to revert.",
          "_deadline": "Unix timestamp after which the transaction will revert.",
          "_path": "An array of token addresses. path.length must be >= 2. Pools for each consecutive pair of addresses must exist and have liquidity.",
          "_to": "Recipient of ETH."
        },
        "returns": {
          "amountOut_": "The input token amount."
        }
      },
      "swapExactTokensForETHWithPermit(uint256,uint256,address[],address,uint256,bool,uint8,bytes32,bytes32)": {
        "params": {
          "_amountIn": "The amount of input tokens to send.",
          "_amountOutMin": "The minimum amount of output ETH that must be received for the transaction not to revert.",
          "_approveMax": "Whether the approval amount in the signature is for uint(-1) (true) or _amountIn (false).",
          "_deadline": "Unix timestamp after which the transaction will revert",
          "_path": "An array of token addresses. path.length must be >= 2. Pools for each consecutive pair of addresses must exist and have liquidity.",
          "_r": "The r component of the permit signature.",
          "_s": "The s component of the permit signature.",
          "_to": "Recipient of the output tokens.",
          "_v": "The v component of the permit signature."
        },
        "returns": {
          "amountOut_": "The output token amount."
        }
      },
      "swapExactTokensForTokens(uint256,uint256,address[],address,uint256)": {
        "params": {
          "_amountIn": "The amount of input tokens to send.",
          "_amountOutMin": "The minimum amount of output tokens that must be received for the transaction not to revert.",
          "_deadline": "Unix timestamp after which the transaction will revert.",
          "_path": "An array of token addresses. path.length must be >= 2. Pools for each consecutive pair of addresses must exist and have liquidity.",
          "_to": "Recipient of the output tokens."
        },
        "returns": {
          "amountOut_": "The output token amount."
        }
      },
      "swapExactTokensForTokensWithPermit(uint256,uint256,address[],address,uint256,bool,uint8,bytes32,bytes32)": {
        "params": {
          "_amountIn": "The amount of input tokens to send.",
          "_amountOutMin": "The minimum amount of output tokens that must be received for the transaction not to revert.",
          "_approveMax": "Whether the approval amount in the signature is for uint(-1) (true) or _amountIn (false).",
          "_deadline": "unix timestamp after which the transaction will revert",
          "_path": "An array of token addresses. path.length must be >= 2. Pools for each consecutive pair of addresses must exist and have liquidity.",
          "_r": "The r component of the permit signature.",
          "_s": "The s component of the permit signature.",
          "_to": "Recipient of the output tokens.",
          "_v": "The v component of the permit signature."
        },
        "returns": {
          "amountOut_": "The output token amount."
        }
      },
      "swapTokensForExactETH(uint256,uint256,address[],address,uint256)": {
        "params": {
          "_amountInMax": "The maximum amount of input tokens that can be required before the transaction reverts.",
          "_amountOut": "The amount of ETH to receive.",
          "_deadline": "Unix timestamp after which the transaction will revert.",
          "_path": "An array of token addresses. path.length must be >= 2. Pools for each consecutive pair of addresses must exist and have liquidity.",
          "_to": "Recipient of ETH."
        },
        "returns": {
          "amountIn_": "The input token amount."
        }
      },
      "swapTokensForExactETHWithPermit(uint256,uint256,address[],address,uint256,bool,uint8,bytes32,bytes32)": {
        "params": {
          "_amountInMax": "The maximum amount of input tokens that can be required before the transaction reverts.",
          "_amountOut": "The amount of output tokens to receive.",
          "_approveMax": "Whether the approval amount in the signature is for uint(-1) (true) or _amountInMax (false).",
          "_deadline": "Unix timestamp after which the transaction will revert",
          "_path": "An array of token addresses. path.length must be >= 2. Pools for each consecutive pair of addresses must exist and have liquidity.",
          "_r": "The r component of the permit signature.",
          "_s": "The s component of the permit signature.",
          "_to": "Recipient of the output tokens.",
          "_v": "The v component of the permit signature."
        },
        "returns": {
          "amountIn_": "The input token amount."
        }
      },
      "swapTokensForExactTokens(uint256,uint256,address[],address,uint256)": {
        "params": {
          "_amountInMax": "The maximum amount of input tokens that can be required before the transaction reverts.",
          "_amountOut": "The amount of output tokens to receive.",
          "_deadline": "Unix timestamp after which the transaction will revert.",
          "_path": "An array of token addresses. path.length must be >= 2. Pools for each consecutive pair of addresses must exist and have liquidity.",
          "_to": "Recipient of the output tokens."
        },
        "returns": {
          "amountIn_": "The input token amount."
        }
      },
      "swapTokensForExactTokensWithPermit(uint256,uint256,address[],address,uint256,bool,uint8,bytes32,bytes32)": {
        "params": {
          "_amountInMax": "The maximum amount of input tokens that can be required before the transaction reverts.",
          "_amountOut": "The amount of output tokens to receive.",
          "_approveMax": "Whether the approval amount in the signature is for uint(-1) (true) or _amountInMax (false).",
          "_deadline": "Unix timestamp after which the transaction will revert",
          "_path": "An array of token addresses. path.length must be >= 2. Pools for each consecutive pair of addresses must exist and have liquidity.",
          "_r": "The r component of the permit signature.",
          "_s": "The s component of the permit signature.",
          "_to": "Recipient of the output tokens.",
          "_v": "The v component of the permit signature."
        },
        "returns": {
          "amountIn_": "The input token amount."
        }
      }
    },
    "stateVariables": {
      "DEFAULT_AMOUNT_IN_CACHED": {
        "details": "Used as the placeholder value for amountInCached, because the computed amount in for an exact output swap can never actually be this value"
      },
      "WETH": {
        "return": "address of the WETH token (Wrapped Ether)",
        "returns": {
          "_0": "address of the WETH token (Wrapped Ether)"
        }
      },
      "amountInCached": {
        "details": "Transient storage variable used for returning the computed amount in for an exact output swap."
      },
      "factory": {
        "return": "address of the factory",
        "returns": {
          "_0": "address of the factory"
        }
      }
    },
    "title": "SmardexRouter",
    "version": 1
  },
  "userdoc": {
    "events": {
      "PairWhitelisted(address,address,address)": {
        "notice": "emitted when a pair is added to the whitelist"
      }
    },
    "kind": "user",
    "methods": {
      "WETH()": {
        "notice": "get WETH address"
      },
      "addLiquidity((address,address,uint256,uint256,uint256,uint256,uint128,uint128,uint128),address,uint256)": {
        "notice": "Add liquidity to an ERC-20=ERC-20 pool. Receive liquidity token to materialize shares in the pool"
      },
      "addLiquidityETH((address,uint256,uint256,uint256,uint128,uint128,uint128),address,uint256)": {
        "notice": "Adds liquidity to an ERC-20=WETH pool with ETH. msg.value is the amount of ETH to add as liquidity. if the token/WETH price is <= amountTokenDesired/msg.value (WETH depreciates)."
      },
      "addPairToWhitelist(address,address)": {
        "notice": "Add pair to the whitelist if it's also present in the factory whitelist"
      },
      "factory()": {
        "notice": "get the factory address"
      },
      "getAmountIn((uint256,uint256,uint256,uint256,uint256,uint256,uint256,uint128,uint128))": {
        "notice": "return the amount of tokens the user should spend by doing a swap"
      },
      "getAmountInFromPair(uint256,address,address)": {
        "notice": "return the amount of tokens the user should spend by doing a swap by directly              fetching data from the pair tokenIn/tokenOut"
      },
      "getAmountOut((uint256,uint256,uint256,uint256,uint256,uint256,uint256,uint128,uint128))": {
        "notice": "return the amount of tokens the user would get by doing a swap"
      },
      "getAmountOutFromPair(uint256,address,address)": {
        "notice": "return the amount of tokens the user should spend by doing a swap by directly              fetching data from the pair tokenIn/tokenOut"
      },
      "quote(uint256,uint256,uint256)": {
        "notice": "Given some asset amount and reserves, returns an amount of the other asset representing equivalent value."
      },
      "removeLiquidity(address,address,uint256,uint256,uint256,address,uint256)": {
        "notice": "Removes liquidity from an ERC-20=ERC-20 pool."
      },
      "removeLiquidityETH(address,uint256,uint256,uint256,address,uint256)": {
        "notice": "Removes liquidity from an ERC-20=WETH pool and receive ETH."
      },
      "removeLiquidityETHWithPermit(address,uint256,uint256,uint256,address,uint256,bool,uint8,bytes32,bytes32)": {
        "notice": "Removes liquidity from an ERC-20=WETH pool and receive ETH without pre-approval"
      },
      "removeLiquidityWithPermit(address,address,uint256,uint256,uint256,address,uint256,bool,uint8,bytes32,bytes32)": {
        "notice": "Removes liquidity from an ERC-20=WETH pool and receive ETH."
      },
      "smardexMintCallback((address,address,uint256,uint256,address))": {
        "notice": "callback to implement when calling SmardexPair.mint"
      },
      "smardexSwapCallback(int256,int256,bytes)": {
        "notice": "callback data for swap"
      },
      "swapETHForExactTokens(uint256,address[],address,uint256)": {
        "notice": "Receive an exact amount of tokens for as little ETH as possible, along the route determined by the path. The first element of path must be WETH, the last is the output token and any intermediate elements represent intermediate pairs to trade through (if, for example, a direct pair does not exist). msg.value The maximum amount of ETH that can be required before the transaction reverts."
      },
      "swapExactETHForTokens(uint256,address[],address,uint256)": {
        "notice": "Swaps an exact amount of ETH for as many output tokens as possible, along the route determined by the path. The first element of path must be WETH, the last is the output token, and any intermediate elements represent intermediate pairs to trade through (if, for example, a direct pair does not exist)."
      },
      "swapExactTokensForETH(uint256,uint256,address[],address,uint256)": {
        "notice": "Swaps an exact amount of tokens for as much ETH as possible, along the route determined by the path. The first element of path is the input token, the last must be WETH, and any intermediate elements represent intermediate pairs to trade through (if, for example, a direct pair does not exist)."
      },
      "swapExactTokensForETHWithPermit(uint256,uint256,address[],address,uint256,bool,uint8,bytes32,bytes32)": {
        "notice": "Perform a swapExactTokensForETH with a permit for the entry token"
      },
      "swapExactTokensForTokens(uint256,uint256,address[],address,uint256)": {
        "notice": "Swaps an exact amount of input tokens for as many output tokens as possible, along the route determined by the path. The first element of path is the input token, the last is the output token, and any intermediate elements represent intermediate pairs to trade through (if, for example, a direct pair does not exist)."
      },
      "swapExactTokensForTokensWithPermit(uint256,uint256,address[],address,uint256,bool,uint8,bytes32,bytes32)": {
        "notice": "perform a swapExactTokensForTokens with a permit for the entry token"
      },
      "swapTokensForExactETH(uint256,uint256,address[],address,uint256)": {
        "notice": "Receive an exact amount of ETH for as few input tokens as possible, along the route determined by the path. The first element of path is the input token, the last must be WETH, and any intermediate elements represent intermediate pairs to trade through (if, for example, a direct pair does not exist)."
      },
      "swapTokensForExactETHWithPermit(uint256,uint256,address[],address,uint256,bool,uint8,bytes32,bytes32)": {
        "notice": "Perform a swapTokensForExactETH with a permit for the entry token"
      },
      "swapTokensForExactTokens(uint256,uint256,address[],address,uint256)": {
        "notice": "Receive an exact amount of output tokens for as few input tokens as possible, along the route determined by the path. The first element of path is the input token, the last is the output token, and any intermediate elements represent intermediate tokens to trade through (if, for example, a direct pair does not exist)."
      },
      "swapTokensForExactTokensWithPermit(uint256,uint256,address[],address,uint256,bool,uint8,bytes32,bytes32)": {
        "notice": "Perform a swapTokensForExactTokens with a permit for the entry token"
      }
    },
    "notice": "Router for execution of swaps and liquidity management on SmardexPair",
    "version": 1
  },
  "storageLayout": {
    "storage": [
      {
        "astId": 13310,
        "contract": "contracts/periphery/SmardexRouter.sol:SmardexRouter",
        "label": "whitelist",
        "offset": 0,
        "slot": "0",
        "type": "t_mapping(t_bytes32,t_address)"
      },
      {
        "astId": 13322,
        "contract": "contracts/periphery/SmardexRouter.sol:SmardexRouter",
        "label": "amountInCached",
        "offset": 0,
        "slot": "1",
        "type": "t_uint256"
      }
    ],
    "types": {
      "t_address": {
        "encoding": "inplace",
        "label": "address",
        "numberOfBytes": "20"
      },
      "t_bytes32": {
        "encoding": "inplace",
        "label": "bytes32",
        "numberOfBytes": "32"
      },
      "t_mapping(t_bytes32,t_address)": {
        "encoding": "mapping",
        "key": "t_bytes32",
        "label": "mapping(bytes32 => address)",
        "numberOfBytes": "32",
        "value": "t_address"
      },
      "t_uint256": {
        "encoding": "inplace",
        "label": "uint256",
        "numberOfBytes": "32"
      }
    }
  }
}