{
  "address": "0xDE0CeB9FCa050F30F07A7187BefFbbBe6A04055A",
  "abi": [
    {
      "inputs": [
        {
          "internalType": "address",
          "name": "_farming",
          "type": "address"
        }
      ],
      "stateMutability": "nonpayable",
      "type": "constructor"
    },
    {
      "inputs": [],
      "name": "farming",
      "outputs": [
        {
          "internalType": "contract IFarmingRange",
          "name": "",
          "type": "address"
        }
      ],
      "stateMutability": "view",
      "type": "function"
    },
    {
      "inputs": [
        {
          "internalType": "uint256",
          "name": "_campaignId",
          "type": "uint256"
        }
      ],
      "name": "resetAllowance",
      "outputs": [],
      "stateMutability": "nonpayable",
      "type": "function"
    },
    {
      "inputs": [
        {
          "internalType": "address",
          "name": "_token",
          "type": "address"
        },
        {
          "internalType": "uint256",
          "name": "_amount",
          "type": "uint256"
        },
        {
          "internalType": "address",
          "name": "_to",
          "type": "address"
        }
      ],
      "name": "withdrawFunds",
      "outputs": [],
      "stateMutability": "nonpayable",
      "type": "function"
    }
  ],
  "transactionHash": "0xc3aa6bf95fc07c7c5a5d1dc70751a218262bf105c61e85f9a9985a2353e60e6f",
  "args": [
    "0x45C75bd8Bb9CF5263539b914925EabBF0441Eb14"
  ],
  "numDeployments": 1,
  "solcInputHash": "f447c3775d13fb550cefdc7d0a632a97",
  "bytecode": "0x60a060405234801561001057600080fd5b50604051613de8380380613de883398101604081905261002f9161014a565b803060405161003d9061013d565b6001600160a01b039091168152602001604051809103906000f080158015610069573d6000803e3d6000fd5b506001600160a01b039081166080819052604080518082018252601a81527f7472616e736665724f776e65727368697028616464726573732900000000000060209182015281519385166024808601919091528251808603909101815260449094018252830180516001600160e01b031663f2fde38b60e01b1790525190916100f19161017a565b6000604051808303816000865af19150503d806000811461012e576040519150601f19603f3d011682016040523d82523d6000602084013e610133565b606091505b50505050506101a9565b6133e080610a0883390190565b60006020828403121561015c57600080fd5b81516001600160a01b038116811461017357600080fd5b9392505050565b6000825160005b8181101561019b5760208186018101518583015201610181565b506000920191825250919050565b60805161081c6101ec6000396000818160600152818160b3015281816101de015281816102d80152818161036a015281816103f70152610423015261081c6000f3fe608060405234801561001057600080fd5b50600436106100415760003560e01c806347c6b45e146100465780634e3ad80f1461005b578063eee4f11b1461009e575b600080fd5b6100596100543660046106bf565b6100b1565b005b6100827f000000000000000000000000000000000000000000000000000000000000000081565b6040516001600160a01b03909116815260200160405180910390f35b6100596100ac366004610701565b6101dc565b7f00000000000000000000000000000000000000000000000000000000000000006001600160a01b0316638da5cb5b6040518163ffffffff1660e01b8152600401602060405180830381865afa15801561010f573d6000803e3d6000fd5b505050506040513d601f19601f82011682018060405250810190610133919061071a565b6001600160a01b0316336001600160a01b0316146101cc5760405162461bcd60e51b815260206004820152604560248201527f5265776172644d616e616765723a776974686472617746756e64733a4f6e6c7960448201527f20746865206661726d696e67206f776e65722063616e2077697468647261772060648201526466756e647360d81b608482015260a4015b60405180910390fd5b6101d783828461044e565b505050565b7f00000000000000000000000000000000000000000000000000000000000000006001600160a01b0316634ad7ce806040518163ffffffff1660e01b8152600401602060405180830381865afa15801561023a573d6000803e3d6000fd5b505050506040513d601f19601f8201168201806040525081019061025e919061073e565b81106102bf5760405162461bcd60e51b815260206004820152602a60248201527f5265776172644d616e616765723a63616d706169676e49643a77726f6e672063604482015269185b5c185a59db88125160b21b60648201526084016101c3565b604051632ec88e3b60e21b8152600481018290526000907f00000000000000000000000000000000000000000000000000000000000000006001600160a01b03169063bb2238ec9060240160e060405180830381865afa158015610327573d6000803e3d6000fd5b505050506040513d601f19601f8201168201806040525081019061034b9190610757565b5050604051636eb1769f60e11b81523060048201526001600160a01b037f000000000000000000000000000000000000000000000000000000000000000081166024830152949650938616945063dd62ed3e9360440192506103ab915050565b602060405180830381865afa1580156103c8573d6000803e3d6000fd5b505050506040513d601f19601f820116820180604052508101906103ec919061073e565b1561041d5761041d817f0000000000000000000000000000000000000000000000000000000000000000600061057f565b61044a817f000000000000000000000000000000000000000000000000000000000000000060001961057f565b5050565b604080516001600160a01b038481166024830152604480830185905283518084039091018152606490920183526020820180516001600160e01b031663a9059cbb60e01b17905291516000928392908716916104aa91906107be565b6000604051808303816000865af19150503d80600081146104e7576040519150601f19603f3d011682016040523d82523d6000602084013e6104ec565b606091505b509150915081801561051657508051158061051657508080602001905181019061051691906107ed565b6105785760405162461bcd60e51b815260206004820152602d60248201527f5472616e7366657248656c7065723a3a736166655472616e736665723a20747260448201526c185b9cd9995c8819985a5b1959609a1b60648201526084016101c3565b5050505050565b604080516001600160a01b038481166024830152604480830185905283518084039091018152606490920183526020820180516001600160e01b031663095ea7b360e01b17905291516000928392908716916105db91906107be565b6000604051808303816000865af19150503d8060008114610618576040519150601f19603f3d011682016040523d82523d6000602084013e61061d565b606091505b509150915081801561064757508051158061064757508080602001905181019061064791906107ed565b6105785760405162461bcd60e51b815260206004820152602b60248201527f5472616e7366657248656c7065723a3a73616665417070726f76653a2061707060448201526a1c9bdd994819985a5b195960aa1b60648201526084016101c3565b6001600160a01b03811681146106bc57600080fd5b50565b6000806000606084860312156106d457600080fd5b83356106df816106a7565b92506020840135915060408401356106f6816106a7565b809150509250925092565b60006020828403121561071357600080fd5b5035919050565b60006020828403121561072c57600080fd5b8151610737816106a7565b9392505050565b60006020828403121561075057600080fd5b5051919050565b600080600080600080600060e0888a03121561077257600080fd5b875161077d816106a7565b602089015190975061078e816106a7565b604089015160608a015160808b015160a08c015160c0909c01519a9d939c50919a90999198509650945092505050565b6000825160005b818110156107df57602081860181015185830152016107c5565b506000920191825250919050565b6000602082840312156107ff57600080fd5b8151801515811461073757600080fdfea164736f6c6343000811000a60a06040523480156200001157600080fd5b50604051620033e0380380620033e083398101604081905262000034916200012b565b6200003f33620000db565b6001805560346005556001600160a01b038116620000c95760405162461bcd60e51b815260206004820152603860248201527f4661726d696e6752616e67653a3a636f6e7374727563746f723a3a526577617260448201527f64206d616e61676572206973206e6f7420646566696e65640000000000000000606482015260840160405180910390fd5b6001600160a01b03166080526200015d565b600080546001600160a01b038381166001600160a01b0319831681178455604051919092169283917f8be0079c531659141344cd1fd0a4f28419497f9722a3daafe3b4186f6b6457e09190a35050565b6000602082840312156200013e57600080fd5b81516001600160a01b03811681146200015657600080fd5b9392505050565b60805161323d620001a3600039600081816101ff0152818161151201528181611b3701528181611ba601528181611c6b0152818161230c015261254e015261323d6000f3fe608060405234801561001057600080fd5b50600436106101d95760003560e01c8063715018a6116101045780639a63bc16116100a2578063e2bbb15811610071578063e2bbb1581461046c578063eebdced51461047f578063f2fde38b14610487578063fa8f5f191461049a57600080fd5b80639a63bc16146103e0578063bb2238ec146103f3578063cdc8c93014610446578063cef7042d1461045957600080fd5b80638d48aff0116100de5780638d48aff0146103775780638da5cb5b1461038a57806393f1a40b1461039b57806398969e82146103cd57600080fd5b8063715018a6146103495780637bafb0291461035157806380637e891461036457600080fd5b80633bbda19b1161017c5780634ad7ce801161014b5780634ad7ce80146102fb5780634ae56bae146103035780635312ea8e146103235780635d14b06f1461033657600080fd5b80633bbda19b146102af578063409e00fc146102c257806342ee0aba146102d5578063441a3e70146102e857600080fd5b80631693074b116101b85780631693074b146102615780632ea807c51461027657806330d78fda1461028957806333824b871461029c57600080fd5b8062d74850146101de5780630f4ef8a6146101fa57806310f7a6af14610239575b600080fd5b6101e760055481565b6040519081526020015b60405180910390f35b6102217f000000000000000000000000000000000000000000000000000000000000000081565b6040516001600160a01b0390911681526020016101f1565b61024c610247366004612b8f565b6104ad565b604080519283526020830191909152016101f1565b61027461026f366004612bc6565b6104e9565b005b610274610284366004612c17565b610572565b610274610297366004612c51565b6108ab565b6102746102aa366004612cbf565b610908565b6102746102bd366004612d24565b61094b565b6102746102d0366004612d9e565b610a1d565b6102746102e3366004612e85565b610c88565b6102746102f6366004612b8f565b610d85565b6003546101e7565b6101e7610311366004612cbf565b60009081526002602052604090205490565b610274610331366004612cbf565b610da4565b610274610344366004612f17565b610e6c565b610274610eb3565b6101e761035f366004612c17565b610ec7565b610274610372366004612cbf565b610f10565b6101e7610385366004612cbf565b611129565b6000546001600160a01b0316610221565b61024c6103a9366004612f59565b60046020908152600092835260408084209091529082529020805460019091015482565b6101e76103db366004612f59565b61113b565b6101e76103ee366004612cbf565b611170565b610406610401366004612cbf565b61117c565b604080516001600160a01b039889168152979096166020880152948601939093526060850191909152608084015260a083015260c082015260e0016101f1565b610274610454366004612f89565b6111d8565b610274610467366004612cbf565b611600565b61027461047a366004612b8f565b61161a565b61027461177c565b610274610495366004612fbb565b6117ad565b6102746104a8366004612fd8565b611823565b600260205281600052604060002081815481106104c957600080fd5b600091825260209091206002909102018054600190910154909250905082565b3330146105575760405162461bcd60e51b815260206004820152603160248201527f4661726d696e6752616e67653a3a617474656d70745472616e736665723a3a53604482015270656e646572206e6f74206661726d696e6760781b60648201526084015b60405180910390fd5b61056c6001600160a01b0385168484846119fa565b50505050565b61057a611a65565b610582611abf565b600083815260026020526040812060038054919291869081106105a7576105a761309c565b9060005260206000209060070201905060055482805490501061063c5760405162461bcd60e51b815260206004820152604160248201527f4661726d696e6752616e67653a3a616464526577617264496e666f3a3a72657760448201527f61726420696e666f206c656e677468206578636565647320746865206c696d696064820152601d60fa1b608482015260a40161054e565b8154158061067c5750815443908390610657906001906130c8565b815481106106675761066761309c565b90600052602060002090600202016000015410155b6106e15760405162461bcd60e51b815260206004820152603060248201527f4661726d696e6752616e67653a3a616464526577617264496e666f3a3a72657760448201526f185c99081c195c9a5bd908195b99195960821b606482015260840161054e565b8154158061072057508154849083906106fc906001906130c8565b8154811061070c5761070c61309c565b906000526020600020906002020160000154105b6107825760405162461bcd60e51b815260206004820152602d60248201527f4661726d696e6752616e67653a3a616464526577617264496e666f3a3a62616460448201526c206e657720656e64626c6f636b60981b606482015260840161054e565b8154600090156107c3578254839061079c906001906130c8565b815481106107ac576107ac61309c565b9060005260206000209060020201600001546107c9565b81600201545b905060006107d782876130c8565b905060006107e582876130db565b90508084600601546107f791906130f2565b6006850155604080518082019091528781526020808201888152875460018181018a5560008a81529390932093516002909102909301928355519181019190915584015461084f906001600160a01b0316828a611b18565b845461085d906001906130c8565b60408051898152602081018990528a917fad90731bd0d97445f5af66088f3adebf343c520c20e033cc42f93b124258cdc2910160405180910390a350505050506108a660018055565b505050565b6108f5600388815481106108c1576108c161309c565b60009182526020909120600790910201546001600160a01b03163330886108e857896108ec565b6000195b88888888611c91565b6108ff878761161a565b50505050505050565b610910611a65565b60058190556040518181527fb64f58843e750a8bea7135ef396cf0a7790bfc9a8f43f11ac0e0aacc1b5787ba9060200160405180910390a150565b610953611a65565b8281146109c85760405162461bcd60e51b815260206004820152603860248201527f4661726d696e6752616e67653a3a6164645265776172644d756c7469706c653a60448201527f3a77726f6e6720706172616d6574657273206c656e6774680000000000000000606482015260840161054e565b60005b808414610a1557610a0d868686848181106109e8576109e861309c565b90506020020135858585818110610a0157610a0161309c565b90506020020135610572565b6001016109cb565b505050505050565b610a25611a65565b438111610aa55760405162461bcd60e51b815260206004820152604260248201527f4661726d696e6752616e67653a3a61646443616d706169676e496e666f3a3a5360448201527f7461727420626c6f636b2073686f756c6420626520696e207468652066757475606482015261726560f01b608482015260a40161054e565b6040805160e0810182526001600160a01b038086168252848116602083019081529282018481526060830185815260006080850181815260a0860182815260c08701838152600380546001818101835595829052985160079099027fc2575a0e9e593c00f959f8c92f12db2869c3395a3b0502d05e2516446f71f85b810180549a8a166001600160a01b03199b8c1617905599517fc2575a0e9e593c00f959f8c92f12db2869c3395a3b0502d05e2516446f71f85c8b0180549190991699169890981790965593517fc2575a0e9e593c00f959f8c92f12db2869c3395a3b0502d05e2516446f71f85d88015591517fc2575a0e9e593c00f959f8c92f12db2869c3395a3b0502d05e2516446f71f85e87015590517fc2575a0e9e593c00f959f8c92f12db2869c3395a3b0502d05e2516446f71f85f86015590517fc2575a0e9e593c00f959f8c92f12db2869c3395a3b0502d05e2516446f71f86085015590517fc2575a0e9e593c00f959f8c92f12db2869c3395a3b0502d05e2516446f71f8619093019290925554610c3891906130c8565b604080516001600160a01b038087168252851660208201529081018390527f9b2f18f9a188a5aec4a95ee3164fe234dfbb6117628b2ad1a581939e61c69f4e9060600160405180910390a2505050565b610c90611a65565b81518351148015610ca2575080518351145b610d145760405162461bcd60e51b815260206004820152603b60248201527f4661726d696e6752616e67653a3a7570646174655265776172644d756c74697060448201527f6c653a3a77726f6e6720706172616d6574657273206c656e6774680000000000606482015260840161054e565b60005b83518114610d7e57610d7685858381518110610d3557610d3561309c565b6020026020010151858481518110610d4f57610d4f61309c565b6020026020010151858581518110610d6957610d6961309c565b60200260200101516111d8565b600101610d17565b5050505050565b610d8d611abf565b610d978282611e67565b610da060018055565b5050565b610dac611abf565b600060038281548110610dc157610dc161309c565b60009182526020808320858452600482526040808520338652909252922080546007929092029092016005810154909350610dfd9082906130c8565b6005840155600080835560018301558254610e22906001600160a01b03163383612018565b604080518281526020810186905233917fbb757047c2b5f3974fe26b7c10f732e7bce710b0952a71082702781e62ae0595910160405180910390a2505050610e6960018055565b50565b610e74611abf565b60005b808214610ea957610ea1838383818110610e9357610e9361309c565b905060200201356000611e67565b600101610e77565b50610da060018055565b610ebb611a65565b610ec56000612048565b565b60008184101580610ed757508284115b15610ee457506000610f09565b818311610efc57610ef584846130c8565b9050610f09565b610f0684836130c8565b90505b9392505050565b610f18611a65565b60008181526002602052604081206003805491929184908110610f3d57610f3d61309c565b6000918252602082208454600790920201925090819003610fbf5760405162461bcd60e51b815260206004820152603660248201527f4661726d696e6752616e67653a3a75706461746543616d706169676e7352657760448201527530b932399d1d3737903932bbb0b93224b73337a632b760511b606482015260840161054e565b600083610fcd6001846130c8565b81548110610fdd57610fdd61309c565b6000918252602090912060029091020180549091504381116110675760405162461bcd60e51b815260206004820152603760248201527f4661726d696e6752616e67653a3a72656d6f76654c617374526577617264496e60448201527f666f3a3a72657761726420706572696f6420656e646564000000000000000000606482015260840161054e565b61107086612098565b6001820154156110b95760008061109661108b6001876130c8565b8460008a8a8961243b565b9150915081156110b6578086600601546110b091906130c8565b60068701555b50505b848054806110c9576110c9613105565b60008281526020812060026000199093019283020181815560019081019190915591556110f690846130c8565b60405187907f997b6670781194c0d30c477be41ce4ba9b7f3f12417aa00965b9d9f978251e2390600090a3505050505050565b60006111358243612586565b92915050565b60008281526004602090815260408083206001600160a01b038516845290915281208054600190910154610f0991859161267c565b60006111358243612878565b6003818154811061118c57600080fd5b600091825260209091206007909102018054600182015460028301546003840154600485015460058601546006909601546001600160a01b039586169750949093169491939092919087565b6111e0611a65565b6111e8611abf565b6000848152600260205260408120600380549192918790811061120d5761120d61309c565b9060005260206000209060070201905060008286815481106112315761123161309c565b60009182526020909120600290910201805490915061124f88612098565b438110156112bb5760405162461bcd60e51b815260206004820152603360248201527f4661726d696e6752616e67653a3a757064617465526577617264496e666f3a3a6044820152721c995dd85c99081c195c9a5bd908195b991959606a1b606482015260840161054e565b86156113565785846112ce60018a6130c8565b815481106112de576112de61309c565b906000526020600020906002020160000154106113565760405162461bcd60e51b815260206004820152603060248201527f4661726d696e6752616e67653a3a757064617465526577617264496e666f3a3a60448201526f626164206e657720656e64626c6f636b60801b606482015260840161054e565b6113618760016130f2565b8454111561141657836113758860016130f2565b815481106113855761138561309c565b90600052602060002090600202016000015486106114165760405162461bcd60e51b815260206004820152604260248201527f4661726d696e6752616e67653a3a757064617465526577617264496e666f3a3a60448201527f72657761726420706572696f6420656e6420697320696e206e6578742072616e606482015261676560f01b608482015260a40161054e565b60008061142789898989898961243b565b915091508115801561143857508015155b15611456576001850154611456906001600160a01b0316828c611b18565b828814158015611473575085548990611471906001906130c8565b115b1561157b576000866114868b60016130f2565b815481106114965761149661309c565b6000918252602082206002909102018054909250906114b586836130c8565b905060006114c38c846130c8565b600185015490915060006114d782856130db565b9050826114e485846130db565b6114ee919061311b565b915060006114fc83856130db565b60018801849055905081811015611573576115507f000000000000000000000000000000000000000000000000000000000000000061153b83856130c8565b60018f01546001600160a01b03169190612018565b61155a81836130c8565b8c600601600082825461156d91906130c8565b90915550505b505050505050505b816115955780856006015461159091906130f2565b6115a5565b8085600601546115a591906130c8565b60068601558784556001840187905560408051898152602081018990528a918c917fcd251e3ce758f4da844a7b790619743994a9ce956a4abb78aec611623ae8af5f910160405180910390a350505050505061056c60018055565b611608611abf565b61161181612098565b610e6960018055565b611622611abf565b6000600383815481106116375761163761309c565b6000918252602080832086845260048252604080852033865290925292206007909102909101915061166884612098565b8054156116cb576000816001015468056bc75e2d631000008460040154846000015461169491906130db565b61169e919061311b565b6116a891906130c8565b905080156116c95760018301546116c9906001600160a01b03163383612018565b505b821561170c5780546116de9084906130f2565b815560058201546116f09084906130f2565b6005830155815461170c906001600160a01b03163330866119fa565b6004820154815468056bc75e2d6310000091611727916130db565b611731919061311b565b6001820155604080518481526020810186905233917f90890809c654f11d6e72a28fa60149770a0d11ec6c92319d6ceb2bb0a4ea1a15910160405180910390a25050610da060018055565b611784611abf565b60035460005b8181146117a25761179a81612098565b60010161178a565b5050610ec560018055565b6117b5611a65565b6001600160a01b03811661181a5760405162461bcd60e51b815260206004820152602660248201527f4f776e61626c653a206e6577206f776e657220697320746865207a65726f206160448201526564647265737360d01b606482015260840161054e565b610e6981612048565b61182b611a65565b868514801561183957508483145b801561184457508481145b6118b65760405162461bcd60e51b815260206004820152603d60248201527f4661726d696e6752616e67653a3a75706461746543616d706169676e7352657760448201527f617264733a3a77726f6e6720726577617264496e666f206c656e677468000000606482015260840161054e565b60005b8088146119ef576119e78989838181106118d5576118d561309c565b905060200201358888848181106118ee576118ee61309c565b9050602002810190611900919061313d565b808060200260200160405190810160405280939291908181526020018383602002808284376000920191909152508a92508991508690508181106119465761194661309c565b9050602002810190611958919061313d565b8080602002602001604051908101604052809392919081815260200183836020028082843760009201919091525089925088915087905081811061199e5761199e61309c565b90506020028101906119b0919061313d565b80806020026020016040519081016040528093929190818152602001838360200280828437600092019190915250610c8892505050565b6001016118b9565b505050505050505050565b6040516001600160a01b038085166024830152831660448201526064810182905261056c9085906323b872dd60e01b906084015b60408051601f198184030181529190526020810180516001600160e01b03166001600160e01b031990931692909217909152612995565b6000546001600160a01b03163314610ec55760405162461bcd60e51b815260206004820181905260248201527f4f776e61626c653a2063616c6c6572206973206e6f7420746865206f776e6572604482015260640161054e565b600260015403611b115760405162461bcd60e51b815260206004820152601f60248201527f5265656e7472616e637947756172643a207265656e7472616e742063616c6c00604482015260640161054e565b6002600155565b604051631693074b60e01b81526001600160a01b0380851660048301527f000000000000000000000000000000000000000000000000000000000000000016602482015230604482018190526064820184905290631693074b90608401600060405180830381600087803b158015611b8f57600080fd5b505af1925050508015611ba0575060015b6108a6577f00000000000000000000000000000000000000000000000000000000000000006001600160a01b031681604051602401611be191815260200190565b60408051601f198184030181529181526020820180516001600160e01b031663eee4f11b60e01b17905251611c1691906131ab565b6000604051808303816000865af19150503d8060008114611c53576040519150601f19603f3d011682016040523d82523d6000602084013e611c58565b606091505b506108a69150506001600160a01b0384167f000000000000000000000000000000000000000000000000000000000000000030856119fa565b604051623f675f60e91b81526001600160a01b038881166004830152600091908a1690637ecebe0090602401602060405180830381865afa158015611cda573d6000803e3d6000fd5b505050506040513d601f19601f82011682018060405250810190611cfe91906131c7565b60405163d505accf60e01b81526001600160a01b038a811660048301528981166024830152604482018990526064820188905260ff8716608483015260a4820186905260c48201859052919250908a169063d505accf9060e401600060405180830381600087803b158015611d7257600080fd5b505af1158015611d86573d6000803e3d6000fd5b5050604051623f675f60e91b81526001600160a01b038b81166004830152600093508c169150637ecebe0090602401602060405180830381865afa158015611dd2573d6000803e3d6000fd5b505050506040513d601f19601f82011682018060405250810190611df691906131c7565b9050611e038260016130f2565b8114611e5b5760405162461bcd60e51b815260206004820152602160248201527f5361666545524332303a207065726d697420646964206e6f74207375636365656044820152601960fa1b606482015260840161054e565b50505050505050505050565b600060038381548110611e7c57611e7c61309c565b600091825260208083208684526004825260408085203386529092529220805460079092029092019250831115611f095760405162461bcd60e51b815260206004820152602b60248201527f4661726d696e6752616e67653a3a77697468647261773a3a626164207769746860448201526a191c985dc8185b5bdd5b9d60aa1b606482015260840161054e565b611f1284612098565b6000816001015468056bc75e2d6310000084600401548460000154611f3791906130db565b611f41919061311b565b611f4b91906130c8565b90508015611f6c576001830154611f6c906001600160a01b03163383612018565b8315611fac578154611f7f9085906130c8565b82556005830154611f919085906130c8565b60058401558254611fac906001600160a01b03163386612018565b6004830154825468056bc75e2d6310000091611fc7916130db565b611fd1919061311b565b6001830155604080518581526020810187905233917ff279e6a1f5e320cca91135676d9cb6e44ca8a08c0b88342bcdb1144f6511b568910160405180910390a25050505050565b6040516001600160a01b0383166024820152604481018290526108a690849063a9059cbb60e01b90606401611a2e565b600080546001600160a01b038381166001600160a01b0319831681178455604051919092169283917f8be0079c531659141344cd1fd0a4f28419497f9722a3daafe3b4186f6b6457e09190a35050565b60035481106121065760405162461bcd60e51b815260206004820152603460248201527f4661726d696e6752616e67653a3a5f75706461746543616d706169676e3a3a43604482015273185b5c185a59db881a59081b9bdd081d985b1a5960621b606482015260840161054e565b60006003828154811061211b5761211b61309c565b60009182526020808320858452600282526040808520805482518186028101860190935280835260079095029092019550929091849084015b8282101561219a57838290600052602060002090600202016040518060400160405290816000820154815260200160018201548152505081526020019060010190612154565b505050509050816003015443116121b057505050565b816005015460000361233d576000805b825181146122f15783600301548382815181106121df576121df61309c565b602002602001015160000151106122e95760008160000361220457846003015461222d565b836122106001846130c8565b815181106122205761222061309c565b6020026020010151600001515b90506000438584815181106122445761224461309c565b60200260200101516000015111905060008660030154831161226a57866003015461226c565b825b82612294578685815181106122835761228361309c565b602002602001015160000151612296565b435b6122a091906130c8565b9050808685815181106122b5576122b561309c565b6020026020010151602001516122cb91906130db565b6122d590866130f2565b945081156122e5575050506122f1565b5050505b6001016121c0565b508015612331576001830154612331906001600160a01b03167f000000000000000000000000000000000000000000000000000000000000000083612018565b50504360039091015550565b60005b8151811461056c5760006123768460030154438585815181106123655761236561309c565b602002602001015160000151610ec7565b90508015612432578282815181106123905761239061309c565b6020026020010151600001514311156123cb578282815181106123b5576123b561309c565b60209081029190910101515160038501556123d2565b4360038501555b83600501548383815181106123e9576123e961309c565b6020026020010151602001518261240091906130db565b6124139068056bc75e2d631000006130db565b61241d919061311b565b846004015461242c91906130f2565b60048501555b50600101612340565b600080808815612478578561245160018b6130c8565b815481106124615761246161309c565b90600052602060002090600202016000015461247e565b84600201545b9050600081431161248f5781612491565b435b905060008286600001546124a591906130c8565b905060006124b3838c6130c8565b60018801549091506000816124c887876130c8565b6124d291906130db565b905060006124e085846130db565b905060006124ee858f6130db565b90506124fa83826130f2565b821199508961251d578161250e84836130f2565b61251891906130c8565b612532565b8261252882846130c8565b61253291906130c8565b985089156125735760018c0154612573906001600160a01b03167f00000000000000000000000000000000000000000000000000000000000000008b612018565b5050505050505050965096945050505050565b600082815260026020908152604080832080548251818502810185019093528083528493849084015b828210156125f5578382906000526020600020906002020160405180604001604052908160008201548152602001600182015481525050815260200190600101906125af565b505082519293505050600081900361261257600092505050611135565b60005b8181146126705782818151811061262e5761262e61309c565b6020026020010151600001518511612668578281815181106126525761265261309c565b6020026020010151602001519350505050611135565b600101612615565b50600095945050505050565b600080600385815481106126925761269261309c565b600091825260208083206040805160e081018252600790940290910180546001600160a01b03908116855260018201541684840152600280820154858401526003820154606086015260048201546080860152600582015460a086015260069091015460c08501528985528252808420805482518185028101850190935280835293955090929091849084015b828210156127655783829060005260206000209060020201604051806040016040529081600082015481526020016001820154815250508152602001906001019061271f565b50505050905060008260800151905082606001514311801561278a575060a083015115155b1561284457606083015160005b835181146128415760006127b883438785815181106123655761236561309c565b90508015612838578482815181106127d2576127d261309c565b60200260200101516000015192508560a001518583815181106127f7576127f761309c565b6020026020010151602001518261280e91906130db565b6128219068056bc75e2d631000006130db565b61282b919061311b565b61283590856130f2565b93505b50600101612797565b50505b8468056bc75e2d6310000061285983896130db565b612863919061311b565b61286d91906130c8565b979650505050505050565b600082815260026020908152604080832080548251818502810185019093528083528493849084015b828210156128e7578382906000526020600020906002020160405180604001604052908160008201548152602001600182015481525050815260200190600101906128a1565b505082519293505050600081900361290457600092505050611135565b60005b818114612962578281815181106129205761292061309c565b602002602001015160000151851161295a578281815181106129445761294461309c565b6020026020010151600001519350505050611135565b600101612907565b508161296f6001836130c8565b8151811061297f5761297f61309c565b6020026020010151600001519250505092915050565b60006129ea826040518060400160405280602081526020017f5361666545524332303a206c6f772d6c6576656c2063616c6c206661696c6564815250856001600160a01b0316612a6a9092919063ffffffff16565b9050805160001480612a0b575080806020019051810190612a0b91906131e0565b6108a65760405162461bcd60e51b815260206004820152602a60248201527f5361666545524332303a204552433230206f7065726174696f6e20646964206e6044820152691bdd081cdd58d8d9595960b21b606482015260840161054e565b6060610f06848460008585600080866001600160a01b03168587604051612a9191906131ab565b60006040518083038185875af1925050503d8060008114612ace576040519150601f19603f3d011682016040523d82523d6000602084013e612ad3565b606091505b5091509150612ae487838387612af1565b925050505b949350505050565b60608315612b60578251600003612b59576001600160a01b0385163b612b595760405162461bcd60e51b815260206004820152601d60248201527f416464726573733a2063616c6c20746f206e6f6e2d636f6e7472616374000000604482015260640161054e565b5081612ae9565b612ae98383815115612b755781518083602001fd5b8060405162461bcd60e51b815260040161054e91906131fd565b60008060408385031215612ba257600080fd5b50508035926020909101359150565b6001600160a01b0381168114610e6957600080fd5b60008060008060808587031215612bdc57600080fd5b8435612be781612bb1565b93506020850135612bf781612bb1565b92506040850135612c0781612bb1565b9396929550929360600135925050565b600080600060608486031215612c2c57600080fd5b505081359360208301359350604090920135919050565b8015158114610e6957600080fd5b600080600080600080600060e0888a031215612c6c57600080fd5b87359650602088013595506040880135612c8581612c43565b945060608801359350608088013560ff81168114612ca257600080fd5b9699959850939692959460a0840135945060c09093013592915050565b600060208284031215612cd157600080fd5b5035919050565b60008083601f840112612cea57600080fd5b50813567ffffffffffffffff811115612d0257600080fd5b6020830191508360208260051b8501011115612d1d57600080fd5b9250929050565b600080600080600060608688031215612d3c57600080fd5b85359450602086013567ffffffffffffffff80821115612d5b57600080fd5b612d6789838a01612cd8565b90965094506040880135915080821115612d8057600080fd5b50612d8d88828901612cd8565b969995985093965092949392505050565b600080600060608486031215612db357600080fd5b8335612dbe81612bb1565b92506020840135612dce81612bb1565b929592945050506040919091013590565b634e487b7160e01b600052604160045260246000fd5b600082601f830112612e0657600080fd5b8135602067ffffffffffffffff80831115612e2357612e23612ddf565b8260051b604051601f19603f83011681018181108482111715612e4857612e48612ddf565b604052938452858101830193838101925087851115612e6657600080fd5b83870191505b8482101561286d57813583529183019190830190612e6c565b60008060008060808587031215612e9b57600080fd5b84359350602085013567ffffffffffffffff80821115612eba57600080fd5b612ec688838901612df5565b94506040870135915080821115612edc57600080fd5b612ee888838901612df5565b93506060870135915080821115612efe57600080fd5b50612f0b87828801612df5565b91505092959194509250565b60008060208385031215612f2a57600080fd5b823567ffffffffffffffff811115612f4157600080fd5b612f4d85828601612cd8565b90969095509350505050565b60008060408385031215612f6c57600080fd5b823591506020830135612f7e81612bb1565b809150509250929050565b60008060008060808587031215612f9f57600080fd5b5050823594602084013594506040840135936060013592509050565b600060208284031215612fcd57600080fd5b8135610f0981612bb1565b6000806000806000806000806080898b031215612ff457600080fd5b883567ffffffffffffffff8082111561300c57600080fd5b6130188c838d01612cd8565b909a50985060208b013591508082111561303157600080fd5b61303d8c838d01612cd8565b909850965060408b013591508082111561305657600080fd5b6130628c838d01612cd8565b909650945060608b013591508082111561307b57600080fd5b506130888b828c01612cd8565b999c989b5096995094979396929594505050565b634e487b7160e01b600052603260045260246000fd5b634e487b7160e01b600052601160045260246000fd5b81810381811115611135576111356130b2565b8082028115828204841417611135576111356130b2565b80820180821115611135576111356130b2565b634e487b7160e01b600052603160045260246000fd5b60008261313857634e487b7160e01b600052601260045260246000fd5b500490565b6000808335601e1984360301811261315457600080fd5b83018035915067ffffffffffffffff82111561316f57600080fd5b6020019150600581901b3603821315612d1d57600080fd5b60005b838110156131a257818101518382015260200161318a565b50506000910152565b600082516131bd818460208701613187565b9190910192915050565b6000602082840312156131d957600080fd5b5051919050565b6000602082840312156131f257600080fd5b8151610f0981612c43565b602081526000825180602084015261321c816040850160208701613187565b601f01601f1916919091016040019291505056fea164736f6c6343000811000a",
  "devdoc": {
    "kind": "dev",
    "methods": {
      "resetAllowance(uint256)": {
        "params": {
          "_campaignId": "campaign id"
        }
      },
      "withdrawFunds(address,uint256,address)": {
        "params": {
          "_amount": "amount of token to retrieve",
          "_to": "address to send the tokens",
          "_token": "token contract address to retrieve"
        }
      }
    },
    "title": "RewardManagerWithdrawable",
    "version": 1
  },
  "userdoc": {
    "kind": "user",
    "methods": {
      "farming()": {
        "notice": "used to get the farming contract address"
      },
      "resetAllowance(uint256)": {
        "notice": "used to resetAllowance with farming contract to take rewards"
      },
      "withdrawFunds(address,uint256,address)": {
        "notice": "used to get retrieve tokens"
      }
    },
    "notice": "RewardManagerWithdrawable handles the creation of the contract farming The RewardManager is the owner of the funds in the FarmingRange, only the RewardManager is capable of sending funds to be farmed and only the RewardManager will get the funds back when updating of removing campaigns. The specificity of the withdrawable reward manager is that it's used for promoted campaigns, and thus the needs to be able to withdraw funds is here.",
    "version": 1
  },
  "storageLayout": {
    "storage": [],
    "types": null
  }
}