{
  "address": "0x7e473d028B80AD6408eB9fc1a54B4584CAD69231",
  "abi": [
    {
      "inputs": [
        {
          "internalType": "contract ISmardexFactory",
          "name": "_factory",
          "type": "address"
        },
        {
          "internalType": "contract IERC20",
          "name": "_smardexToken",
          "type": "address"
        },
        {
          "internalType": "address",
          "name": "_stakingAddress",
          "type": "address"
        }
      ],
      "stateMutability": "nonpayable",
      "type": "constructor"
    },
    {
      "inputs": [
        {
          "internalType": "contract IERC20",
          "name": "_token0",
          "type": "address"
        },
        {
          "internalType": "contract IERC20",
          "name": "_token1",
          "type": "address"
        }
      ],
      "name": "executeWork",
      "outputs": [],
      "stateMutability": "nonpayable",
      "type": "function"
    },
    {
      "inputs": [],
      "name": "factory",
      "outputs": [
        {
          "internalType": "contract ISmardexFactory",
          "name": "",
          "type": "address"
        }
      ],
      "stateMutability": "view",
      "type": "function"
    },
    {
      "inputs": [
        {
          "internalType": "int256",
          "name": "_amount0Delta",
          "type": "int256"
        },
        {
          "internalType": "int256",
          "name": "_amount1Delta",
          "type": "int256"
        },
        {
          "internalType": "bytes",
          "name": "_dataFromPair",
          "type": "bytes"
        }
      ],
      "name": "smardexSwapCallback",
      "outputs": [],
      "stateMutability": "nonpayable",
      "type": "function"
    },
    {
      "inputs": [],
      "name": "smardexToken",
      "outputs": [
        {
          "internalType": "contract IERC20",
          "name": "",
          "type": "address"
        }
      ],
      "stateMutability": "view",
      "type": "function"
    },
    {
      "inputs": [],
      "name": "stakingAddress",
      "outputs": [
        {
          "internalType": "address",
          "name": "",
          "type": "address"
        }
      ],
      "stateMutability": "view",
      "type": "function"
    },
    {
      "inputs": [],
      "name": "transferTokens",
      "outputs": [],
      "stateMutability": "nonpayable",
      "type": "function"
    }
  ],
  "transactionHash": "0xf0a5641d05bc861a003ef4084099319ae8907eeb8b3219b929f45461dde22c07",
  "args": [
    "0x7753F36E711B66a0350a753aba9F5651BAE76A1D",
    "0x5DE8ab7E27f6E7A1fFf3E5B337584Aa43961BEeF",
    "0xB940D63c2deD1184BbdE059AcC7fEE93654F02bf"
  ],
  "numDeployments": 1,
  "solcInputHash": "c0e549eb0e3b2dac00d522c9d11717e8",
  "bytecode": "0x60e0604052600080546001600160a01b03191690553480156200002157600080fd5b5060405162001a3b38038062001a3b83398101604081905262000044916200007b565b6001600160a01b0392831660805290821660c0521660a052620000cf565b6001600160a01b03811681146200007857600080fd5b50565b6000806000606084860312156200009157600080fd5b83516200009e8162000062565b6020850151909350620000b18162000062565b6040850151909250620000c48162000062565b809150509250925092565b60805160a05160c0516118f862000143600039600081816099015281816101760152818161021d01528181610559015281816105cf015281816106bc01528181610b100152610b7a0152600081816101230152818161023f0152610aee01526000818160fc01526106ea01526118f86000f3fe608060405234801561001057600080fd5b50600436106100725760003560e01c8063a1dab4eb11610050578063a1dab4eb146100e4578063c45a0155146100f7578063d7b4be241461011e57600080fd5b80631792b0bc146100775780633048c02914610081578063670b3a0b14610094575b600080fd5b61007f610145565b005b61007f61008f3660046113d0565b610267565b6100bb7f000000000000000000000000000000000000000000000000000000000000000081565b60405173ffffffffffffffffffffffffffffffffffffffff909116815260200160405180910390f35b61007f6100f2366004611409565b610285565b6100bb7f000000000000000000000000000000000000000000000000000000000000000081565b6100bb7f000000000000000000000000000000000000000000000000000000000000000081565b6040517f70a082310000000000000000000000000000000000000000000000000000000081523060048201526000907f000000000000000000000000000000000000000000000000000000000000000073ffffffffffffffffffffffffffffffffffffffff16906370a0823190602401602060405180830381865afa1580156101d2573d6000803e3d6000fd5b505050506040513d601f19601f820116820180604052508101906101f69190611489565b9050806000036102035750565b61026473ffffffffffffffffffffffffffffffffffffffff7f0000000000000000000000000000000000000000000000000000000000000000167f0000000000000000000000000000000000000000000000000000000000000000836104c5565b50565b61027082610557565b61027981610557565b610281610145565b5050565b60008413806102945750600083135b610325576040517f08c379a000000000000000000000000000000000000000000000000000000000815260206004820152602660248201527f536d6172646578526f757465723a2043616c6c6261636b20496e76616c69642060448201527f616d6f756e74000000000000000000000000000000000000000000000000000060648201526084015b60405180910390fd5b60008061033483850185611559565b9150915060006103478360000151610d25565b5060005490915073ffffffffffffffffffffffffffffffffffffffff1633146103cc576040517f08c379a000000000000000000000000000000000000000000000000000000000815260206004820152601b60248201527f536d6172446578526f757465723a20494e56414c49445f504149520000000000604482015260640161031c565b81600088126103eb576103e66103e18861167c565b610d46565b6103f4565b6103f48861167c565b1015610482576040517f08c379a000000000000000000000000000000000000000000000000000000000815260206004820152602160248201527f536d61726465784175746f537761707065723a20496e76616c6964207072696360448201527f6500000000000000000000000000000000000000000000000000000000000000606482015260840161031c565b6104bc336000891361049c5761049788610d46565b61049e565b885b73ffffffffffffffffffffffffffffffffffffffff841691906104c5565b50505050505050565b6040805173ffffffffffffffffffffffffffffffffffffffff8416602482015260448082018490528251808303909101815260649091019091526020810180517bffffffffffffffffffffffffffffffffffffffffffffffffffffffff167fa9059cbb00000000000000000000000000000000000000000000000000000000179052610552908490610db6565b505050565b7f000000000000000000000000000000000000000000000000000000000000000073ffffffffffffffffffffffffffffffffffffffff168173ffffffffffffffffffffffffffffffffffffffff16036105ad5750565b604080516101408101825273ffffffffffffffffffffffffffffffffffffffff7f00000000000000000000000000000000000000000000000000000000000000008116908416908110825291517f70a0823100000000000000000000000000000000000000000000000000000000815230600482015260009260208301916370a0823190602401602060405180830381865afa158015610651573d6000803e3d6000fd5b505050506040513d601f19601f820116820180604052508101906106759190611489565b81526040517fe6a4390500000000000000000000000000000000000000000000000000000000815273ffffffffffffffffffffffffffffffffffffffff85811660048301527f0000000000000000000000000000000000000000000000000000000000000000811660248301526020909201917f0000000000000000000000000000000000000000000000000000000000000000169063e6a4390590604401602060405180830381865afa158015610731573d6000803e3d6000fd5b505050506040513d601f19601f8201168201806040525081019061075591906116b4565b73ffffffffffffffffffffffffffffffffffffffff168152602001600081526020016000815260200160008152602001600081526020016000815260200160008152602001600081525090508060200151600014806107cc5750604081015173ffffffffffffffffffffffffffffffffffffffff16155b156107d5575050565b806040015173ffffffffffffffffffffffffffffffffffffffff16639a20767b6040518163ffffffff1660e01b81526004016040805180830381865afa158015610823573d6000803e3d6000fd5b505050506040513d601f19601f8201168201806040525081019061084791906116d1565b826060018360800182815250828152505050806040015173ffffffffffffffffffffffffffffffffffffffff1663ee2046c76040518163ffffffff1660e01b8152600401606060405180830381865afa1580156108a8573d6000803e3d6000fd5b505050506040513d601f19601f820116820180604052508101906108cc91906116f5565b60e084015260c083015260a0820181905215806108eb575060c0810151155b15610905576060810151608082015160c083015260a08201525b80511561093f5761092e816060015182608001518360e001518460a001518560c0015142610ec2565b61012083015261010082015261096e565b610961816080015182606001518360e001518460c001518560a0015142610ec2565b6101208301526101008201525b600060648261010001516109829190611723565b61098e6002606461173a565b83610120015184602001516109a39190611723565b6109ad9190611723565b6109b7919061174d565b905060008111610a49576040517f08c379a000000000000000000000000000000000000000000000000000000000815260206004820152602860248201527f4175746f537761707065723a20736c6970706167652063616c63756c6174696f60448201527f6e206661696c6564000000000000000000000000000000000000000000000000606482015260840161031c565b604082810151600080547fffffffffffffffffffffffff00000000000000000000000000000000000000001673ffffffffffffffffffffffffffffffffffffffff9283169081179091558251808401909352601f83527f7377617028616464726573732c626f6f6c2c696e743235362c62797465732900602093840152918401517f1f18b371673edaf789f1294779860fb7f197b936e2358a9ded3d78b4099e834f917f0000000000000000000000000000000000000000000000000000000000000000917f000000000000000000000000000000000000000000000000000000000000000082169188169190911090610b4290610fcb565b604080518082019091527fffffffffffffffffffffffffffffffffffffffff00000000000000000000000060608a811b8216818401527f0000000000000000000000000000000000000000000000000000000000000000901b1660748201528060888101604080517fffffffffffffffffffffffffffffffffffffffffffffffffffffffffffffffe08184030181529181529082523060209283015251610bec92918991016117f6565b604080517fffffffffffffffffffffffffffffffffffffffffffffffffffffffffffffffe081840301815290829052610c2a94939291602401611840565b604080517fffffffffffffffffffffffffffffffffffffffffffffffffffffffffffffffe08184030181529181526020820180517bffffffffffffffffffffffffffffffffffffffffffffffffffffffff167fffffffff00000000000000000000000000000000000000000000000000000000909416939093179092529051610cb39190611887565b6000604051808303816000865af19150503d8060008114610cf0576040519150601f19603f3d011682016040523d82523d6000602084013e610cf5565b606091505b5050600080547fffffffffffffffffffffffff000000000000000000000000000000000000000016905550505050565b600080610d32838261107d565b9150610d3f83601461107d565b9050915091565b600080821215610db2576040517f08c379a000000000000000000000000000000000000000000000000000000000815260206004820181905260248201527f53616665436173743a2076616c7565206d75737420626520706f736974697665604482015260640161031c565b5090565b6000610e18826040518060400160405280602081526020017f5361666545524332303a206c6f772d6c6576656c2063616c6c206661696c65648152508573ffffffffffffffffffffffffffffffffffffffff166111879092919063ffffffff16565b8051909150156105525780806020019051810190610e3691906118a3565b610552576040517f08c379a000000000000000000000000000000000000000000000000000000000815260206004820152602a60248201527f5361666545524332303a204552433230206f7065726174696f6e20646964206e60448201527f6f74207375636365656400000000000000000000000000000000000000000000606482015260840161031c565b60008085831015610f2f576040517f08c379a000000000000000000000000000000000000000000000000000000000815260206004820152601e60248201527f536d6172646578506169723a20494e56414c49445f54494d455354414d500000604482015260640161031c565b85600003610f41575086905085610fc0565b828603610f52575083905082610fc0565b6000610f69610f61888661173a565b61012c61119e565b899350905061012c610f7b8983611723565b878588610f8a8661012c61173a565b610f949190611723565b610f9e9190611723565b610fa8919061174d565b610fb291906118c5565b610fbc919061174d565b9150505b965096945050505050565b60007f7fffffffffffffffffffffffffffffffffffffffffffffffffffffffffffffff821115610db2576040517f08c379a000000000000000000000000000000000000000000000000000000000815260206004820152602860248201527f53616665436173743a2076616c756520646f65736e27742066697420696e206160448201527f6e20696e74323536000000000000000000000000000000000000000000000000606482015260840161031c565b60008161108b8160146118c5565b10156110f3576040517f08c379a000000000000000000000000000000000000000000000000000000000815260206004820152601260248201527f746f416464726573735f6f766572666c6f770000000000000000000000000000604482015260640161031c565b6110fe8260146118c5565b83511015611168576040517f08c379a000000000000000000000000000000000000000000000000000000000815260206004820152601560248201527f746f416464726573735f6f75744f66426f756e64730000000000000000000000604482015260640161031c565b50818101602001516c0100000000000000000000000090045b92915050565b606061119684846000856111b6565b949350505050565b60008183106111ad57816111af565b825b9392505050565b606082471015611248576040517f08c379a000000000000000000000000000000000000000000000000000000000815260206004820152602660248201527f416464726573733a20696e73756666696369656e742062616c616e636520666f60448201527f722063616c6c0000000000000000000000000000000000000000000000000000606482015260840161031c565b6000808673ffffffffffffffffffffffffffffffffffffffff1685876040516112719190611887565b60006040518083038185875af1925050503d80600081146112ae576040519150601f19603f3d011682016040523d82523d6000602084013e6112b3565b606091505b50915091506112c4878383876112cf565b979650505050505050565b6060831561136557825160000361135e5773ffffffffffffffffffffffffffffffffffffffff85163b61135e576040517f08c379a000000000000000000000000000000000000000000000000000000000815260206004820152601d60248201527f416464726573733a2063616c6c20746f206e6f6e2d636f6e7472616374000000604482015260640161031c565b5081611196565b611196838381511561137a5781518083602001fd5b806040517f08c379a000000000000000000000000000000000000000000000000000000000815260040161031c91906118d8565b73ffffffffffffffffffffffffffffffffffffffff8116811461026457600080fd5b600080604083850312156113e357600080fd5b82356113ee816113ae565b915060208301356113fe816113ae565b809150509250929050565b6000806000806060858703121561141f57600080fd5b8435935060208501359250604085013567ffffffffffffffff8082111561144557600080fd5b818701915087601f83011261145957600080fd5b81358181111561146857600080fd5b88602082850101111561147a57600080fd5b95989497505060200194505050565b60006020828403121561149b57600080fd5b5051919050565b7f4e487b7100000000000000000000000000000000000000000000000000000000600052604160045260246000fd5b6040805190810167ffffffffffffffff811182821017156114f4576114f46114a2565b60405290565b604051601f82017fffffffffffffffffffffffffffffffffffffffffffffffffffffffffffffffe016810167ffffffffffffffff81118282101715611541576115416114a2565b604052919050565b8035611554816113ae565b919050565b6000806040838503121561156c57600080fd5b823567ffffffffffffffff8082111561158457600080fd5b908401906040828703121561159857600080fd5b6115a06114d1565b8235828111156115af57600080fd5b8301601f810188136115c057600080fd5b80356020848211156115d4576115d46114a2565b611604817fffffffffffffffffffffffffffffffffffffffffffffffffffffffffffffffe0601f850116016114fa565b9450818552898183850101111561161a57600080fd5b81818401828701376000818387010152848452611638818701611549565b84820152929997909201359750505050505050565b7f4e487b7100000000000000000000000000000000000000000000000000000000600052601160045260246000fd5b60007f800000000000000000000000000000000000000000000000000000000000000082036116ad576116ad61164d565b5060000390565b6000602082840312156116c657600080fd5b81516111af816113ae565b600080604083850312156116e457600080fd5b505080516020909101519092909150565b60008060006060848603121561170a57600080fd5b8351925060208401519150604084015190509250925092565b80820281158282048414176111815761118161164d565b818103818111156111815761118161164d565b600082611783577f4e487b7100000000000000000000000000000000000000000000000000000000600052601260045260246000fd5b500490565b60005b838110156117a357818101518382015260200161178b565b50506000910152565b600081518084526117c4816020860160208601611788565b601f017fffffffffffffffffffffffffffffffffffffffffffffffffffffffffffffffe0169290920160200192915050565b604081526000835160408084015261181160808401826117ac565b60209586015173ffffffffffffffffffffffffffffffffffffffff166060850152929094019290925292915050565b73ffffffffffffffffffffffffffffffffffffffff85168152831515602082015282604082015260806060820152600061187d60808301846117ac565b9695505050505050565b60008251611899818460208701611788565b9190910192915050565b6000602082840312156118b557600080fd5b815180151581146111af57600080fd5b808201808211156111815761118161164d565b6020815260006111af60208301846117ac56fea164736f6c6343000811000a",
  "devdoc": {
    "kind": "dev",
    "methods": {
      "executeWork(address,address)": {
        "params": {
          "_token0": "token to be converted to sdex",
          "_token1": "token to be converted to sdex"
        }
      },
      "smardexSwapCallback(int256,int256,bytes)": {
        "params": {
          "_amount0Delta": "amount of token0 for the swap (negative is incoming, positive is required to pay to pair)",
          "_amount1Delta": "amount of token1 for the swap (negative is incoming, positive is required to pay to pair)",
          "_data": "for Router path and payer for the swap (see router for details)"
        }
      }
    },
    "stateVariables": {
      "factory": {
        "return": "factory address",
        "returns": {
          "_0": "factory address"
        }
      },
      "smardexToken": {
        "return": "smardexToken address",
        "returns": {
          "_0": "smardexToken address"
        }
      },
      "stakingAddress": {
        "return": "staking address",
        "returns": {
          "_0": "staking address"
        }
      }
    },
    "title": "AutoSwapper",
    "version": 1
  },
  "userdoc": {
    "kind": "user",
    "methods": {
      "executeWork(address,address)": {
        "notice": "public function for executing swaps on tokens and send them to staking contract will be called from a Smardex Pair on mint and burn, and can be forced call by anyone"
      },
      "factory()": {
        "notice": "return the factory address"
      },
      "smardexSwapCallback(int256,int256,bytes)": {
        "notice": "callback data for swap"
      },
      "smardexToken()": {
        "notice": "return the smardexToken address"
      },
      "stakingAddress()": {
        "notice": "return the staking address"
      },
      "transferTokens()": {
        "notice": "transfer SDEX from here to staking contract"
      }
    },
    "notice": "AutoSwapper makes it automatic and/or public to get fees from Smardex and convert it to tokens for staking",
    "version": 1
  },
  "storageLayout": {
    "storage": [
      {
        "astId": 13333,
        "contract": "contracts/rewards/AutoSwapper.sol:AutoSwapper",
        "label": "cachedPair",
        "offset": 0,
        "slot": "0",
        "type": "t_contract(ISmardexPair)6888"
      }
    ],
    "types": {
      "t_contract(ISmardexPair)6888": {
        "encoding": "inplace",
        "label": "contract ISmardexPair",
        "numberOfBytes": "20"
      }
    }
  }
}