{
  "address": "0x25c4b95F00a01D3739815F026C52126F44034837",
  "abi": [
    {
      "inputs": [
        {
          "internalType": "address",
          "name": "_farmingOwner",
          "type": "address"
        },
        {
          "internalType": "contract IERC20",
          "name": "_smardexToken",
          "type": "address"
        },
        {
          "internalType": "uint256",
          "name": "_startFarmingCampaign",
          "type": "uint256"
        }
      ],
      "stateMutability": "nonpayable",
      "type": "constructor"
    },
    {
      "inputs": [],
      "name": "farming",
      "outputs": [
        {
          "internalType": "contract IFarmingRange",
          "name": "",
          "type": "address"
        }
      ],
      "stateMutability": "view",
      "type": "function"
    },
    {
      "inputs": [
        {
          "internalType": "uint256",
          "name": "_campaignId",
          "type": "uint256"
        }
      ],
      "name": "resetAllowance",
      "outputs": [],
      "stateMutability": "nonpayable",
      "type": "function"
    },
    {
      "inputs": [],
      "name": "staking",
      "outputs": [
        {
          "internalType": "contract IStaking",
          "name": "",
          "type": "address"
        }
      ],
      "stateMutability": "view",
      "type": "function"
    }
  ],
  "transactionHash": "0xc5746289db0a018481c6ebd35a7de3e308f758baed89caa5ce3fd74c9c544f9b",
  "args": [
    "0xcaEc63ce78a0D4DAb2b5112295789A542A0fdAee",
    "0x5DE8ab7E27f6E7A1fFf3E5B337584Aa43961BEeF",
    0
  ],
  "numDeployments": 1,
  "solcInputHash": "c0e549eb0e3b2dac00d522c9d11717e8",
  "bytecode": "0x60c060405234801561001057600080fd5b5060405161666138038061666183398101604081905261002f9161028a565b3060405161003c90610258565b6001600160a01b039091168152602001604051809103906000f080158015610068573d6000803e3d6000fd5b506001600160a01b0316608081905260405183919061008690610265565b6001600160a01b03928316815291166020820152604001604051809103906000f0801580156100b9573d6000803e3d6000fd5b506001600160a01b0390811660a0819052608051604051631027803f60e21b815260048101929092528483166024830152604482018490529091169063409e00fc90606401600060405180830381600087803b15801561011857600080fd5b505af115801561012c573d6000803e3d6000fd5b5050505060a0516001600160a01b031663c0939f496040518163ffffffff1660e01b8152600401600060405180830381600087803b15801561016d57600080fd5b505af1158015610181573d6000803e3d6000fd5b5050608051604080518082018252601a81527f7472616e736665724f776e65727368697028616464726573732900000000000060209182015281516001600160a01b03898116602480840191909152845180840390910181526044909201845291810180516001600160e01b031663f2fde38b60e01b17905291519216935061020b9250906102cd565b6000604051808303816000865af19150503d8060008114610248576040519150601f19603f3d011682016040523d82523d6000602084013e61024d565b606091505b5050505050506102fc565b61381f806107b983390190565b61268980613fd883390190565b6001600160a01b038116811461028757600080fd5b50565b60008060006060848603121561029f57600080fd5b83516102aa81610272565b60208501519093506102bb81610272565b80925050604084015190509250925092565b6000825160005b818110156102ee57602081860181015185830152016102d4565b506000920191825250919050565b60805160a0516104866103336000396000604b015260008181609b0152818160d40152818161022501526102e401526104866000f3fe608060405234801561001057600080fd5b50600436106100415760003560e01c80634cf088d9146100465780634e3ad80f14610096578063eee4f11b146100bd575b600080fd5b61006d7f000000000000000000000000000000000000000000000000000000000000000081565b60405173ffffffffffffffffffffffffffffffffffffffff909116815260200160405180910390f35b61006d7f000000000000000000000000000000000000000000000000000000000000000081565b6100d06100cb366004610393565b6100d2565b005b7f000000000000000000000000000000000000000000000000000000000000000073ffffffffffffffffffffffffffffffffffffffff16634ad7ce806040518163ffffffff1660e01b8152600401602060405180830381865afa15801561013d573d6000803e3d6000fd5b505050506040513d601f19601f8201168201806040525081019061016191906103ac565b81106101f3576040517f08c379a000000000000000000000000000000000000000000000000000000000815260206004820152602960248201527f526577617264486f6c6465723a63616d706169676e49643a77726f6e6720636160448201527f6d706169676e2049440000000000000000000000000000000000000000000000606482015260840160405180910390fd5b6040517fbb2238ec000000000000000000000000000000000000000000000000000000008152600481018290526000907f000000000000000000000000000000000000000000000000000000000000000073ffffffffffffffffffffffffffffffffffffffff169063bb2238ec9060240160e060405180830381865afa158015610281573d6000803e3d6000fd5b505050506040513d601f19601f820116820180604052508101906102a591906103ee565b50506040517f095ea7b300000000000000000000000000000000000000000000000000000000815273ffffffffffffffffffffffffffffffffffffffff7f0000000000000000000000000000000000000000000000000000000000000000811660048301527fffffffffffffffffffffffffffffffffffffffffffffffffffffffffffffffff6024830152949650938616945063095ea7b393604401925061034b915050565b6020604051808303816000875af115801561036a573d6000803e3d6000fd5b505050506040513d601f19601f8201168201806040525081019061038e9190610450565b505050565b6000602082840312156103a557600080fd5b5035919050565b6000602082840312156103be57600080fd5b5051919050565b805173ffffffffffffffffffffffffffffffffffffffff811681146103e957600080fd5b919050565b600080600080600080600060e0888a03121561040957600080fd5b610412886103c5565b9650610420602089016103c5565b604089015160608a015160808b015160a08c015160c0909c01519a9d939c50919a90999198509650945092505050565b60006020828403121561046257600080fd5b8151801515811461047257600080fd5b939250505056fea164736f6c6343000811000a60806040523480156200001157600080fd5b506040516200381f3803806200381f8339810160408190526200003491620000be565b6200003f336200006e565b600180556034600555600680546001600160a01b0319166001600160a01b0392909216919091179055620000f0565b600080546001600160a01b038381166001600160a01b0319831681178455604051919092169283917f8be0079c531659141344cd1fd0a4f28419497f9722a3daafe3b4186f6b6457e09190a35050565b600060208284031215620000d157600080fd5b81516001600160a01b0381168114620000e957600080fd5b9392505050565b61371f80620001006000396000f3fe608060405234801561001057600080fd5b50600436106101e45760003560e01c80635d14b06f1161010f5780639a63bc16116100a2578063e2bbb15811610071578063e2bbb1581461049f578063eebdced5146104b2578063f2fde38b146104ba578063fa8f5f19146104cd57600080fd5b80639a63bc1614610406578063bb2238ec14610419578063cdc8c93014610479578063cef7042d1461048c57600080fd5b80638d48aff0116100de5780638d48aff0146103905780638da5cb5b146103a357806393f1a40b146103c157806398969e82146103f357600080fd5b80635d14b06f1461034f578063715018a6146103625780637bafb0291461036a57806380637e891461037d57600080fd5b80633bbda19b11610187578063441a3e7011610156578063441a3e70146103015780634ad7ce80146103145780634ae56bae1461031c5780635312ea8e1461033c57600080fd5b80633bbda19b146102c0578063409e00fc146102d357806341ef1563146102e657806342ee0aba146102ee57600080fd5b8063153ee554116101c3578063153ee554146102725780632ea807c51461028757806330d78fda1461029a57806333824b87146102ad57600080fd5b8062d74850146101e95780630f4ef8a61461020557806310f7a6af1461024a575b600080fd5b6101f260055481565b6040519081526020015b60405180910390f35b6006546102259073ffffffffffffffffffffffffffffffffffffffff1681565b60405173ffffffffffffffffffffffffffffffffffffffff90911681526020016101fc565b61025d610258366004612fa6565b6104e0565b604080519283526020830191909152016101fc565b610285610280366004612fea565b61051c565b005b610285610295366004613007565b61059e565b6102856102a8366004613041565b610960565b6102856102bb3660046130af565b6109e8565b6102856102ce366004613114565b610a25565b6102856102e136600461318e565b610b1c565b610285610d39565b6102856102fc3660046132ac565b610dbe565b61028561030f366004612fa6565b610ee0565b6003546101f2565b6101f261032a3660046130af565b60009081526002602052604090205490565b61028561034a3660046130af565b610efb565b61028561035d36600461333e565b610fd0565b610285611020565b6101f2610378366004613007565b611034565b61028561038b3660046130af565b61107d565b6101f261039e3660046130af565b6112fb565b60005473ffffffffffffffffffffffffffffffffffffffff16610225565b61025d6103cf366004613380565b60046020908152600092835260408084209091529082529020805460019091015482565b6101f2610401366004613380565b61130d565b6101f26104143660046130af565b61134f565b61042c6104273660046130af565b61135b565b6040805173ffffffffffffffffffffffffffffffffffffffff9889168152979096166020880152948601939093526060850191909152608084015260a083015260c082015260e0016101fc565b6102856104873660046133b0565b6113c4565b61028561049a3660046130af565b611856565b6102856104ad366004612fa6565b611870565b6102856119ed565b6102856104c8366004612fea565b611a27565b6102856104db3660046133e2565b611adb565b600260205281600052604060002081815481106104fc57600080fd5b600091825260209091206002909102018054600190910154909250905082565b610524611cd7565b600680547fffffffffffffffffffffffff00000000000000000000000000000000000000001673ffffffffffffffffffffffffffffffffffffffff83169081179091556040519081527fc05fa79926cd5600b1cc95c8d9d908b7685d3f058c34ea011f8ae3490968ad30906020015b60405180910390a150565b6105a6611cd7565b600083815260026020526040812060038054919291869081106105cb576105cb6134a6565b9060005260206000209060070201905060055482805490501061069b576040517f08c379a000000000000000000000000000000000000000000000000000000000815260206004820152604160248201527f4661726d696e6752616e67653a3a616464526577617264496e666f3a3a72657760448201527f61726420696e666f206c656e677468206578636565647320746865206c696d6960648201527f7400000000000000000000000000000000000000000000000000000000000000608482015260a4015b60405180910390fd5b815415806106db57508154439083906106b690600190613504565b815481106106c6576106c66134a6565b90600052602060002090600202016000015410155b610767576040517f08c379a000000000000000000000000000000000000000000000000000000000815260206004820152603060248201527f4661726d696e6752616e67653a3a616464526577617264496e666f3a3a72657760448201527f61726420706572696f6420656e646564000000000000000000000000000000006064820152608401610692565b815415806107a6575081548490839061078290600190613504565b81548110610792576107926134a6565b906000526020600020906002020160000154105b610832576040517f08c379a000000000000000000000000000000000000000000000000000000000815260206004820152602d60248201527f4661726d696e6752616e67653a3a616464526577617264496e666f3a3a62616460448201527f206e657720656e64626c6f636b000000000000000000000000000000000000006064820152608401610692565b815460009015610873578254839061084c90600190613504565b8154811061085c5761085c6134a6565b906000526020600020906002020160000154610879565b81600201545b905060006108878287613504565b905060006108958287613517565b60018501549091506108be9073ffffffffffffffffffffffffffffffffffffffff16828a611d58565b8084600601546108ce919061352e565b6006850155604080518082019091528781526020808201888152875460018181018a5560008a815293909320935160029091029093019283555191810191909155855461091b9190613504565b60408051898152602081018990528a917fad90731bd0d97445f5af66088f3adebf343c520c20e033cc42f93b124258cdc2910160405180910390a35050505050505050565b6109d560038881548110610976576109766134a6565b600091825260209091206007909102015473ffffffffffffffffffffffffffffffffffffffff163330886109aa57896109cc565b7fffffffffffffffffffffffffffffffffffffffffffffffffffffffffffffffff5b88888888611f37565b6109df8787611870565b50505050505050565b6109f0611cd7565b60058190556040518181527fb64f58843e750a8bea7135ef396cf0a7790bfc9a8f43f11ac0e0aacc1b5787ba90602001610593565b610a2d611cd7565b828114610abc576040517f08c379a000000000000000000000000000000000000000000000000000000000815260206004820152603860248201527f4661726d696e6752616e67653a3a6164645265776172644d756c7469706c653a60448201527f3a77726f6e6720706172616d6574657273206c656e67746800000000000000006064820152608401610692565b60005b83811015610b1457610b0286868684818110610add57610add6134a6565b90506020020135858585818110610af657610af66134a6565b9050602002013561059e565b80610b0c81613541565b915050610abf565b505050505050565b610b24611cd7565b6040805160e08101825273ffffffffffffffffffffffffffffffffffffffff8086168252848116602083019081529282018481526060830185815260006080850181815260a0860182815260c08701838152600380546001818101835595829052985160079099027fc2575a0e9e593c00f959f8c92f12db2869c3395a3b0502d05e2516446f71f85b810180549a8a167fffffffffffffffffffffffff00000000000000000000000000000000000000009b8c1617905599517fc2575a0e9e593c00f959f8c92f12db2869c3395a3b0502d05e2516446f71f85c8b0180549190991699169890981790965593517fc2575a0e9e593c00f959f8c92f12db2869c3395a3b0502d05e2516446f71f85d88015591517fc2575a0e9e593c00f959f8c92f12db2869c3395a3b0502d05e2516446f71f85e87015590517fc2575a0e9e593c00f959f8c92f12db2869c3395a3b0502d05e2516446f71f85f86015590517fc2575a0e9e593c00f959f8c92f12db2869c3395a3b0502d05e2516446f71f86085015590517fc2575a0e9e593c00f959f8c92f12db2869c3395a3b0502d05e2516446f71f8619093019290925554610cdc9190613504565b6040805173ffffffffffffffffffffffffffffffffffffffff8087168252851660208201529081018390527f9b2f18f9a188a5aec4a95ee3164fe234dfbb6117628b2ad1a581939e61c69f4e9060600160405180910390a2505050565b610d41611cd7565b60035460005b81811015610dba5760038181548110610d6257610d626134a6565b9060005260206000209060070201600401546305f5e100610d839190613517565b60038281548110610d9657610d966134a6565b6000918252602090912060046007909202010155610db381613541565b9050610d47565b5050565b610dc6611cd7565b81518351148015610dd8575080518351145b610e64576040517f08c379a000000000000000000000000000000000000000000000000000000000815260206004820152603b60248201527f4661726d696e6752616e67653a3a7570646174655265776172644d756c74697060448201527f6c653a3a77726f6e6720706172616d6574657273206c656e67746800000000006064820152608401610692565b60005b8351811015610ed957610ec785858381518110610e8657610e866134a6565b6020026020010151858481518110610ea057610ea06134a6565b6020026020010151858581518110610eba57610eba6134a6565b60200260200101516113c4565b80610ed181613541565b915050610e67565b5050505050565b610ee86121b7565b610ef2828261222a565b610dba60018055565b610f036121b7565b600060038281548110610f1857610f186134a6565b60009182526020808320858452600482526040808520338652909252922080546007929092029092016005810154909350610f54908290613504565b6005840155600080835560018301558254610f869073ffffffffffffffffffffffffffffffffffffffff163383612422565b604080518281526020810186905233917fbb757047c2b5f3974fe26b7c10f732e7bce710b0952a71082702781e62ae0595910160405180910390a2505050610fcd60018055565b50565b610fd86121b7565b60005b8181101561101657611006838383818110610ff857610ff86134a6565b90506020020135600061222a565b61100f81613541565b9050610fdb565b50610dba60018055565b611028611cd7565b61103260006124f6565b565b6000818410158061104457508284115b1561105157506000611076565b818311611069576110628484613504565b9050611076565b6110738483613504565b90505b9392505050565b611085611cd7565b600081815260026020526040812060038054919291849081106110aa576110aa6134a6565b60009182526020909120835460079092020191508061114b576040517f08c379a000000000000000000000000000000000000000000000000000000000815260206004820152603660248201527f4661726d696e6752616e67653a3a75706461746543616d706169676e7352657760448201527f617264733a3a6e6f20726577617264496e666f4c656e000000000000000000006064820152608401610692565b600083611159600184613504565b81548110611169576111696134a6565b60009182526020909120600290910201805490915043811161120d576040517f08c379a000000000000000000000000000000000000000000000000000000000815260206004820152603760248201527f4661726d696e6752616e67653a3a72656d6f76654c617374526577617264496e60448201527f666f3a3a72657761726420706572696f6420656e6465640000000000000000006064820152608401610692565b6112168661256b565b60018201541561126d5760008061124a611231600187613504565b84431161123e5784611240565b435b60008a8a8961274c565b91509150811561126a578086600601546112649190613504565b60068701555b50505b8480548061127d5761127d613579565b60008281526020812060027fffffffffffffffffffffffffffffffffffffffffffffffffffffffffffffffff9093019283020181815560019081019190915591556112c89084613504565b60405187907f997b6670781194c0d30c477be41ce4ba9b7f3f12417aa00965b9d9f978251e2390600090a3505050505050565b6000611307824361288a565b92915050565b600082815260046020908152604080832073ffffffffffffffffffffffffffffffffffffffff8516845290915281208054600190910154611076918591612989565b60006113078243612ba3565b6003818154811061136b57600080fd5b6000918252602090912060079091020180546001820154600283015460038401546004850154600586015460069096015473ffffffffffffffffffffffffffffffffffffffff9586169750949093169491939092919087565b6113cc611cd7565b600084815260026020526040812060038054919291879081106113f1576113f16134a6565b906000526020600020906007020190506000828681548110611415576114156134a6565b6000918252602090912060029091020180549091506114338861256b565b438110156114c3576040517f08c379a000000000000000000000000000000000000000000000000000000000815260206004820152603360248201527f4661726d696e6752616e67653a3a757064617465526577617264496e666f3a3a60448201527f72657761726420706572696f6420656e646564000000000000000000000000006064820152608401610692565b86156115855785846114d660018a613504565b815481106114e6576114e66134a6565b90600052602060002090600202016000015410611585576040517f08c379a000000000000000000000000000000000000000000000000000000000815260206004820152603060248201527f4661726d696e6752616e67653a3a757064617465526577617264496e666f3a3a60448201527f626164206e657720656e64626c6f636b000000000000000000000000000000006064820152608401610692565b61159087600161352e565b8454111561167a57836115a488600161352e565b815481106115b4576115b46134a6565b906000526020600020906002020160000154861061167a576040517f08c379a000000000000000000000000000000000000000000000000000000000815260206004820152604260248201527f4661726d696e6752616e67653a3a757064617465526577617264496e666f3a3a60448201527f72657761726420706572696f6420656e6420697320696e206e6578742072616e60648201527f6765000000000000000000000000000000000000000000000000000000000000608482015260a401610692565b60008061168b89898989898961274c565b915091508115801561169d5750600081115b156116c85760018501546116c89073ffffffffffffffffffffffffffffffffffffffff16828c611d58565b8288141580156116e55750855489906116e390600190613504565b115b156117d4576000866116f88b600161352e565b81548110611708576117086134a6565b6000918252602082206002909102018054909250906117278683613504565b905060006117358c84613504565b905060008460010154836117499190613517565b90508183866001015461175c9190613517565b61176691906135a8565b6001860181905560009061177a9084613517565b9050818110156117cd576006546117cd9073ffffffffffffffffffffffffffffffffffffffff166117ab8385613504565b60018e015473ffffffffffffffffffffffffffffffffffffffff169190612422565b5050505050505b816117ee578085600601546117e9919061352e565b6117fe565b8085600601546117fe9190613504565b60068601558784556001840187905560408051898152602081018990528a918c917fcd251e3ce758f4da844a7b790619743994a9ce956a4abb78aec611623ae8af5f910160405180910390a350505050505050505050565b61185e6121b7565b6118678161256b565b610fcd60018055565b6118786121b7565b60006003838154811061188d5761188d6134a6565b600091825260208083208684526004825260408085203386529092529220600790910290910191506118be8461256b565b80541561192e576000816001015468056bc75e2d63100000846004015484600001546118ea9190613517565b6118f491906135a8565b6118fe9190613504565b9050801561192c57600183015461192c9073ffffffffffffffffffffffffffffffffffffffff163383612422565b505b821561197d5781546119589073ffffffffffffffffffffffffffffffffffffffff16333086612cc9565b805461196590849061352e565b8155600582015461197790849061352e565b60058301555b6004820154815468056bc75e2d631000009161199891613517565b6119a291906135a8565b6001820155604080518481526020810186905233917f90890809c654f11d6e72a28fa60149770a0d11ec6c92319d6ceb2bb0a4ea1a15910160405180910390a25050610dba60018055565b6119f56121b7565b60035460005b81811015611a1c57611a0c8161256b565b611a1581613541565b90506119fb565b505061103260018055565b611a2f611cd7565b73ffffffffffffffffffffffffffffffffffffffff8116611ad2576040517f08c379a000000000000000000000000000000000000000000000000000000000815260206004820152602660248201527f4f776e61626c653a206e6577206f776e657220697320746865207a65726f206160448201527f64647265737300000000000000000000000000000000000000000000000000006064820152608401610692565b610fcd816124f6565b611ae3611cd7565b8685148015611af157508483145b8015611afc57508481145b611b88576040517f08c379a000000000000000000000000000000000000000000000000000000000815260206004820152603d60248201527f4661726d696e6752616e67653a3a75706461746543616d706169676e7352657760448201527f617264733a3a77726f6e6720726577617264496e666f206c656e6774680000006064820152608401610692565b60005b87811015611ccc57611cba898983818110611ba857611ba86134a6565b90506020020135888884818110611bc157611bc16134a6565b9050602002810190611bd391906135e3565b808060200260200160405190810160405280939291908181526020018383602002808284376000920191909152508a9250899150869050818110611c1957611c196134a6565b9050602002810190611c2b91906135e3565b80806020026020016040519081016040528093929190818152602001838360200280828437600092019190915250899250889150879050818110611c7157611c716134a6565b9050602002810190611c8391906135e3565b80806020026020016040519081016040528093929190818152602001838360200280828437600092019190915250610dbe92505050565b80611cc481613541565b915050611b8b565b505050505050505050565b60005473ffffffffffffffffffffffffffffffffffffffff163314611032576040517f08c379a000000000000000000000000000000000000000000000000000000000815260206004820181905260248201527f4f776e61626c653a2063616c6c6572206973206e6f7420746865206f776e65726044820152606401610692565b6006546040517f23b872dd00000000000000000000000000000000000000000000000000000000815273ffffffffffffffffffffffffffffffffffffffff918216600482015230602482015260448101849052908416906323b872dd906064016020604051808303816000875af1925050508015611e11575060408051601f3d9081017fffffffffffffffffffffffffffffffffffffffffffffffffffffffffffffffe0168201909252611e0e9181019061364b565b60015b611f31576006546040516024810183905273ffffffffffffffffffffffffffffffffffffffff90911690604401604080517fffffffffffffffffffffffffffffffffffffffffffffffffffffffffffffffe08184030181529181526020820180517bffffffffffffffffffffffffffffffffffffffffffffffffffffffff167feee4f11b0000000000000000000000000000000000000000000000000000000017905251611ebf919061368c565b6000604051808303816000865af19150503d8060008114611efc576040519150601f19603f3d011682016040523d82523d6000602084013e611f01565b606091505b5050600654611f2c915073ffffffffffffffffffffffffffffffffffffffff85811691163085612cc9565b505050565b50505050565b6040517f7ecebe0000000000000000000000000000000000000000000000000000000000815273ffffffffffffffffffffffffffffffffffffffff8881166004830152600091908a1690637ecebe0090602401602060405180830381865afa158015611fa7573d6000803e3d6000fd5b505050506040513d601f19601f82011682018060405250810190611fcb91906136a8565b6040517fd505accf00000000000000000000000000000000000000000000000000000000815273ffffffffffffffffffffffffffffffffffffffff8a811660048301528981166024830152604482018990526064820188905260ff8716608483015260a4820186905260c48201859052919250908a169063d505accf9060e401600060405180830381600087803b15801561206557600080fd5b505af1158015612079573d6000803e3d6000fd5b50506040517f7ecebe0000000000000000000000000000000000000000000000000000000000815273ffffffffffffffffffffffffffffffffffffffff8b81166004830152600093508c169150637ecebe0090602401602060405180830381865afa1580156120ec573d6000803e3d6000fd5b505050506040513d601f19601f8201168201806040525081019061211091906136a8565b905061211d82600161352e565b81146121ab576040517f08c379a000000000000000000000000000000000000000000000000000000000815260206004820152602160248201527f5361666545524332303a207065726d697420646964206e6f742073756363656560448201527f64000000000000000000000000000000000000000000000000000000000000006064820152608401610692565b50505050505050505050565b600260015403612223576040517f08c379a000000000000000000000000000000000000000000000000000000000815260206004820152601f60248201527f5265656e7472616e637947756172643a207265656e7472616e742063616c6c006044820152606401610692565b6002600155565b60006003838154811061223f5761223f6134a6565b6000918252602080832086845260048252604080852033865290925292208054600790920290920192508311156122f8576040517f08c379a000000000000000000000000000000000000000000000000000000000815260206004820152602b60248201527f4661726d696e6752616e67653a3a77697468647261773a3a626164207769746860448201527f6472617720616d6f756e740000000000000000000000000000000000000000006064820152608401610692565b6123018461256b565b6000816001015468056bc75e2d63100000846004015484600001546123269190613517565b61233091906135a8565b61233a9190613504565b905080156123685760018301546123689073ffffffffffffffffffffffffffffffffffffffff163383612422565b83156123b657815461237b908590613504565b825582546123a09073ffffffffffffffffffffffffffffffffffffffff163386612422565b8383600501546123b09190613504565b60058401555b6004830154825468056bc75e2d63100000916123d191613517565b6123db91906135a8565b6001830155604080518581526020810187905233917ff279e6a1f5e320cca91135676d9cb6e44ca8a08c0b88342bcdb1144f6511b568910160405180910390a25050505050565b60405173ffffffffffffffffffffffffffffffffffffffff8316602482015260448101829052611f2c9084907fa9059cbb00000000000000000000000000000000000000000000000000000000906064015b604080517fffffffffffffffffffffffffffffffffffffffffffffffffffffffffffffffe08184030181529190526020810180517bffffffffffffffffffffffffffffffffffffffffffffffffffffffff167fffffffff0000000000000000000000000000000000000000000000000000000090931692909217909152612d27565b6000805473ffffffffffffffffffffffffffffffffffffffff8381167fffffffffffffffffffffffff0000000000000000000000000000000000000000831681178455604051919092169283917f8be0079c531659141344cd1fd0a4f28419497f9722a3daafe3b4186f6b6457e09190a35050565b600060038281548110612580576125806134a6565b60009182526020808320858452600282526040808520805482518186028101860190935280835260079095029092019550929091849084015b828210156125ff578382906000526020600020906002020160405180604001604052908160008201548152602001600182015481525050815260200190600101906125b9565b5050505090508160030154431161261557505050565b816005015460000361263d5761262b8343612ba3565b431115611f2c57436003830155505050565b60005b8151811015611f31576000612677846003015443858581518110612666576126666134a6565b602002602001015160000151611034565b905080600003612687575061273c565b828281518110612699576126996134a6565b6020026020010151600001514311156126d4578282815181106126be576126be6134a6565b60209081029190910101515160038501556126db565b4360038501555b83600501548383815181106126f2576126f26134a6565b602002602001015160200151826127099190613517565b61271c9068056bc75e2d63100000613517565b61272691906135a8565b8460040154612735919061352e565b6004850155505b61274581613541565b9050612640565b600080808815612789578561276260018b613504565b81548110612772576127726134a6565b90600052602060002090600202016000015461278f565b84600201545b905060008143116127a057816127a2565b435b905060008286600001546127b69190613504565b905060006127c4838c613504565b60018801549091506000816127d98787613504565b6127e39190613517565b905060006127f18584613517565b905060006127ff858f613517565b905061280b838261352e565b821199508961282e578161281f848361352e565b6128299190613504565b612843565b826128398284613504565b6128439190613504565b985089156128775760065460018d01546128779173ffffffffffffffffffffffffffffffffffffffff91821691168b612422565b5050505050505050965096945050505050565b600082815260026020908152604080832080548251818502810185019093528083528493849084015b828210156128f9578382906000526020600020906002020160405180604001604052908160008201548152602001600182015481525050815260200190600101906128b3565b505082519293505050600081900361291657600092505050611307565b60005b8181101561297d57828181518110612933576129336134a6565b602002602001015160000151851161296d57828181518110612957576129576134a6565b6020026020010151602001519350505050611307565b61297681613541565b9050612919565b50600095945050505050565b6000806003858154811061299f5761299f6134a6565b600091825260208083206040805160e0810182526007909402909101805473ffffffffffffffffffffffffffffffffffffffff908116855260018201541684840152600280820154858401526003820154606086015260048201546080860152600582015460a086015260069091015460c08501528985528252808420805482518185028101850190935280835293955090929091849084015b82821015612a7f57838290600052602060002090600202016040518060400160405290816000820154815260200160018201548152505081526020019060010190612a39565b505050509050600082608001519050826060015143118015612aa4575060a083015115155b15612b6f57606083015160005b8351811015612b6c576000612ad38343878581518110612666576126666134a6565b905080600003612ae35750612b5c565b848281518110612af557612af56134a6565b60200260200101516000015192508560a00151858381518110612b1a57612b1a6134a6565b60200260200101516020015182612b319190613517565b612b449068056bc75e2d63100000613517565b612b4e91906135a8565b612b58908561352e565b9350505b612b6581613541565b9050612ab1565b50505b8468056bc75e2d63100000612b848389613517565b612b8e91906135a8565b612b989190613504565b979650505050505050565b600082815260026020908152604080832080548251818502810185019093528083528493849084015b82821015612c1257838290600052602060002090600202016040518060400160405290816000820154815260200160018201548152505081526020019060010190612bcc565b5050825192935050506000819003612c2f57600092505050611307565b60005b81811015612c9657828181518110612c4c57612c4c6134a6565b6020026020010151600001518511612c8657828181518110612c7057612c706134a6565b6020026020010151600001519350505050611307565b612c8f81613541565b9050612c32565b5081612ca3600183613504565b81518110612cb357612cb36134a6565b6020026020010151600001519250505092915050565b60405173ffffffffffffffffffffffffffffffffffffffff80851660248301528316604482015260648101829052611f319085907f23b872dd0000000000000000000000000000000000000000000000000000000090608401612474565b6000612d89826040518060400160405280602081526020017f5361666545524332303a206c6f772d6c6576656c2063616c6c206661696c65648152508573ffffffffffffffffffffffffffffffffffffffff16612e339092919063ffffffff16565b805190915015611f2c5780806020019051810190612da7919061364b565b611f2c576040517f08c379a000000000000000000000000000000000000000000000000000000000815260206004820152602a60248201527f5361666545524332303a204552433230206f7065726174696f6e20646964206e60448201527f6f742073756363656564000000000000000000000000000000000000000000006064820152608401610692565b60606110738484600085856000808673ffffffffffffffffffffffffffffffffffffffff168587604051612e67919061368c565b60006040518083038185875af1925050503d8060008114612ea4576040519150601f19603f3d011682016040523d82523d6000602084013e612ea9565b606091505b5091509150612eba87838387612ec7565b925050505b949350505050565b60608315612f5d578251600003612f565773ffffffffffffffffffffffffffffffffffffffff85163b612f56576040517f08c379a000000000000000000000000000000000000000000000000000000000815260206004820152601d60248201527f416464726573733a2063616c6c20746f206e6f6e2d636f6e74726163740000006044820152606401610692565b5081612ebf565b612ebf8383815115612f725781518083602001fd5b806040517f08c379a000000000000000000000000000000000000000000000000000000000815260040161069291906136c1565b60008060408385031215612fb957600080fd5b50508035926020909101359150565b73ffffffffffffffffffffffffffffffffffffffff81168114610fcd57600080fd5b600060208284031215612ffc57600080fd5b813561107681612fc8565b60008060006060848603121561301c57600080fd5b505081359360208301359350604090920135919050565b8015158114610fcd57600080fd5b600080600080600080600060e0888a03121561305c57600080fd5b8735965060208801359550604088013561307581613033565b945060608801359350608088013560ff8116811461309257600080fd5b9699959850939692959460a0840135945060c09093013592915050565b6000602082840312156130c157600080fd5b5035919050565b60008083601f8401126130da57600080fd5b50813567ffffffffffffffff8111156130f257600080fd5b6020830191508360208260051b850101111561310d57600080fd5b9250929050565b60008060008060006060868803121561312c57600080fd5b85359450602086013567ffffffffffffffff8082111561314b57600080fd5b61315789838a016130c8565b9096509450604088013591508082111561317057600080fd5b5061317d888289016130c8565b969995985093965092949392505050565b6000806000606084860312156131a357600080fd5b83356131ae81612fc8565b925060208401356131be81612fc8565b929592945050506040919091013590565b7f4e487b7100000000000000000000000000000000000000000000000000000000600052604160045260246000fd5b600082601f83011261320f57600080fd5b8135602067ffffffffffffffff8083111561322c5761322c6131cf565b8260051b6040517fffffffffffffffffffffffffffffffffffffffffffffffffffffffffffffffe0603f8301168101818110848211171561326f5761326f6131cf565b60405293845285810183019383810192508785111561328d57600080fd5b83870191505b84821015612b9857813583529183019190830190613293565b600080600080608085870312156132c257600080fd5b84359350602085013567ffffffffffffffff808211156132e157600080fd5b6132ed888389016131fe565b9450604087013591508082111561330357600080fd5b61330f888389016131fe565b9350606087013591508082111561332557600080fd5b50613332878288016131fe565b91505092959194509250565b6000806020838503121561335157600080fd5b823567ffffffffffffffff81111561336857600080fd5b613374858286016130c8565b90969095509350505050565b6000806040838503121561339357600080fd5b8235915060208301356133a581612fc8565b809150509250929050565b600080600080608085870312156133c657600080fd5b5050823594602084013594506040840135936060013592509050565b6000806000806000806000806080898b0312156133fe57600080fd5b883567ffffffffffffffff8082111561341657600080fd5b6134228c838d016130c8565b909a50985060208b013591508082111561343b57600080fd5b6134478c838d016130c8565b909850965060408b013591508082111561346057600080fd5b61346c8c838d016130c8565b909650945060608b013591508082111561348557600080fd5b506134928b828c016130c8565b999c989b5096995094979396929594505050565b7f4e487b7100000000000000000000000000000000000000000000000000000000600052603260045260246000fd5b7f4e487b7100000000000000000000000000000000000000000000000000000000600052601160045260246000fd5b81810381811115611307576113076134d5565b8082028115828204841417611307576113076134d5565b80820180821115611307576113076134d5565b60007fffffffffffffffffffffffffffffffffffffffffffffffffffffffffffffffff8203613572576135726134d5565b5060010190565b7f4e487b7100000000000000000000000000000000000000000000000000000000600052603160045260246000fd5b6000826135de577f4e487b7100000000000000000000000000000000000000000000000000000000600052601260045260246000fd5b500490565b60008083357fffffffffffffffffffffffffffffffffffffffffffffffffffffffffffffffe184360301811261361857600080fd5b83018035915067ffffffffffffffff82111561363357600080fd5b6020019150600581901b360382131561310d57600080fd5b60006020828403121561365d57600080fd5b815161107681613033565b60005b8381101561368357818101518382015260200161366b565b50506000910152565b6000825161369e818460208701613668565b9190910192915050565b6000602082840312156136ba57600080fd5b5051919050565b60208152600082518060208401526136e0816040850160208701613668565b601f017fffffffffffffffffffffffffffffffffffffffffffffffffffffffffffffffe016919091016040019291505056fea164736f6c6343000811000a60c06040526007805460ff191690553480156200001b57600080fd5b5060405162002689380380620026898339810160408190526200003e91620000e7565b6040518060400160405280601481526020017f5374616b656420536d617244657820546f6b656e000000000000000000000000815250604051806040016040528060068152602001650e6e8a6888ab60d31b8152508160039081620000a49190620001cb565b506004620000b38282620001cb565b5050506001600160a01b039182166080521660a05262000297565b6001600160a01b0381168114620000e457600080fd5b50565b60008060408385031215620000fb57600080fd5b82516200010881620000ce565b60208401519092506200011b81620000ce565b809150509250929050565b634e487b7160e01b600052604160045260246000fd5b600181811c908216806200015157607f821691505b6020821081036200017257634e487b7160e01b600052602260045260246000fd5b50919050565b601f821115620001c657600081815260208120601f850160051c81016020861015620001a15750805b601f850160051c820191505b81811015620001c257828155600101620001ad565b5050505b505050565b81516001600160401b03811115620001e757620001e762000126565b620001ff81620001f884546200013c565b8462000178565b602080601f8311600181146200023757600084156200021e5750858301515b600019600386901b1c1916600185901b178555620001c2565b600085815260208120601f198616915b82811015620002685788860151825594840194600190910190840162000247565b5085821015620002875787850151600019600388901b60f8161c191681555b5050505050600190811b01905550565b60805160a051612378620003116000396000818161028a015281816105c801528181610c3301528181610c9a01528181610e2301526112b10152600081816102d601528181610525015281816106b601528181610a4b01528181610af501528181610d800152818161111001526111fb01526123786000f3fe608060405234801561001057600080fd5b50600436106101985760003560e01c80636e28ee66116100e3578063c0939f491161008c578063f3044ac711610066578063f3044ac7146103df578063f3fef3a3146103f2578063fe2ed8b01461040557600080fd5b8063c0939f4914610384578063dd62ed3e1461038c578063eed06a63146103d257600080fd5b8063a457c2d7116100bd578063a457c2d71461034b578063a9059cbb1461035e578063b6b55f251461037157600080fd5b80636e28ee66146102f857806370a082311461030d57806395d89b411461034357600080fd5b806327def4fd116101455780633a98ef391161011f5780633a98ef391461027c5780634e3ad80f14610285578063670b3a0b146102d157600080fd5b806327def4fd14610247578063313ce5671461025a578063395093511461026957600080fd5b80631959a002116101765780631959a002146101f057806323b872dd1461022c57806326c07fd71461023f57600080fd5b806306fdde031461019d578063095ea7b3146101bb57806318160ddd146101de575b600080fd5b6101a561040d565b6040516101b29190612065565b60405180910390f35b6101ce6101c93660046120df565b61049f565b60405190151581526020016101b2565b6002545b6040519081526020016101b2565b6102176101fe366004612109565b6005602052600090815260409020805460019091015482565b604080519283526020830191909152016101b2565b6101ce61023a366004612124565b6104b9565b6101e2600081565b6101e2610255366004612160565b6104dd565b604051601281526020016101b2565b6101ce6102773660046120df565b610665565b6101e260065481565b6102ac7f000000000000000000000000000000000000000000000000000000000000000081565b60405173ffffffffffffffffffffffffffffffffffffffff90911681526020016101b2565b6102ac7f000000000000000000000000000000000000000000000000000000000000000081565b61030b61030636600461218a565b6106b1565b005b6101e261031b366004612109565b73ffffffffffffffffffffffffffffffffffffffff1660009081526020819052604090205490565b6101a561071e565b6101ce6103593660046120df565b61072d565b6101ce61036c3660046120df565b610803565b61030b61037f366004612160565b610811565b61030b610b98565b6101e261039a3660046121ec565b73ffffffffffffffffffffffffffffffffffffffff918216600090815260016020908152604080832093909416825291909152205490565b6007546101ce9060ff1681565b6101e26103ed366004612160565b610d38565b61030b6104003660046120df565b610eb9565b61030b61127b565b60606003805461041c9061221f565b80601f01602080910402602001604051908101604052809291908181526020018280546104489061221f565b80156104955780601f1061046a57610100808354040283529160200191610495565b820191906000526020600020905b81548152906001019060200180831161047857829003601f168201915b5050505050905090565b6000336104ad818585611324565b60019150505b92915050565b6000336104c78582856114d7565b6104d28585856115a8565b506001949350505050565b6040517f70a08231000000000000000000000000000000000000000000000000000000008152306004820152600090819073ffffffffffffffffffffffffffffffffffffffff7f000000000000000000000000000000000000000000000000000000000000000016906370a0823190602401602060405180830381865afa15801561056c573d6000803e3d6000fd5b505050506040513d601f19601f820116820180604052508101906105909190612272565b6040517f98969e82000000000000000000000000000000000000000000000000000000008152600060048201523060248201529091507f000000000000000000000000000000000000000000000000000000000000000073ffffffffffffffffffffffffffffffffffffffff16906398969e8290604401602060405180830381865afa158015610624573d6000803e3d6000fd5b505050506040513d601f19601f820116820180604052508101906106489190612272565b61065290826122ba565b905061065e8382611817565b9392505050565b33600081815260016020908152604080832073ffffffffffffffffffffffffffffffffffffffff871684529091528120549091906104ad90829086906106ac9087906122ba565b611324565b61070d7f00000000000000000000000000000000000000000000000000000000000000003330886106e25789610704565b7fffffffffffffffffffffffffffffffffffffffffffffffffffffffffffffffff5b88888888611850565b61071686610811565b505050505050565b60606004805461041c9061221f565b33600081815260016020908152604080832073ffffffffffffffffffffffffffffffffffffffff87168452909152812054909190838110156107f6576040517f08c379a000000000000000000000000000000000000000000000000000000000815260206004820152602560248201527f45524332303a2064656372656173656420616c6c6f77616e63652062656c6f7760448201527f207a65726f00000000000000000000000000000000000000000000000000000060648201526084015b60405180910390fd5b6104d28286868403611324565b6000336104ad8185856115a8565b60075460ff1615156001146108a8576040517f08c379a000000000000000000000000000000000000000000000000000000000815260206004820152603f60248201527f5374616b696e673a3a69734661726d696e67496e697469616c697a65643a3a4660448201527f61726d696e672063616d706169676e206e6f7420696e697469616c697a65640060648201526084016107ed565b33600090815260056020526040902060010154431161096f576040517f08c379a000000000000000000000000000000000000000000000000000000000815260206004820152604b60248201527f5374616b696e673a3a636865636b55736572426c6f636b3a3a5573657220616c60448201527f72656164792063616c6c6564206465706f736974206f7220776974686472617760648201527f207468697320626c6f636b000000000000000000000000000000000000000000608482015260a4016107ed565b3360009081526005602052604090204360019091015580610a12576040517f08c379a000000000000000000000000000000000000000000000000000000000815260206004820152602a60248201527f5374616b696e673a3a6465706f7369743a3a63616e2774206465706f7369742060448201527f7a65726f20746f6b656e0000000000000000000000000000000000000000000060648201526084016107ed565b610a1a61127b565b6040517f70a082310000000000000000000000000000000000000000000000000000000081523060048201526000907f000000000000000000000000000000000000000000000000000000000000000073ffffffffffffffffffffffffffffffffffffffff16906370a0823190602401602060405180830381865afa158015610aa7573d6000803e3d6000fd5b505050506040513d601f19601f82011682018060405250810190610acb9190612272565b90506000610ad98383611ad0565b9050610b1d73ffffffffffffffffffffffffffffffffffffffff7f000000000000000000000000000000000000000000000000000000000000000016333086611afc565b8060066000828254610b2f91906122ba565b90915550503360009081526005602052604081208054839290610b539084906122ba565b9091555050604080518481526020810183905233917f90890809c654f11d6e72a28fa60149770a0d11ec6c92319d6ceb2bb0a4ea1a15910160405180910390a2505050565b60075460ff1615610c2d57604080517f08c379a00000000000000000000000000000000000000000000000000000000081526020600482015260248101919091527f5374616b696e673a3a696e697469616c697a654661726d696e673a3a4661726d60448201527f696e672063616d706169676e20616c726561647920696e697469616c697a656460648201526084016107ed565b610c59307f00000000000000000000000000000000000000000000000000000000000000006001611324565b610c64306001611bd8565b6040517fe2bbb15800000000000000000000000000000000000000000000000000000000815260006004820152600160248201527f000000000000000000000000000000000000000000000000000000000000000073ffffffffffffffffffffffffffffffffffffffff169063e2bbb15890604401600060405180830381600087803b158015610cf357600080fd5b505af1158015610d07573d6000803e3d6000fd5b5050600780547fffffffffffffffffffffffffffffffffffffffffffffffffffffffffffffff001660011790555050565b6040517f70a08231000000000000000000000000000000000000000000000000000000008152306004820152600090819073ffffffffffffffffffffffffffffffffffffffff7f000000000000000000000000000000000000000000000000000000000000000016906370a0823190602401602060405180830381865afa158015610dc7573d6000803e3d6000fd5b505050506040513d601f19601f82011682018060405250810190610deb9190612272565b6040517f98969e82000000000000000000000000000000000000000000000000000000008152600060048201523060248201529091507f000000000000000000000000000000000000000000000000000000000000000073ffffffffffffffffffffffffffffffffffffffff16906398969e8290604401602060405180830381865afa158015610e7f573d6000803e3d6000fd5b505050506040513d601f19601f82011682018060405250810190610ea39190612272565b610ead90826122ba565b905061065e8382611ad0565b60075460ff161515600114610f50576040517f08c379a000000000000000000000000000000000000000000000000000000000815260206004820152603f60248201527f5374616b696e673a3a69734661726d696e67496e697469616c697a65643a3a4660448201527f61726d696e672063616d706169676e206e6f7420696e697469616c697a65640060648201526084016107ed565b336000908152600560205260409020600101544311611017576040517f08c379a000000000000000000000000000000000000000000000000000000000815260206004820152604b60248201527f5374616b696e673a3a636865636b55736572426c6f636b3a3a5573657220616c60448201527f72656164792063616c6c6564206465706f736974206f7220776974686472617760648201527f207468697320626c6f636b000000000000000000000000000000000000000000608482015260a4016107ed565b33600090815260056020526040902043600190910155801580159061104b5750336000908152600560205260409020548111155b6110d7576040517f08c379a000000000000000000000000000000000000000000000000000000000815260206004820152603f60248201527f5374616b696e673a3a77697468647261773a3a63616e2774207769746864726160448201527f77206d6f7265207468616e207573657220736861726573206f72207a65726f0060648201526084016107ed565b6110df61127b565b6040517f70a082310000000000000000000000000000000000000000000000000000000081523060048201526000907f000000000000000000000000000000000000000000000000000000000000000073ffffffffffffffffffffffffffffffffffffffff16906370a0823190602401602060405180830381865afa15801561116c573d6000803e3d6000fd5b505050506040513d601f19601f820116820180604052508101906111909190612272565b9050600061119e8383611817565b336000908152600560205260408120805492935085929091906111c29084906122cd565b9250508190555082600660008282546111db91906122cd565b90915550611222905073ffffffffffffffffffffffffffffffffffffffff7f0000000000000000000000000000000000000000000000000000000000000000168583611ccb565b604080518281526020810185905273ffffffffffffffffffffffffffffffffffffffff86169133917ff341246adaac6f497bc2a656f546ab9e182111d630394f0c57c710a59a2cb567910160405180910390a350505050565b6040517f441a3e7000000000000000000000000000000000000000000000000000000000815260006004820181905260248201527f000000000000000000000000000000000000000000000000000000000000000073ffffffffffffffffffffffffffffffffffffffff169063441a3e7090604401600060405180830381600087803b15801561130a57600080fd5b505af115801561131e573d6000803e3d6000fd5b50505050565b73ffffffffffffffffffffffffffffffffffffffff83166113c6576040517f08c379a0000000000000000000000000000000000000000000000000000000008152602060048201526024808201527f45524332303a20617070726f76652066726f6d20746865207a65726f2061646460448201527f726573730000000000000000000000000000000000000000000000000000000060648201526084016107ed565b73ffffffffffffffffffffffffffffffffffffffff8216611469576040517f08c379a000000000000000000000000000000000000000000000000000000000815260206004820152602260248201527f45524332303a20617070726f766520746f20746865207a65726f20616464726560448201527f737300000000000000000000000000000000000000000000000000000000000060648201526084016107ed565b73ffffffffffffffffffffffffffffffffffffffff83811660008181526001602090815260408083209487168084529482529182902085905590518481527f8c5be1e5ebec7d5bd14f71427d1e84f3dd0314c0f7b2291e5b200ac8c7c3b925910160405180910390a3505050565b73ffffffffffffffffffffffffffffffffffffffff8381166000908152600160209081526040808320938616835292905220547fffffffffffffffffffffffffffffffffffffffffffffffffffffffffffffffff811461131e578181101561159b576040517f08c379a000000000000000000000000000000000000000000000000000000000815260206004820152601d60248201527f45524332303a20696e73756666696369656e7420616c6c6f77616e636500000060448201526064016107ed565b61131e8484848403611324565b73ffffffffffffffffffffffffffffffffffffffff831661164b576040517f08c379a000000000000000000000000000000000000000000000000000000000815260206004820152602560248201527f45524332303a207472616e736665722066726f6d20746865207a65726f20616460448201527f647265737300000000000000000000000000000000000000000000000000000060648201526084016107ed565b73ffffffffffffffffffffffffffffffffffffffff82166116ee576040517f08c379a000000000000000000000000000000000000000000000000000000000815260206004820152602360248201527f45524332303a207472616e7366657220746f20746865207a65726f206164647260448201527f657373000000000000000000000000000000000000000000000000000000000060648201526084016107ed565b73ffffffffffffffffffffffffffffffffffffffff8316600090815260208190526040902054818110156117a4576040517f08c379a000000000000000000000000000000000000000000000000000000000815260206004820152602660248201527f45524332303a207472616e7366657220616d6f756e742065786365656473206260448201527f616c616e6365000000000000000000000000000000000000000000000000000060648201526084016107ed565b73ffffffffffffffffffffffffffffffffffffffff848116600081815260208181526040808320878703905593871680835291849020805487019055925185815290927fddf252ad1be2c89b69c2b068fc378daa952ba7f163c4a11628f55a4df523b3ef910160405180910390a361131e565b6000806006541161183957611834670de0b6b3a7640000846122e0565b61065e565b600654611846838561231b565b61065e91906122e0565b6040517f7ecebe0000000000000000000000000000000000000000000000000000000000815273ffffffffffffffffffffffffffffffffffffffff8881166004830152600091908a1690637ecebe0090602401602060405180830381865afa1580156118c0573d6000803e3d6000fd5b505050506040513d601f19601f820116820180604052508101906118e49190612272565b6040517fd505accf00000000000000000000000000000000000000000000000000000000815273ffffffffffffffffffffffffffffffffffffffff8a811660048301528981166024830152604482018990526064820188905260ff8716608483015260a4820186905260c48201859052919250908a169063d505accf9060e401600060405180830381600087803b15801561197e57600080fd5b505af1158015611992573d6000803e3d6000fd5b50506040517f7ecebe0000000000000000000000000000000000000000000000000000000000815273ffffffffffffffffffffffffffffffffffffffff8b81166004830152600093508c169150637ecebe0090602401602060405180830381865afa158015611a05573d6000803e3d6000fd5b505050506040513d601f19601f82011682018060405250810190611a299190612272565b9050611a368260016122ba565b8114611ac4576040517f08c379a000000000000000000000000000000000000000000000000000000000815260206004820152602160248201527f5361666545524332303a207065726d697420646964206e6f742073756363656560448201527f640000000000000000000000000000000000000000000000000000000000000060648201526084016107ed565b50505050505050505050565b60008060065411611aed57611834670de0b6b3a76400008461231b565b8160065484611846919061231b565b60405173ffffffffffffffffffffffffffffffffffffffff8085166024830152831660448201526064810182905261131e9085907f23b872dd00000000000000000000000000000000000000000000000000000000906084015b604080517fffffffffffffffffffffffffffffffffffffffffffffffffffffffffffffffe08184030181529190526020810180517bffffffffffffffffffffffffffffffffffffffffffffffffffffffff167fffffffff0000000000000000000000000000000000000000000000000000000090931692909217909152611d26565b73ffffffffffffffffffffffffffffffffffffffff8216611c55576040517f08c379a000000000000000000000000000000000000000000000000000000000815260206004820152601f60248201527f45524332303a206d696e7420746f20746865207a65726f20616464726573730060448201526064016107ed565b8060026000828254611c6791906122ba565b909155505073ffffffffffffffffffffffffffffffffffffffff8216600081815260208181526040808320805486019055518481527fddf252ad1be2c89b69c2b068fc378daa952ba7f163c4a11628f55a4df523b3ef910160405180910390a35050565b60405173ffffffffffffffffffffffffffffffffffffffff8316602482015260448101829052611d219084907fa9059cbb0000000000000000000000000000000000000000000000000000000090606401611b56565b505050565b6000611d88826040518060400160405280602081526020017f5361666545524332303a206c6f772d6c6576656c2063616c6c206661696c65648152508573ffffffffffffffffffffffffffffffffffffffff16611e329092919063ffffffff16565b805190915015611d215780806020019051810190611da69190612332565b611d21576040517f08c379a000000000000000000000000000000000000000000000000000000000815260206004820152602a60248201527f5361666545524332303a204552433230206f7065726174696f6e20646964206e60448201527f6f7420737563636565640000000000000000000000000000000000000000000060648201526084016107ed565b6060611e418484600085611e49565b949350505050565b606082471015611edb576040517f08c379a000000000000000000000000000000000000000000000000000000000815260206004820152602660248201527f416464726573733a20696e73756666696369656e742062616c616e636520666f60448201527f722063616c6c000000000000000000000000000000000000000000000000000060648201526084016107ed565b6000808673ffffffffffffffffffffffffffffffffffffffff168587604051611f04919061234f565b60006040518083038185875af1925050503d8060008114611f41576040519150601f19603f3d011682016040523d82523d6000602084013e611f46565b606091505b5091509150611f5787838387611f62565b979650505050505050565b60608315611ff8578251600003611ff15773ffffffffffffffffffffffffffffffffffffffff85163b611ff1576040517f08c379a000000000000000000000000000000000000000000000000000000000815260206004820152601d60248201527f416464726573733a2063616c6c20746f206e6f6e2d636f6e747261637400000060448201526064016107ed565b5081611e41565b611e41838381511561200d5781518083602001fd5b806040517f08c379a00000000000000000000000000000000000000000000000000000000081526004016107ed9190612065565b60005b8381101561205c578181015183820152602001612044565b50506000910152565b6020815260008251806020840152612084816040850160208701612041565b601f017fffffffffffffffffffffffffffffffffffffffffffffffffffffffffffffffe0169190910160400192915050565b803573ffffffffffffffffffffffffffffffffffffffff811681146120da57600080fd5b919050565b600080604083850312156120f257600080fd5b6120fb836120b6565b946020939093013593505050565b60006020828403121561211b57600080fd5b61065e826120b6565b60008060006060848603121561213957600080fd5b612142846120b6565b9250612150602085016120b6565b9150604084013590509250925092565b60006020828403121561217257600080fd5b5035919050565b801515811461218757600080fd5b50565b60008060008060008060c087890312156121a357600080fd5b8635955060208701356121b581612179565b945060408701359350606087013560ff811681146121d257600080fd5b9598949750929560808101359460a0909101359350915050565b600080604083850312156121ff57600080fd5b612208836120b6565b9150612216602084016120b6565b90509250929050565b600181811c9082168061223357607f821691505b60208210810361226c577f4e487b7100000000000000000000000000000000000000000000000000000000600052602260045260246000fd5b50919050565b60006020828403121561228457600080fd5b5051919050565b7f4e487b7100000000000000000000000000000000000000000000000000000000600052601160045260246000fd5b808201808211156104b3576104b361228b565b818103818111156104b3576104b361228b565b600082612316577f4e487b7100000000000000000000000000000000000000000000000000000000600052601260045260246000fd5b500490565b80820281158282048414176104b3576104b361228b565b60006020828403121561234457600080fd5b815161065e81612179565b60008251612361818460208701612041565b919091019291505056fea164736f6c6343000811000a",
  "devdoc": {
    "kind": "dev",
    "methods": {
      "constructor": {
        "params": {
          "_farmingOwner": "address who will own the farming",
          "_smardexToken": "address of the smardex token",
          "_startFarmingCampaign": "block number the staking pool in the farming will start to give rewards"
        }
      },
      "resetAllowance(uint256)": {
        "params": {
          "_campaignId": "campaign id"
        }
      }
    },
    "stateVariables": {
      "farming": {
        "return": "farming contract address (or FarmingRange contract type in Solidity)",
        "returns": {
          "_0": "farming contract address (or FarmingRange contract type in Solidity)"
        }
      },
      "staking": {
        "return": "staking contract address (or Staking contract type in Solidity)",
        "returns": {
          "_0": "staking contract address (or Staking contract type in Solidity)"
        }
      }
    },
    "title": "RewardManager",
    "version": 1
  },
  "userdoc": {
    "kind": "user",
    "methods": {
      "farming()": {
        "notice": "used to get the farming contract address"
      },
      "resetAllowance(uint256)": {
        "notice": "used to resetAllowance with farming contract to take rewards"
      },
      "staking()": {
        "notice": "used to get the staking contract address"
      }
    },
    "notice": "RewardManager handles de creation of the contract staking and farming, automatically create a campaignInfo in the farming for the staking, at slot 0 and initialize farming. The RewardManager is the owner of the funds in the FarmingRange, only the RewardManager is capable of sending funds to be farmed and only the RewardManager will get the funds back when updating of removing campaigns.",
    "version": 1
  },
  "storageLayout": {
    "storage": [],
    "types": null
  }
}