{
  "address": "0x9a5132e149c547F254C73226DA7f770d43D9EA44",
  "abi": [
    {
      "inputs": [
        {
          "internalType": "address",
          "name": "_factory",
          "type": "address"
        },
        {
          "internalType": "address",
          "name": "_WETH",
          "type": "address"
        }
      ],
      "stateMutability": "nonpayable",
      "type": "constructor"
    },
    {
      "inputs": [],
      "name": "WETH",
      "outputs": [
        {
          "internalType": "address",
          "name": "",
          "type": "address"
        }
      ],
      "stateMutability": "view",
      "type": "function"
    },
    {
      "inputs": [
        {
          "internalType": "address",
          "name": "_tokenA",
          "type": "address"
        },
        {
          "internalType": "address",
          "name": "_tokenB",
          "type": "address"
        },
        {
          "internalType": "uint256",
          "name": "_amountADesired",
          "type": "uint256"
        },
        {
          "internalType": "uint256",
          "name": "_amountBDesired",
          "type": "uint256"
        },
        {
          "internalType": "uint256",
          "name": "_amountAMin",
          "type": "uint256"
        },
        {
          "internalType": "uint256",
          "name": "_amountBMin",
          "type": "uint256"
        },
        {
          "internalType": "address",
          "name": "_to",
          "type": "address"
        },
        {
          "internalType": "uint256",
          "name": "_deadline",
          "type": "uint256"
        }
      ],
      "name": "addLiquidity",
      "outputs": [
        {
          "internalType": "uint256",
          "name": "amountA_",
          "type": "uint256"
        },
        {
          "internalType": "uint256",
          "name": "amountB_",
          "type": "uint256"
        },
        {
          "internalType": "uint256",
          "name": "liquidity_",
          "type": "uint256"
        }
      ],
      "stateMutability": "nonpayable",
      "type": "function"
    },
    {
      "inputs": [
        {
          "internalType": "address",
          "name": "_token",
          "type": "address"
        },
        {
          "internalType": "uint256",
          "name": "_amountTokenDesired",
          "type": "uint256"
        },
        {
          "internalType": "uint256",
          "name": "_amountTokenMin",
          "type": "uint256"
        },
        {
          "internalType": "uint256",
          "name": "_amountETHMin",
          "type": "uint256"
        },
        {
          "internalType": "address",
          "name": "_to",
          "type": "address"
        },
        {
          "internalType": "uint256",
          "name": "_deadline",
          "type": "uint256"
        }
      ],
      "name": "addLiquidityETH",
      "outputs": [
        {
          "internalType": "uint256",
          "name": "amountToken_",
          "type": "uint256"
        },
        {
          "internalType": "uint256",
          "name": "amountETH_",
          "type": "uint256"
        },
        {
          "internalType": "uint256",
          "name": "liquidity_",
          "type": "uint256"
        }
      ],
      "stateMutability": "payable",
      "type": "function"
    },
    {
      "inputs": [],
      "name": "factory",
      "outputs": [
        {
          "internalType": "address",
          "name": "",
          "type": "address"
        }
      ],
      "stateMutability": "view",
      "type": "function"
    },
    {
      "inputs": [
        {
          "internalType": "uint256",
          "name": "_amountOut",
          "type": "uint256"
        },
        {
          "internalType": "uint256",
          "name": "_reserveIn",
          "type": "uint256"
        },
        {
          "internalType": "uint256",
          "name": "_reserveOut",
          "type": "uint256"
        },
        {
          "internalType": "uint256",
          "name": "_fictiveReserveIn",
          "type": "uint256"
        },
        {
          "internalType": "uint256",
          "name": "_fictiveReserveOut",
          "type": "uint256"
        },
        {
          "internalType": "uint256",
          "name": "_priceAverageIn",
          "type": "uint256"
        },
        {
          "internalType": "uint256",
          "name": "_priceAverageOut",
          "type": "uint256"
        }
      ],
      "name": "getAmountIn",
      "outputs": [
        {
          "internalType": "uint256",
          "name": "amountIn_",
          "type": "uint256"
        },
        {
          "internalType": "uint256",
          "name": "newReserveIn_",
          "type": "uint256"
        },
        {
          "internalType": "uint256",
          "name": "newReserveOut_",
          "type": "uint256"
        },
        {
          "internalType": "uint256",
          "name": "newFictiveReserveIn_",
          "type": "uint256"
        },
        {
          "internalType": "uint256",
          "name": "newFictiveReserveOut_",
          "type": "uint256"
        }
      ],
      "stateMutability": "pure",
      "type": "function"
    },
    {
      "inputs": [
        {
          "internalType": "uint256",
          "name": "_amountIn",
          "type": "uint256"
        },
        {
          "internalType": "uint256",
          "name": "_reserveIn",
          "type": "uint256"
        },
        {
          "internalType": "uint256",
          "name": "_reserveOut",
          "type": "uint256"
        },
        {
          "internalType": "uint256",
          "name": "_fictiveReserveIn",
          "type": "uint256"
        },
        {
          "internalType": "uint256",
          "name": "_fictiveReserveOut",
          "type": "uint256"
        },
        {
          "internalType": "uint256",
          "name": "_priceAverageIn",
          "type": "uint256"
        },
        {
          "internalType": "uint256",
          "name": "_priceAverageOut",
          "type": "uint256"
        }
      ],
      "name": "getAmountOut",
      "outputs": [
        {
          "internalType": "uint256",
          "name": "amountOut_",
          "type": "uint256"
        },
        {
          "internalType": "uint256",
          "name": "newReserveIn_",
          "type": "uint256"
        },
        {
          "internalType": "uint256",
          "name": "newReserveOut_",
          "type": "uint256"
        },
        {
          "internalType": "uint256",
          "name": "newFictiveReserveIn_",
          "type": "uint256"
        },
        {
          "internalType": "uint256",
          "name": "newFictiveReserveOut_",
          "type": "uint256"
        }
      ],
      "stateMutability": "pure",
      "type": "function"
    },
    {
      "inputs": [
        {
          "internalType": "uint256",
          "name": "_amountA",
          "type": "uint256"
        },
        {
          "internalType": "uint256",
          "name": "_reserveA",
          "type": "uint256"
        },
        {
          "internalType": "uint256",
          "name": "_reserveB",
          "type": "uint256"
        }
      ],
      "name": "quote",
      "outputs": [
        {
          "internalType": "uint256",
          "name": "amountB_",
          "type": "uint256"
        }
      ],
      "stateMutability": "pure",
      "type": "function"
    },
    {
      "inputs": [
        {
          "internalType": "address",
          "name": "_tokenA",
          "type": "address"
        },
        {
          "internalType": "address",
          "name": "_tokenB",
          "type": "address"
        },
        {
          "internalType": "uint256",
          "name": "_liquidity",
          "type": "uint256"
        },
        {
          "internalType": "uint256",
          "name": "_amountAMin",
          "type": "uint256"
        },
        {
          "internalType": "uint256",
          "name": "_amountBMin",
          "type": "uint256"
        },
        {
          "internalType": "address",
          "name": "_to",
          "type": "address"
        },
        {
          "internalType": "uint256",
          "name": "_deadline",
          "type": "uint256"
        }
      ],
      "name": "removeLiquidity",
      "outputs": [
        {
          "internalType": "uint256",
          "name": "amountA_",
          "type": "uint256"
        },
        {
          "internalType": "uint256",
          "name": "amountB_",
          "type": "uint256"
        }
      ],
      "stateMutability": "nonpayable",
      "type": "function"
    },
    {
      "inputs": [
        {
          "internalType": "address",
          "name": "_token",
          "type": "address"
        },
        {
          "internalType": "uint256",
          "name": "_liquidity",
          "type": "uint256"
        },
        {
          "internalType": "uint256",
          "name": "_amountTokenMin",
          "type": "uint256"
        },
        {
          "internalType": "uint256",
          "name": "_amountETHMin",
          "type": "uint256"
        },
        {
          "internalType": "address",
          "name": "_to",
          "type": "address"
        },
        {
          "internalType": "uint256",
          "name": "_deadline",
          "type": "uint256"
        }
      ],
      "name": "removeLiquidityETH",
      "outputs": [
        {
          "internalType": "uint256",
          "name": "amountToken_",
          "type": "uint256"
        },
        {
          "internalType": "uint256",
          "name": "amountETH_",
          "type": "uint256"
        }
      ],
      "stateMutability": "nonpayable",
      "type": "function"
    },
    {
      "inputs": [
        {
          "internalType": "address",
          "name": "_token",
          "type": "address"
        },
        {
          "internalType": "uint256",
          "name": "_liquidity",
          "type": "uint256"
        },
        {
          "internalType": "uint256",
          "name": "_amountTokenMin",
          "type": "uint256"
        },
        {
          "internalType": "uint256",
          "name": "_amountETHMin",
          "type": "uint256"
        },
        {
          "internalType": "address",
          "name": "_to",
          "type": "address"
        },
        {
          "internalType": "uint256",
          "name": "_deadline",
          "type": "uint256"
        },
        {
          "internalType": "bool",
          "name": "_approveMax",
          "type": "bool"
        },
        {
          "internalType": "uint8",
          "name": "_v",
          "type": "uint8"
        },
        {
          "internalType": "bytes32",
          "name": "_r",
          "type": "bytes32"
        },
        {
          "internalType": "bytes32",
          "name": "_s",
          "type": "bytes32"
        }
      ],
      "name": "removeLiquidityETHWithPermit",
      "outputs": [
        {
          "internalType": "uint256",
          "name": "amountToken_",
          "type": "uint256"
        },
        {
          "internalType": "uint256",
          "name": "amountETH_",
          "type": "uint256"
        }
      ],
      "stateMutability": "nonpayable",
      "type": "function"
    },
    {
      "inputs": [
        {
          "internalType": "address",
          "name": "_tokenA",
          "type": "address"
        },
        {
          "internalType": "address",
          "name": "_tokenB",
          "type": "address"
        },
        {
          "internalType": "uint256",
          "name": "_liquidity",
          "type": "uint256"
        },
        {
          "internalType": "uint256",
          "name": "_amountAMin",
          "type": "uint256"
        },
        {
          "internalType": "uint256",
          "name": "_amountBMin",
          "type": "uint256"
        },
        {
          "internalType": "address",
          "name": "_to",
          "type": "address"
        },
        {
          "internalType": "uint256",
          "name": "_deadline",
          "type": "uint256"
        },
        {
          "internalType": "bool",
          "name": "_approveMax",
          "type": "bool"
        },
        {
          "internalType": "uint8",
          "name": "_v",
          "type": "uint8"
        },
        {
          "internalType": "bytes32",
          "name": "_r",
          "type": "bytes32"
        },
        {
          "internalType": "bytes32",
          "name": "_s",
          "type": "bytes32"
        }
      ],
      "name": "removeLiquidityWithPermit",
      "outputs": [
        {
          "internalType": "uint256",
          "name": "amountA_",
          "type": "uint256"
        },
        {
          "internalType": "uint256",
          "name": "amountB_",
          "type": "uint256"
        }
      ],
      "stateMutability": "nonpayable",
      "type": "function"
    },
    {
      "inputs": [
        {
          "components": [
            {
              "internalType": "address",
              "name": "token0",
              "type": "address"
            },
            {
              "internalType": "address",
              "name": "token1",
              "type": "address"
            },
            {
              "internalType": "uint256",
              "name": "amount0",
              "type": "uint256"
            },
            {
              "internalType": "uint256",
              "name": "amount1",
              "type": "uint256"
            },
            {
              "internalType": "address",
              "name": "payer",
              "type": "address"
            }
          ],
          "internalType": "struct ISmardexMintCallback.MintCallbackData",
          "name": "_data",
          "type": "tuple"
        }
      ],
      "name": "smardexMintCallback",
      "outputs": [],
      "stateMutability": "nonpayable",
      "type": "function"
    },
    {
      "inputs": [
        {
          "internalType": "int256",
          "name": "_amount0Delta",
          "type": "int256"
        },
        {
          "internalType": "int256",
          "name": "_amount1Delta",
          "type": "int256"
        },
        {
          "internalType": "bytes",
          "name": "_data",
          "type": "bytes"
        }
      ],
      "name": "smardexSwapCallback",
      "outputs": [],
      "stateMutability": "nonpayable",
      "type": "function"
    },
    {
      "inputs": [
        {
          "internalType": "uint256",
          "name": "_amountOut",
          "type": "uint256"
        },
        {
          "internalType": "address[]",
          "name": "_path",
          "type": "address[]"
        },
        {
          "internalType": "address",
          "name": "_to",
          "type": "address"
        },
        {
          "internalType": "uint256",
          "name": "_deadline",
          "type": "uint256"
        }
      ],
      "name": "swapETHForExactTokens",
      "outputs": [
        {
          "internalType": "uint256",
          "name": "amountIn_",
          "type": "uint256"
        }
      ],
      "stateMutability": "payable",
      "type": "function"
    },
    {
      "inputs": [
        {
          "internalType": "uint256",
          "name": "_amountOutMin",
          "type": "uint256"
        },
        {
          "internalType": "address[]",
          "name": "_path",
          "type": "address[]"
        },
        {
          "internalType": "address",
          "name": "_to",
          "type": "address"
        },
        {
          "internalType": "uint256",
          "name": "_deadline",
          "type": "uint256"
        }
      ],
      "name": "swapExactETHForTokens",
      "outputs": [
        {
          "internalType": "uint256",
          "name": "amountOut_",
          "type": "uint256"
        }
      ],
      "stateMutability": "payable",
      "type": "function"
    },
    {
      "inputs": [
        {
          "internalType": "uint256",
          "name": "_amountIn",
          "type": "uint256"
        },
        {
          "internalType": "uint256",
          "name": "_amountOutMin",
          "type": "uint256"
        },
        {
          "internalType": "address[]",
          "name": "_path",
          "type": "address[]"
        },
        {
          "internalType": "address",
          "name": "_to",
          "type": "address"
        },
        {
          "internalType": "uint256",
          "name": "_deadline",
          "type": "uint256"
        }
      ],
      "name": "swapExactTokensForETH",
      "outputs": [
        {
          "internalType": "uint256",
          "name": "amountOut_",
          "type": "uint256"
        }
      ],
      "stateMutability": "nonpayable",
      "type": "function"
    },
    {
      "inputs": [
        {
          "internalType": "uint256",
          "name": "_amountIn",
          "type": "uint256"
        },
        {
          "internalType": "uint256",
          "name": "_amountOutMin",
          "type": "uint256"
        },
        {
          "internalType": "address[]",
          "name": "_path",
          "type": "address[]"
        },
        {
          "internalType": "address",
          "name": "_to",
          "type": "address"
        },
        {
          "internalType": "uint256",
          "name": "_deadline",
          "type": "uint256"
        }
      ],
      "name": "swapExactTokensForTokens",
      "outputs": [
        {
          "internalType": "uint256",
          "name": "amountOut_",
          "type": "uint256"
        }
      ],
      "stateMutability": "nonpayable",
      "type": "function"
    },
    {
      "inputs": [
        {
          "internalType": "uint256",
          "name": "_amountOut",
          "type": "uint256"
        },
        {
          "internalType": "uint256",
          "name": "_amountInMax",
          "type": "uint256"
        },
        {
          "internalType": "address[]",
          "name": "_path",
          "type": "address[]"
        },
        {
          "internalType": "address",
          "name": "_to",
          "type": "address"
        },
        {
          "internalType": "uint256",
          "name": "_deadline",
          "type": "uint256"
        }
      ],
      "name": "swapTokensForExactETH",
      "outputs": [
        {
          "internalType": "uint256",
          "name": "amountIn_",
          "type": "uint256"
        }
      ],
      "stateMutability": "nonpayable",
      "type": "function"
    },
    {
      "inputs": [
        {
          "internalType": "uint256",
          "name": "_amountOut",
          "type": "uint256"
        },
        {
          "internalType": "uint256",
          "name": "_amountInMax",
          "type": "uint256"
        },
        {
          "internalType": "address[]",
          "name": "_path",
          "type": "address[]"
        },
        {
          "internalType": "address",
          "name": "_to",
          "type": "address"
        },
        {
          "internalType": "uint256",
          "name": "_deadline",
          "type": "uint256"
        }
      ],
      "name": "swapTokensForExactTokens",
      "outputs": [
        {
          "internalType": "uint256",
          "name": "amountIn_",
          "type": "uint256"
        }
      ],
      "stateMutability": "nonpayable",
      "type": "function"
    },
    {
      "stateMutability": "payable",
      "type": "receive"
    }
  ],
  "transactionHash": "0xb8283ecdcffcf5a5e2adac549ecb27a30633fd3aacb98f73228bd1e9f7371902",
  "args": [
    "0x7753F36E711B66a0350a753aba9F5651BAE76A1D",
    "0xC02aaA39b223FE8D0A0e5C4F27eAD9083C756Cc2"
  ],
  "numDeployments": 1,
  "solcInputHash": "b28898d7e81f03dddce94d87b82bcc6b",
  "bytecode": "0x60c06040526000196000553480156200001757600080fd5b506040516200506e3803806200506e8339810160408190526200003a916200006f565b6001600160a01b039182166080521660a052620000a7565b80516001600160a01b03811681146200006a57600080fd5b919050565b600080604083850312156200008357600080fd5b6200008e8362000052565b91506200009e6020840162000052565b90509250929050565b60805160a051614edd62000191600039600081816101650152818161032e015281816105030152818161056b0152818161067601528181610b2a01528181610e5a0152818161174c01528181611a8d01528181611ae301528181611b2001528181611ca501528181612063015281816121840152818161282201528181612882015261294a0152600081816103c7015281816107a701528181610c1701528181611201015281816114280152818161172a015281816118fb01528181611ac10152818161249e01528181612b27015281816131700152818161324501526132bc0152614edd6000f3fe6080604052600436106101485760003560e01c8063a1dab4eb116100c0578063d948524511610074578063e8e3370011610059578063e8e3370014610429578063f305d71914610464578063fb3bdb411461047757600080fd5b8063d9485245146103e9578063ded9382a1461040957600080fd5b8063ad615dec116100a5578063ad615dec14610375578063baa2abde14610395578063c45a0155146103b557600080fd5b8063a1dab4eb146102fc578063ad5c46481461031c57600080fd5b80633f29b58011610117578063797c4a13116100fc578063797c4a13146102a95780637ff36ab5146102c95780638803dbee146102dc57600080fd5b80633f29b580146102415780634a25d94a1461028957600080fd5b806302751cec1461019957806318cbafe5146101d35780632195995c1461020157806338ed17391461022157600080fd5b36610194573373ffffffffffffffffffffffffffffffffffffffff7f000000000000000000000000000000000000000000000000000000000000000016146101925761019261426a565b005b600080fd5b3480156101a557600080fd5b506101b96101b43660046142cb565b61048a565b604080519283526020830191909152015b60405180910390f35b3480156101df57600080fd5b506101f36101ee36600461436e565b6105f2565b6040519081526020016101ca565b34801561020d57600080fd5b506101b961021c366004614400565b61079d565b34801561022d57600080fd5b506101f361023c366004614551565b6108d4565b34801561024d57600080fd5b5061026161025c366004614631565b610a6c565b604080519586526020860194909452928401919091526060830152608082015260a0016101ca565b34801561029557600080fd5b506101f36102a436600461436e565b610aa6565b3480156102b557600080fd5b506101926102c436600461467d565b610c12565b6101f36102d7366004614695565b610deb565b3480156102e857600080fd5b506101f36102f736600461436e565b610f81565b34801561030857600080fd5b506101926103173660046146fc565b61113d565b34801561032857600080fd5b506103507f000000000000000000000000000000000000000000000000000000000000000081565b60405173ffffffffffffffffffffffffffffffffffffffff90911681526020016101ca565b34801561038157600080fd5b506101f361039036600461477c565b61139e565b3480156103a157600080fd5b506101b96103b03660046147a8565b6113b3565b3480156103c157600080fd5b506103507f000000000000000000000000000000000000000000000000000000000000000081565b3480156103f557600080fd5b50610261610404366004614631565b611709565b34801561041557600080fd5b506101b961042436600461481a565b611720565b34801561043557600080fd5b506104496104443660046148b0565b611871565b604080519384526020840192909252908201526060016101ca565b6104496104723660046142cb565b611a17565b6101f3610485366004614695565b611c36565b60008082428110156104fd576040517f08c379a000000000000000000000000000000000000000000000000000000000815260206004820152601660248201527f536d6172446578526f757465723a20455850495245440000000000000000000060448201526064015b60405180910390fd5b61052c897f00000000000000000000000000000000000000000000000000000000000000008a8a8a308a6113b3565b909350915061053c898685611d8d565b6040517f2e1a7d4d000000000000000000000000000000000000000000000000000000008152600481018390527f000000000000000000000000000000000000000000000000000000000000000073ffffffffffffffffffffffffffffffffffffffff1690632e1a7d4d90602401600060405180830381600087803b1580156105c457600080fd5b505af11580156105d8573d6000803e3d6000fd5b505050506105e68583611f23565b50965096945050505050565b6000814281101561065f576040517f08c379a000000000000000000000000000000000000000000000000000000000815260206004820152601660248201527f536d6172446578526f757465723a20455850495245440000000000000000000060448201526064016104f4565b73ffffffffffffffffffffffffffffffffffffffff7f00000000000000000000000000000000000000000000000000000000000000001686866106a360018261495b565b8181106106b2576106b261496e565b90506020020160208101906106c7919061499d565b73ffffffffffffffffffffffffffffffffffffffff1614610744576040517f08c379a000000000000000000000000000000000000000000000000000000000815260206004820152601b60248201527f536d6172446578526f757465723a20494e56414c49445f50415448000000000060448201526064016104f4565b61078688888888808060200260200160405190810160405280939291908181526020018383602002808284376000920191909152503092508991506108d49050565b91506107928285612032565b509695505050505050565b60008060006107cd7f00000000000000000000000000000000000000000000000000000000000000008f8f6121ff565b90506000876107dc578c6107fe565b7fffffffffffffffffffffffffffffffffffffffffffffffffffffffffffffffff5b6040517fd505accf00000000000000000000000000000000000000000000000000000000815233600482015230602482015260448101829052606481018b905260ff8916608482015260a4810188905260c4810187905290915073ffffffffffffffffffffffffffffffffffffffff83169063d505accf9060e401600060405180830381600087803b15801561089357600080fd5b505af11580156108a7573d6000803e3d6000fd5b505050506108ba8f8f8f8f8f8f8f6113b3565b809450819550505050509b509b9950505050505050505050565b60008142811015610941576040517f08c379a000000000000000000000000000000000000000000000000000000000815260206004820152601660248201527f536d6172446578526f757465723a20455850495245440000000000000000000060448201526064016104f4565b33600061094d87612334565b90505b600061095b82612401565b90506109a68a8261096c578861096e565b305b604051806040016040528061098287612424565b81526020018773ffffffffffffffffffffffffffffffffffffffff16815250612444565b995080156109c1573092506109ba8261259b565b91506109ca565b899450506109d0565b50610950565b87841015610a60576040517f08c379a000000000000000000000000000000000000000000000000000000000815260206004820152602960248201527f536d6172446578526f757465723a20494e53554646494349454e545f4f55545060448201527f55545f414d4f554e54000000000000000000000000000000000000000000000060648201526084016104f4565b50505095945050505050565b6000806000806000610a838c8c8c8c8c8c8c6125af565b809550819650829750839850849950505050505097509750975097509792505050565b60008142811015610b13576040517f08c379a000000000000000000000000000000000000000000000000000000000815260206004820152601660248201527f536d6172446578526f757465723a20455850495245440000000000000000000060448201526064016104f4565b73ffffffffffffffffffffffffffffffffffffffff7f0000000000000000000000000000000000000000000000000000000000000000168686610b5760018261495b565b818110610b6657610b6661496e565b9050602002016020810190610b7b919061499d565b73ffffffffffffffffffffffffffffffffffffffff1614610bf8576040517f08c379a000000000000000000000000000000000000000000000000000000000815260206004820152601b60248201527f536d6172446578526f757465723a20494e56414c49445f50415448000000000060448201526064016104f4565b610c06888888883088610f81565b91506107928885612032565b610c587f0000000000000000000000000000000000000000000000000000000000000000610c43602084018461499d565b610c53604085016020860161499d565b6121ff565b73ffffffffffffffffffffffffffffffffffffffff163373ffffffffffffffffffffffffffffffffffffffff1614610cec576040517f08c379a000000000000000000000000000000000000000000000000000000000815260206004820152601b60248201527f536d6172446578526f757465723a20494e56414c49445f50414952000000000060448201526064016104f4565b600081604001351180610d03575060008160600135115b610d8f576040517f08c379a000000000000000000000000000000000000000000000000000000000815260206004820152602660248201527f536d6172646578526f757465723a2043616c6c6261636b20496e76616c69642060448201527f616d6f756e74000000000000000000000000000000000000000000000000000060648201526084016104f4565b610dba610d9f602083018361499d565b610daf60a084016080850161499d565b338460400135612820565b610de8610dcd604083016020840161499d565b610ddd60a084016080850161499d565b338460600135612820565b50565b60008142811015610e58576040517f08c379a000000000000000000000000000000000000000000000000000000000815260206004820152601660248201527f536d6172446578526f757465723a20455850495245440000000000000000000060448201526064016104f4565b7f000000000000000000000000000000000000000000000000000000000000000073ffffffffffffffffffffffffffffffffffffffff1686866000818110610ea257610ea261496e565b9050602002016020810190610eb7919061499d565b73ffffffffffffffffffffffffffffffffffffffff1614610f34576040517f08c379a000000000000000000000000000000000000000000000000000000000815260206004820152601b60248201527f536d6172446578526f757465723a20494e56414c49445f50415448000000000060448201526064016104f4565b610f7634888888808060200260200160405190810160405280939291908181526020018383602002808284376000920191909152508a92508991506108d49050565b979650505050505050565b60008142811015610fee576040517f08c379a000000000000000000000000000000000000000000000000000000000815260206004820152601660248201527f536d6172446578526f757465723a20455850495245440000000000000000000060448201526064016104f4565b600061102c878780806020026020016040519081016040528093929190818152602001838360200280828437600092019190915250612a0092505050565b9050611063898660405180604001604052808581526020013373ffffffffffffffffffffffffffffffffffffffff16815250612acd565b925060028611156110745760005492505b87831115611104576040517f08c379a000000000000000000000000000000000000000000000000000000000815260206004820152602560248201527f536d6172446578526f757465723a204558434553534956455f494e5055545f4160448201527f4d4f554e5400000000000000000000000000000000000000000000000000000060648201526084016104f4565b7fffffffffffffffffffffffffffffffffffffffffffffffffffffffffffffffff60005561113185612c18565b50509695505050505050565b600084138061114c5750600083135b6111d8576040517f08c379a000000000000000000000000000000000000000000000000000000000815260206004820152602660248201527f536d6172646578526f757465723a2043616c6c6261636b20496e76616c69642060448201527f616d6f756e74000000000000000000000000000000000000000000000000000060648201526084016104f4565b60006111e6828401846149ba565b90506000806111f88360000151612c28565b915091506112277f000000000000000000000000000000000000000000000000000000000000000083836121ff565b73ffffffffffffffffffffffffffffffffffffffff163373ffffffffffffffffffffffffffffffffffffffff16146112bb576040517f08c379a000000000000000000000000000000000000000000000000000000000815260206004820152601b60248201527f536d6172446578526f757465723a20494e56414c49445f50414952000000000060448201526064016104f4565b600080600089136112fb578373ffffffffffffffffffffffffffffffffffffffff168373ffffffffffffffffffffffffffffffffffffffff16108861132c565b8273ffffffffffffffffffffffffffffffffffffffff168473ffffffffffffffffffffffffffffffffffffffff1610895b91509150811561134b576113468486602001513384612820565b611393565b845161135690612401565b156113795784516113669061259b565b8552611373813387612acd565b50611393565b806000819055508293506113938486602001513384612820565b505050505050505050565b60006113ab848484612c49565b949350505050565b6000808242811015611421576040517f08c379a000000000000000000000000000000000000000000000000000000000815260206004820152601660248201527f536d6172446578526f757465723a20455850495245440000000000000000000060448201526064016104f4565b600061144e7f00000000000000000000000000000000000000000000000000000000000000008c8c6121ff565b6040517f23b872dd00000000000000000000000000000000000000000000000000000000815233600482015273ffffffffffffffffffffffffffffffffffffffff821660248201819052604482018c90529192506323b872dd906064016020604051808303816000875af11580156114ca573d6000803e3d6000fd5b505050506040513d601f19601f820116820180604052508101906114ee9190614aa9565b506040517f89afcb4400000000000000000000000000000000000000000000000000000000815273ffffffffffffffffffffffffffffffffffffffff878116600483015260009182918416906389afcb449060240160408051808303816000875af1158015611561573d6000803e3d6000fd5b505050506040513d601f19601f820116820180604052508101906115859190614ac6565b9150915060006115958e8e612d8b565b5090508073ffffffffffffffffffffffffffffffffffffffff168e73ffffffffffffffffffffffffffffffffffffffff16146115d25781836115d5565b82825b90975095508a871015611669576040517f08c379a0000000000000000000000000000000000000000000000000000000008152602060048201526024808201527f536d6172446578526f757465723a20494e53554646494349454e545f415f414d60448201527f4f554e540000000000000000000000000000000000000000000000000000000060648201526084016104f4565b898610156116f8576040517f08c379a0000000000000000000000000000000000000000000000000000000008152602060048201526024808201527f536d6172446578526f757465723a20494e53554646494349454e545f425f414d60448201527f4f554e540000000000000000000000000000000000000000000000000000000060648201526084016104f4565b505050505097509795505050505050565b6000806000806000610a838c8c8c8c8c8c8c612f0f565b60008060006117707f00000000000000000000000000000000000000000000000000000000000000008e7f00000000000000000000000000000000000000000000000000000000000000006121ff565b905060008761177f578c6117a1565b7fffffffffffffffffffffffffffffffffffffffffffffffffffffffffffffffff5b6040517fd505accf00000000000000000000000000000000000000000000000000000000815233600482015230602482015260448101829052606481018b905260ff8916608482015260a4810188905260c4810187905290915073ffffffffffffffffffffffffffffffffffffffff83169063d505accf9060e401600060405180830381600087803b15801561183657600080fd5b505af115801561184a573d6000803e3d6000fd5b5050505061185c8e8e8e8e8e8e61048a565b909f909e509c50505050505050505050505050565b600080600083428110156118e1576040517f08c379a000000000000000000000000000000000000000000000000000000000815260206004820152601660248201527f536d6172446578526f757465723a20455850495245440000000000000000000060448201526064016104f4565b6118ef8c8c8c8c8c8c61311c565b909450925060006119217f00000000000000000000000000000000000000000000000000000000000000008e8e6121ff565b905073ffffffffffffffffffffffffffffffffffffffff808d168e82161090821663f74bfe8e89836119535787611955565b885b846119605789611962565b885b6040517fffffffff0000000000000000000000000000000000000000000000000000000060e086901b16815273ffffffffffffffffffffffffffffffffffffffff9093166004840152602483019190915260448201523360648201526084016020604051808303816000875af11580156119e0573d6000803e3d6000fd5b505050506040513d601f19601f82011682018060405250810190611a049190614aea565b9350505050985098509895505050505050565b60008060008342811015611a87576040517f08c379a000000000000000000000000000000000000000000000000000000000815260206004820152601660248201527f536d6172446578526f757465723a20455850495245440000000000000000000060448201526064016104f4565b611ab58a7f00000000000000000000000000000000000000000000000000000000000000008b348c8c61311c565b90945092506000611b077f00000000000000000000000000000000000000000000000000000000000000008c7f00000000000000000000000000000000000000000000000000000000000000006121ff565b905073ffffffffffffffffffffffffffffffffffffffff7f000000000000000000000000000000000000000000000000000000000000000081168c82161090821663f74bfe8e8983611b595787611b5b565b885b84611b665789611b68565b885b6040517fffffffff0000000000000000000000000000000000000000000000000000000060e086901b16815273ffffffffffffffffffffffffffffffffffffffff9093166004840152602483019190915260448201523360648201526084016020604051808303816000875af1158015611be6573d6000803e3d6000fd5b505050506040513d601f19601f82011682018060405250810190611c0a9190614aea565b935084341115611c2757611c2733611c22873461495b565b611f23565b50505096509650969350505050565b60008142811015611ca3576040517f08c379a000000000000000000000000000000000000000000000000000000000815260206004820152601660248201527f536d6172446578526f757465723a20455850495245440000000000000000000060448201526064016104f4565b7f000000000000000000000000000000000000000000000000000000000000000073ffffffffffffffffffffffffffffffffffffffff1686866000818110611ced57611ced61496e565b9050602002016020810190611d02919061499d565b73ffffffffffffffffffffffffffffffffffffffff1614611d7f576040517f08c379a000000000000000000000000000000000000000000000000000000000815260206004820152601b60248201527f536d6172446578526f757465723a20494e56414c49445f50415448000000000060448201526064016104f4565b610f76873488888888610f81565b6040805173ffffffffffffffffffffffffffffffffffffffff8481166024830152604480830185905283518084039091018152606490920183526020820180517bffffffffffffffffffffffffffffffffffffffffffffffffffffffff167fa9059cbb000000000000000000000000000000000000000000000000000000001790529151600092839290871691611e249190614b27565b6000604051808303816000865af19150503d8060008114611e61576040519150601f19603f3d011682016040523d82523d6000602084013e611e66565b606091505b5091509150818015611e90575080511580611e90575080806020019051810190611e909190614aa9565b611f1c576040517f08c379a000000000000000000000000000000000000000000000000000000000815260206004820152602d60248201527f5472616e7366657248656c7065723a3a736166655472616e736665723a20747260448201527f616e73666572206661696c65640000000000000000000000000000000000000060648201526084016104f4565b5050505050565b6040805160008082526020820190925273ffffffffffffffffffffffffffffffffffffffff8416908390604051611f5a9190614b27565b60006040518083038185875af1925050503d8060008114611f97576040519150601f19603f3d011682016040523d82523d6000602084013e611f9c565b606091505b505090508061202d576040517f08c379a000000000000000000000000000000000000000000000000000000000815260206004820152603460248201527f5472616e7366657248656c7065723a3a736166655472616e736665724554483a60448201527f20455448207472616e73666572206661696c656400000000000000000000000060648201526084016104f4565b505050565b6040517f70a082310000000000000000000000000000000000000000000000000000000081523060048201526000907f000000000000000000000000000000000000000000000000000000000000000073ffffffffffffffffffffffffffffffffffffffff16906370a0823190602401602060405180830381865afa1580156120bf573d6000803e3d6000fd5b505050506040513d601f19601f820116820180604052508101906120e39190614aea565b90508281101561214f576040517f08c379a000000000000000000000000000000000000000000000000000000000815260206004820152601160248201527f496e73756666696369656e74205745544800000000000000000000000000000060448201526064016104f4565b801561202d576040517f2e1a7d4d000000000000000000000000000000000000000000000000000000008152600481018290527f000000000000000000000000000000000000000000000000000000000000000073ffffffffffffffffffffffffffffffffffffffff1690632e1a7d4d90602401600060405180830381600087803b1580156121dd57600080fd5b505af11580156121f1573d6000803e3d6000fd5b5050505061202d8282611f23565b600080600061220e8585612d8b565b6040517fffffffffffffffffffffffffffffffffffffffff000000000000000000000000606084811b8216602084015283901b16603482015291935091508690604801604051602081830303815290604052805190602001206040516020016122f49291907fff00000000000000000000000000000000000000000000000000000000000000815260609290921b7fffffffffffffffffffffffffffffffffffffffff00000000000000000000000016600183015260158201527fb477a06204165d50e6d795c7c216306290eff5d6015f8b65bb46002a8775b548603582015260550190565b604080517fffffffffffffffffffffffffffffffffffffffffffffffffffffffffffffffe081840301815291905280516020909101209695505050505050565b805160609060005b818110156123fa57828482815181106123575761235761496e565b602002602001015160405160200161239a919060609190911b7fffffffffffffffffffffffffffffffffffffffff00000000000000000000000016815260140190565b604080517fffffffffffffffffffffffffffffffffffffffffffffffffffffffffffffffe0818403018152908290526123d69291602001614b43565b604051602081830303815290604052925080806123f290614b72565b91505061233c565b5050919050565b6000601461240f8180614baa565b6124199190614baa565b825110159050919050565b606061243e6000612436601480614baa565b849190613477565b92915050565b600073ffffffffffffffffffffffffffffffffffffffff8316612465573092505b6000806124758460000151612c28565b909250905073ffffffffffffffffffffffffffffffffffffffff808216908316106000806124c47f000000000000000000000000000000000000000000000000000000000000000086866121ff565b73ffffffffffffffffffffffffffffffffffffffff16631f18b37189856124ea8d613664565b8b6040516020016124fb9190614c07565b6040516020818303038152906040526040518563ffffffff1660e01b81526004016125299493929190614c4f565b60408051808303816000875af1158015612547573d6000803e3d6000fd5b505050506040513d601f19601f8201168201806040525081019061256b9190614ac6565b9150915061258e836125855761258083614c96565b61371a565b61258082614c96565b9998505050505050505050565b606061243e6014808451612436919061495b565b6000806000806000808c11612646576040517f08c379a000000000000000000000000000000000000000000000000000000000815260206004820152602960248201527f536d61724465784c6962726172793a20494e53554646494349454e545f494e5060448201527f55545f414d4f554e54000000000000000000000000000000000000000000000060648201526084016104f4565b60008b118015612656575060008a115b80156126625750600089115b801561266e5750600088115b6126fa576040517f08c379a000000000000000000000000000000000000000000000000000000000815260206004820152602660248201527f536d61724465784c6962726172793a20494e53554646494349454e545f4c495160448201527f554944495459000000000000000000000000000000000000000000000000000060648201526084016104f4565b600061271061270b60026005614baa565b6127179061271061495b565b612721908f614cce565b61272b9190614d14565b9050600061273c828c8c8c8c613786565b9050818114801561275457506127548b8b8b8b6138e7565b1561276b576127658d8d8d8d613905565b909b5099505b600061277960026005614baa565b6127859061271061495b565b61279161271084614cce565b61279b9190614d14565b90506127aa818f8f8f8f6139ee565b809850819950829a50839b50849c505050505050808f6127ca919061495b565b9e50508181101561280f576127e186868686613905565b909450925060006127f58f888888886139ee565b929a5090985096509450905061280b8189614baa565b9750505b505097509750975097509792505050565b7f000000000000000000000000000000000000000000000000000000000000000073ffffffffffffffffffffffffffffffffffffffff168473ffffffffffffffffffffffffffffffffffffffff1614801561287b5750804710155b156129c1577f000000000000000000000000000000000000000000000000000000000000000073ffffffffffffffffffffffffffffffffffffffff1663d0e30db0826040518263ffffffff1660e01b81526004016000604051808303818588803b1580156128e857600080fd5b505af11580156128fc573d6000803e3d6000fd5b50506040517fa9059cbb00000000000000000000000000000000000000000000000000000000815273ffffffffffffffffffffffffffffffffffffffff8681166004830152602482018690527f000000000000000000000000000000000000000000000000000000000000000016935063a9059cbb925060440190506020604051808303816000875af1158015612997573d6000803e3d6000fd5b505050506040513d601f19601f820116820180604052508101906129bb9190614aa9565b506129fa565b3073ffffffffffffffffffffffffffffffffffffffff8416036129ee576129e9848383611d8d565b6129fa565b6129fa84848484613ab7565b50505050565b8051606090805b80156123fa578284612a1a60018461495b565b81518110612a2a57612a2a61496e565b6020026020010151604051602001612a6d919060609190911b7fffffffffffffffffffffffffffffffffffffffff00000000000000000000000016815260140190565b604080517fffffffffffffffffffffffffffffffffffffffffffffffffffffffffffffffe081840301815290829052612aa99291602001614b43565b60405160208183030381529060405292508080612ac590614d4f565b915050612a07565b600073ffffffffffffffffffffffffffffffffffffffff8316612aee573092505b600080612afe8460000151612c28565b909250905073ffffffffffffffffffffffffffffffffffffffff80831690821610600080612b4d7f000000000000000000000000000000000000000000000000000000000000000085876121ff565b73ffffffffffffffffffffffffffffffffffffffff16631f18b3718985612b738d613664565b612b7c90614c96565b8b604051602001612b8d9190614c07565b6040516020818303038152906040526040518563ffffffff1660e01b8152600401612bbb9493929190614c4f565b60408051808303816000875af1158015612bd9573d6000803e3d6000fd5b505050506040513d601f19601f82011682018060405250810190612bfd9190614ac6565b9150915082612c0c578061258e565b50979650505050505050565b4715610de857610de88147611f23565b600080612c358382613c56565b9150612c42836014613c56565b9050915091565b6000808411612cda576040517f08c379a000000000000000000000000000000000000000000000000000000000815260206004820152602260248201527f536d617264657848656c7065723a20494e53554646494349454e545f414d4f5560448201527f4e5400000000000000000000000000000000000000000000000000000000000060648201526084016104f4565b600083118015612cea5750600082115b612d76576040517f08c379a000000000000000000000000000000000000000000000000000000000815260206004820152602560248201527f536d617264657848656c7065723a20494e53554646494349454e545f4c49515560448201527f494449545900000000000000000000000000000000000000000000000000000060648201526084016104f4565b82612d818386614cce565b6113ab9190614d14565b6000808273ffffffffffffffffffffffffffffffffffffffff168473ffffffffffffffffffffffffffffffffffffffff1603612e49576040517f08c379a000000000000000000000000000000000000000000000000000000000815260206004820152602260248201527f536d617264657848656c7065723a204944454e544943414c5f4144445245535360448201527f455300000000000000000000000000000000000000000000000000000000000060648201526084016104f4565b8273ffffffffffffffffffffffffffffffffffffffff168473ffffffffffffffffffffffffffffffffffffffff1610612e83578284612e86565b83835b909250905073ffffffffffffffffffffffffffffffffffffffff8216612f08576040517f08c379a000000000000000000000000000000000000000000000000000000000815260206004820152601b60248201527f536d617264657848656c7065723a205a45524f5f41444452455353000000000060448201526064016104f4565b9250929050565b6000806000806000808c11612fa6576040517f08c379a000000000000000000000000000000000000000000000000000000000815260206004820152602a60248201527f536d61724465784c6962726172793a20494e53554646494349454e545f4f555460448201527f5055545f414d4f554e540000000000000000000000000000000000000000000060648201526084016104f4565b878c108015612fb5575060008b115b8015612fc1575060008a115b8015612fcd5750600089115b8015612fd95750600088115b613065576040517f08c379a000000000000000000000000000000000000000000000000000000000815260206004820152602660248201527f536d61724465784c6962726172793a20494e53554646494349454e545f4c495160448201527f554944495459000000000000000000000000000000000000000000000000000060648201526084016104f4565b60006130748d8b8b8b8b613d5a565b90508c8114801561308c575061308c8a8a8a8a6138e7565b156130a35761309d8c8c8c8c613905565b909a5098505b6130b0818d8d8d8d613ead565b9399509197509550935091508c81101561310c576130d085858585613905565b809350819450505060006130f2828f6130e9919061495b565b87878787613ead565b9299509097509550935090506131088188614baa565b9650505b5097509750975097509792505050565b6040517fe6a4390500000000000000000000000000000000000000000000000000000000815273ffffffffffffffffffffffffffffffffffffffff87811660048301528681166024830152600091829182917f00000000000000000000000000000000000000000000000000000000000000009091169063e6a4390590604401602060405180830381865afa1580156131b9573d6000803e3d6000fd5b505050506040513d601f19601f820116820180604052508101906131dd9190614d84565b73ffffffffffffffffffffffffffffffffffffffff16036132b4576040517fc9c6539600000000000000000000000000000000000000000000000000000000815273ffffffffffffffffffffffffffffffffffffffff898116600483015288811660248301527f0000000000000000000000000000000000000000000000000000000000000000169063c9c65396906044016020604051808303816000875af115801561328e573d6000803e3d6000fd5b505050506040513d601f19601f820116820180604052508101906132b29190614d84565b505b6000806132e27f00000000000000000000000000000000000000000000000000000000000000008b8b613f92565b915091508160001480156132f4575080155b156133045787935086925061346a565b6000613311898484612c49565b90508781116133b457858110156133a9576040517f08c379a0000000000000000000000000000000000000000000000000000000008152602060048201526024808201527f536d6172446578526f757465723a20494e53554646494349454e545f425f414d60448201527f4f554e540000000000000000000000000000000000000000000000000000000060648201526084016104f4565b889450925082613468565b60006133c1898486612c49565b9050898111156133d3576133d361426a565b87811015613462576040517f08c379a0000000000000000000000000000000000000000000000000000000008152602060048201526024808201527f536d6172446578526f757465723a20494e53554646494349454e545f415f414d60448201527f4f554e540000000000000000000000000000000000000000000000000000000060648201526084016104f4565b94508793505b505b5050965096945050505050565b60608161348581601f614baa565b10156134ed576040517f08c379a000000000000000000000000000000000000000000000000000000000815260206004820152600e60248201527f736c6963655f6f766572666c6f7700000000000000000000000000000000000060448201526064016104f4565b826134f88382614baa565b1015613560576040517f08c379a000000000000000000000000000000000000000000000000000000000815260206004820152600e60248201527f736c6963655f6f766572666c6f7700000000000000000000000000000000000060448201526064016104f4565b61356a8284614baa565b845110156135d4576040517f08c379a000000000000000000000000000000000000000000000000000000000815260206004820152601160248201527f736c6963655f6f75744f66426f756e647300000000000000000000000000000060448201526064016104f4565b6060821580156135f3576040519150600082526020820160405261365b565b6040519150601f8416801560200281840101858101878315602002848b0101015b8183101561362c578051835260209283019201613614565b5050858452601f017fffffffffffffffffffffffffffffffffffffffffffffffffffffffffffffffe016604052505b50949350505050565b60007f7fffffffffffffffffffffffffffffffffffffffffffffffffffffffffffffff821115613716576040517f08c379a000000000000000000000000000000000000000000000000000000000815260206004820152602860248201527f53616665436173743a2076616c756520646f65736e27742066697420696e206160448201527f6e20696e7432353600000000000000000000000000000000000000000000000060648201526084016104f4565b5090565b600080821215613716576040517f08c379a000000000000000000000000000000000000000000000000000000000815260206004820181905260248201527f53616665436173743a2076616c7565206d75737420626520706f73697469766560448201526064016104f4565b846137918286614cce565b61379b8486614cce565b11156138de57600060026137b0816005614baa565b6137bc9061271061495b565b6137c890612710614baa565b6137d2919061495b565b6137dc9087614cce565b90506000600160056137ef600282614baa565b6137fb9061271061495b565b6138059190614baa565b901b90506000613816600580614cce565b6138208980614cce565b61382a9190614cce565b613837600261271061495b565b61384360026005614baa565b61384f9061271061495b565b6138599190614cce565b878760026138678c8e614cce565b61387292911b614d14565b61387c9190614cce565b6138869190614cce565b6138909190614baa565b9050600261389e838b614cce565b6138a89085614baa565b6138b29190614ec1565b811015610a605781836138c48361406f565b6138ce919061495b565b6138d89190614d14565b93505050505b95945050505050565b60006138de6138f68387614cce565b6139008587614cce565b61415e565b6000806139128387614cce565b61391c8587614cce565b10156139995760008685856139318980614cce565b61393b9190614d14565b6139459190614cce565b61394f9190614d14565b90508361395c8688614cce565b6139669190614d14565b846139718784614cce565b61397b9190614d14565b6139859190614baa565b92506139918187614baa565b9150506139de565b85836139a58787614cce565b6139af9190614d14565b6139b99190614baa565b915084846139c78589614cce565b6139d19190614d14565b6139db9190614baa565b90505b600291821c96911c945092505050565b60008080808080613a0160026005614baa565b613a0d9061271061495b565b613a17908c614cce565b90506000613a258883614cce565b9050600082613a366127108c614cce565b613a409190614baa565b9050613a4c8183614d14565b9750600061271060058f613a609190614cce565b613a6a9086614baa565b613a749190614d14565b9050613a80818e614baa565b9750613a8c818c614baa565b9550613a98898d61495b565b9650613aa4898b61495b565b9450505050509550955095509550959050565b6040805173ffffffffffffffffffffffffffffffffffffffff85811660248301528481166044830152606480830185905283518084039091018152608490920183526020820180517bffffffffffffffffffffffffffffffffffffffffffffffffffffffff167f23b872dd000000000000000000000000000000000000000000000000000000001790529151600092839290881691613b569190614b27565b6000604051808303816000865af19150503d8060008114613b93576040519150601f19603f3d011682016040523d82523d6000602084013e613b98565b606091505b5091509150818015613bc2575080511580613bc2575080806020019051810190613bc29190614aa9565b613c4e576040517f08c379a000000000000000000000000000000000000000000000000000000000815260206004820152603160248201527f5472616e7366657248656c7065723a3a7472616e7366657246726f6d3a20747260448201527f616e7366657246726f6d206661696c656400000000000000000000000000000060648201526084016104f4565b505050505050565b600081613c64816014614baa565b1015613ccc576040517f08c379a000000000000000000000000000000000000000000000000000000000815260206004820152601260248201527f746f416464726573735f6f766572666c6f77000000000000000000000000000060448201526064016104f4565b613cd7826014614baa565b83511015613d41576040517f08c379a000000000000000000000000000000000000000000000000000000000815260206004820152601560248201527f746f416464726573735f6f75744f66426f756e6473000000000000000000000060448201526064016104f4565b5001602001516c01000000000000000000000000900490565b84613d658286614cce565b613d6f8486614cce565b11156138de5760008383613d84600589614cce565b613d8e9190614cce565b613d989190614d14565b90506000816001613dab60026005614baa565b613db79061271061495b565b613dc19089614cce565b613dcc92911b614baa565b905060006001613dde60026005614baa565b613dea9061271061495b565b901b90506000613dfa8480614cce565b6005613e09600261271061495b565b613e1560026005614baa565b613e219061271061495b565b613e2b9190614cce565b6002613e37888d614cce565b613e4292911b614cce565b613e4c9190614d14565b613e569190614baa565b90506002613e64838c614cce565b613e6e908561495b565b613e789190614ec1565b811115613ea05781613e898261406f565b613e93908561495b565b613e9d9190614d14565b94505b5050505095945050505050565b60008080808080612710613ec18c8a614cce565b613ecb9190614cce565b90506000613edb60026005614baa565b613ee79061271061495b565b613ef18d8a61495b565b613efb9190614cce565b9050613f078183614d14565b613f12906001614baa565b965060006127106005613f26600282614baa565b613f329061271061495b565b613f3c9190614baa565b613f46908a614cce565b613f509190614d14565b9050613f5c818d614baa565b9650613f68818b614baa565b9450613f748d8c61495b565b9550613f808d8a61495b565b93505050509550955095509550959050565b6000806000613fa18585612d8b565b509050600080613fb28888886121ff565b73ffffffffffffffffffffffffffffffffffffffff16630902f1ac6040518163ffffffff1660e01b81526004016040805180830381865afa158015613ffb573d6000803e3d6000fd5b505050506040513d601f19601f8201168201806040525081019061401f9190614ac6565b915091508273ffffffffffffffffffffffffffffffffffffffff168773ffffffffffffffffffffffffffffffffffffffff161461405d578082614060565b81815b90999098509650505050505050565b60008160000361408157506000919050565b6000600161408e846141c0565b901c6001901b905060018184816140a7576140a7614ce5565b048201901c905060018184816140bf576140bf614ce5565b048201901c905060018184816140d7576140d7614ce5565b048201901c905060018184816140ef576140ef614ce5565b048201901c9050600181848161410757614107614ce5565b048201901c9050600181848161411f5761411f614ce5565b048201901c9050600181848161413757614137614ce5565b048201901c90506141578182858161415157614151614ce5565b04614254565b9392505050565b60008183111561419457620f4240614177600184614cce565b6141819190614d14565b61418b9083614baa565b8310905061243e565b620f42406141a3600185614cce565b6141ad9190614d14565b6141b79084614baa565b8210905061243e565b600080608083901c156141d557608092831c92015b604083901c156141e757604092831c92015b602083901c156141f957602092831c92015b601083901c1561420b57601092831c92015b600883901c1561421d57600892831c92015b600483901c1561422f57600492831c92015b600283901c1561424157600292831c92015b600183901c1561243e5760010192915050565b60008183106142635781614157565b5090919050565b7f4e487b7100000000000000000000000000000000000000000000000000000000600052600160045260246000fd5b73ffffffffffffffffffffffffffffffffffffffff81168114610de857600080fd5b80356142c681614299565b919050565b60008060008060008060c087890312156142e457600080fd5b86356142ef81614299565b9550602087013594506040870135935060608701359250608087013561431481614299565b8092505060a087013590509295509295509295565b60008083601f84011261433b57600080fd5b50813567ffffffffffffffff81111561435357600080fd5b6020830191508360208260051b8501011115612f0857600080fd5b60008060008060008060a0878903121561438757600080fd5b8635955060208701359450604087013567ffffffffffffffff8111156143ac57600080fd5b6143b889828a01614329565b90955093505060608701356143cc81614299565b80925050608087013590509295509295509295565b8015158114610de857600080fd5b803560ff811681146142c657600080fd5b60008060008060008060008060008060006101608c8e03121561442257600080fd5b8b3561442d81614299565b9a5060208c013561443d81614299565b995060408c0135985060608c0135975060808c0135965060a08c013561446281614299565b955060c08c0135945060e08c0135614479816143e1565b93506144886101008d016143ef565b92506101208c013591506101408c013590509295989b509295989b9093969950565b7f4e487b7100000000000000000000000000000000000000000000000000000000600052604160045260246000fd5b6040805190810167ffffffffffffffff811182821017156144fc576144fc6144aa565b60405290565b604051601f82017fffffffffffffffffffffffffffffffffffffffffffffffffffffffffffffffe016810167ffffffffffffffff81118282101715614549576145496144aa565b604052919050565b600080600080600060a0868803121561456957600080fd5b853594506020808701359450604087013567ffffffffffffffff8082111561459057600080fd5b818901915089601f8301126145a457600080fd5b8135818111156145b6576145b66144aa565b8060051b91506145c7848301614502565b818152918301840191848101908c8411156145e157600080fd5b938501935b8385101561460b57843592506145fb83614299565b82825293850193908501906145e6565b809850505050505050614620606087016142bb565b949793965091946080013592915050565b600080600080600080600060e0888a03121561464c57600080fd5b505085359760208701359750604087013596606081013596506080810135955060a0810135945060c0013592509050565b600060a0828403121561468f57600080fd5b50919050565b6000806000806000608086880312156146ad57600080fd5b85359450602086013567ffffffffffffffff8111156146cb57600080fd5b6146d788828901614329565b90955093505060408601356146eb81614299565b949793965091946060013592915050565b6000806000806060858703121561471257600080fd5b8435935060208501359250604085013567ffffffffffffffff8082111561473857600080fd5b818701915087601f83011261474c57600080fd5b81358181111561475b57600080fd5b88602082850101111561476d57600080fd5b95989497505060200194505050565b60008060006060848603121561479157600080fd5b505081359360208301359350604090920135919050565b600080600080600080600060e0888a0312156147c357600080fd5b87356147ce81614299565b965060208801356147de81614299565b955060408801359450606088013593506080880135925060a088013561480381614299565b8092505060c0880135905092959891949750929550565b6000806000806000806000806000806101408b8d03121561483a57600080fd5b8a3561484581614299565b995060208b0135985060408b0135975060608b0135965060808b013561486a81614299565b955060a08b0135945060c08b0135614881816143e1565b935061488f60e08c016143ef565b92506101008b013591506101208b013590509295989b9194979a5092959850565b600080600080600080600080610100898b0312156148cd57600080fd5b88356148d881614299565b975060208901356148e881614299565b965060408901359550606089013594506080890135935060a0890135925060c089013561491481614299565b8092505060e089013590509295985092959890939650565b7f4e487b7100000000000000000000000000000000000000000000000000000000600052601160045260246000fd5b8181038181111561243e5761243e61492c565b7f4e487b7100000000000000000000000000000000000000000000000000000000600052603260045260246000fd5b6000602082840312156149af57600080fd5b813561415781614299565b600060208083850312156149cd57600080fd5b823567ffffffffffffffff808211156149e557600080fd5b90840190604082870312156149f957600080fd5b614a016144d9565b823582811115614a1057600080fd5b8301601f81018813614a2157600080fd5b803583811115614a3357614a336144aa565b614a63867fffffffffffffffffffffffffffffffffffffffffffffffffffffffffffffffe0601f84011601614502565b93508084528886828401011115614a7957600080fd5b8086830187860137600090840186015250818152614a988385016142bb565b848201528094505050505092915050565b600060208284031215614abb57600080fd5b8151614157816143e1565b60008060408385031215614ad957600080fd5b505080516020909101519092909150565b600060208284031215614afc57600080fd5b5051919050565b60005b83811015614b1e578181015183820152602001614b06565b50506000910152565b60008251614b39818460208701614b03565b9190910192915050565b60008351614b55818460208801614b03565b835190830190614b69818360208801614b03565b01949350505050565b60007fffffffffffffffffffffffffffffffffffffffffffffffffffffffffffffffff8203614ba357614ba361492c565b5060010190565b8082018082111561243e5761243e61492c565b60008151808452614bd5816020860160208601614b03565b601f017fffffffffffffffffffffffffffffffffffffffffffffffffffffffffffffffe0169290920160200192915050565b602081526000825160406020840152614c236060840182614bbd565b905073ffffffffffffffffffffffffffffffffffffffff60208501511660408401528091505092915050565b73ffffffffffffffffffffffffffffffffffffffff851681528315156020820152826040820152608060608201526000614c8c6080830184614bbd565b9695505050505050565b60007f80000000000000000000000000000000000000000000000000000000000000008203614cc757614cc761492c565b5060000390565b808202811582820484141761243e5761243e61492c565b7f4e487b7100000000000000000000000000000000000000000000000000000000600052601260045260246000fd5b600082614d4a577f4e487b7100000000000000000000000000000000000000000000000000000000600052601260045260246000fd5b500490565b600081614d5e57614d5e61492c565b507fffffffffffffffffffffffffffffffffffffffffffffffffffffffffffffffff0190565b600060208284031215614d9657600080fd5b815161415781614299565b600181815b80851115614dfa57817fffffffffffffffffffffffffffffffffffffffffffffffffffffffffffffffff04821115614de057614de061492c565b80851615614ded57918102915b93841c9390800290614da6565b509250929050565b600082614e115750600161243e565b81614e1e5750600061243e565b8160018114614e345760028114614e3e57614e5a565b600191505061243e565b60ff841115614e4f57614e4f61492c565b50506001821b61243e565b5060208310610133831016604e8410600b8410161715614e7d575081810a61243e565b614e878383614da1565b807fffffffffffffffffffffffffffffffffffffffffffffffffffffffffffffffff04821115614eb957614eb961492c565b029392505050565b600061415760ff841683614e0256fea164736f6c6343000811000a",
  "devdoc": {
    "kind": "dev",
    "methods": {
      "addLiquidity(address,address,uint256,uint256,uint256,uint256,address,uint256)": {
        "params": {
          "_amountADesired": "The amount of tokenA to add as liquidity if the B/A price is <= amountBDesired/amountADesired",
          "_amountAMin": "Bounds the extent to which the B/A price can go up before the transaction reverts. Must be <= amountADesired.",
          "_amountBDesired": "The amount of tokenB to add as liquidity if the A/B price is <= amountADesired/amountBDesired",
          "_amountBMin": "Bounds the extent to which the A/B price can go up before the transaction reverts. Must be <= amountBDesired.",
          "_deadline": "Unix timestamp after which the transaction will revert.",
          "_to": "Recipient of the liquidity tokens.",
          "_tokenA": "address of the first token in the pair",
          "_tokenB": "address of the second token in the pair"
        },
        "returns": {
          "amountA_": "The amount of tokenA sent to the pool.",
          "amountB_": "The amount of tokenB sent to the pool.",
          "liquidity_": "The amount of liquidity tokens minted."
        }
      },
      "addLiquidityETH(address,uint256,uint256,uint256,address,uint256)": {
        "params": {
          "_amountETHMin": "Bounds the extent to which the token/WETH price can go up before the transaction reverts. Must be <= msg.value.",
          "_amountTokenDesired": "The amount of token to add as liquidity if the WETH/token price is <= msg.value/amountTokenDesired (token depreciates).",
          "_amountTokenMin": "Bounds the extent to which the WETH/token price can go up before the transaction reverts. Must be <= amountTokenDesired.",
          "_deadline": "Unix timestamp after which the transaction will revert.",
          "_to": "Recipient of the liquidity tokens.",
          "_token": "A pool token."
        },
        "returns": {
          "amountETH_": "The amount of ETH converted to WETH and sent to the pool.",
          "amountToken_": "The amount of token sent to the pool.",
          "liquidity_": "The amount of liquidity tokens minted."
        }
      },
      "getAmountIn(uint256,uint256,uint256,uint256,uint256,uint256,uint256)": {
        "params": {
          "_amountOut": "quantity of token the user want to swap (to buy)",
          "_fictiveReserveIn": "fictive reserve of the selling token (getFictiveReserves())",
          "_fictiveReserveOut": "fictive reserve of the buying token (getFictiveReserves())",
          "_priceAverageIn": "price average of the selling token",
          "_priceAverageOut": "price average of the buying token",
          "_reserveIn": "reserves of the selling token (getReserve())",
          "_reserveOut": "reserves of the buying token (getReserve())"
        },
        "returns": {
          "amountIn_": "The amount of token the user would spend to receive _amountOut",
          "newFictiveReserveIn_": "fictive reserve of the selling token after the swap",
          "newFictiveReserveOut_": "fictive reserve of the buying token after the swap",
          "newReserveIn_": "reserves of the selling token after the swap",
          "newReserveOut_": "reserves of the buying token after the swap"
        }
      },
      "getAmountOut(uint256,uint256,uint256,uint256,uint256,uint256,uint256)": {
        "params": {
          "_amountIn": "quantity of token the user want to swap (to sell)",
          "_fictiveReserveIn": "fictive reserve of the selling token (getFictiveReserves())",
          "_fictiveReserveOut": "fictive reserve of the buying token (getFictiveReserves())",
          "_priceAverageIn": "price average of the selling token",
          "_priceAverageOut": "price average of the buying token",
          "_reserveIn": "reserves of the selling token (getReserve())",
          "_reserveOut": "reserves of the buying token (getReserve())"
        },
        "returns": {
          "amountOut_": "The amount of token the user would receive",
          "newFictiveReserveIn_": "fictive reserve of the selling token after the swap",
          "newFictiveReserveOut_": "fictive reserve of the buying token after the swap",
          "newReserveIn_": "reserves of the selling token after the swap",
          "newReserveOut_": "reserves of the buying token after the swap"
        }
      },
      "removeLiquidity(address,address,uint256,uint256,uint256,address,uint256)": {
        "params": {
          "_amountAMin": "The minimum amount of tokenA that must be received for the transaction not to revert.",
          "_amountBMin": "The minimum amount of tokenB that must be received for the transaction not to revert.",
          "_deadline": "Unix timestamp after which the transaction will revert.",
          "_liquidity": "The amount of liquidity tokens to remove.",
          "_to": "Recipient of the liquidity tokens.",
          "_tokenA": "A pool token.",
          "_tokenB": "A pool token."
        },
        "returns": {
          "amountA_": "The amount of tokenA received.",
          "amountB_": "The amount of tokenB received."
        }
      },
      "removeLiquidityETH(address,uint256,uint256,uint256,address,uint256)": {
        "params": {
          "_amountETHMin": "The minimum amount of ETH that must be received for the transaction not to revert.",
          "_amountTokenMin": "The minimum amount of token that must be received for the transaction not to revert.",
          "_deadline": "Unix timestamp after which the transaction will revert.",
          "_liquidity": "The amount of liquidity tokens to remove.",
          "_to": "Recipient of the liquidity tokens.",
          "_token": "A pool token."
        },
        "returns": {
          "amountETH_": "The amount of ETH received.",
          "amountToken_": "The amount of token received."
        }
      },
      "removeLiquidityETHWithPermit(address,uint256,uint256,uint256,address,uint256,bool,uint8,bytes32,bytes32)": {
        "params": {
          "_amountETHMin": "The minimum amount of ETH that must be received for the transaction not to revert.",
          "_amountTokenMin": "The minimum amount of token that must be received for the transaction not to revert.",
          "_approveMax": "Whether or not the approval amount in the signature is for liquidity or uint(-1).",
          "_deadline": "Unix timestamp after which the transaction will revert.",
          "_liquidity": "The amount of liquidity tokens to remove.",
          "_r": "The r component of the permit signature.",
          "_s": "The s component of the permit signature.",
          "_to": "Recipient of the liquidity tokens.",
          "_token": "A pool token.",
          "_v": "The v component of the permit signature."
        },
        "returns": {
          "amountETH_": "The amount of ETH received.",
          "amountToken_": "The amount of token received."
        }
      },
      "removeLiquidityWithPermit(address,address,uint256,uint256,uint256,address,uint256,bool,uint8,bytes32,bytes32)": {
        "params": {
          "_amountAMin": "The minimum amount of tokenA that must be received for the transaction not to revert.",
          "_amountBMin": "The minimum amount of tokenB that must be received for the transaction not to revert.",
          "_approveMax": "Whether or not the approval amount in the signature is for liquidity or uint(-1).",
          "_deadline": "Unix timestamp after which the transaction will revert.",
          "_liquidity": "The amount of liquidity tokens to remove.",
          "_r": "The r component of the permit signature.",
          "_s": "The s component of the permit signature.",
          "_to": "Recipient of the liquidity tokens.",
          "_tokenA": "A pool token.",
          "_tokenB": "A pool token.",
          "_v": "The v component of the permit signature."
        },
        "returns": {
          "amountA_": "The amount of tokenA received.",
          "amountB_": "The amount of tokenB received."
        }
      },
      "smardexMintCallback((address,address,uint256,uint256,address))": {
        "params": {
          "_data": "callback data for mint"
        }
      },
      "smardexSwapCallback(int256,int256,bytes)": {
        "params": {
          "_amount0Delta": "amount of token0 for the swap (negative is incoming, positive is required to pay to pair)",
          "_amount1Delta": "amount of token1 for the swap (negative is incoming, positive is required to pay to pair)",
          "_data": "for Router path and payer for the swap (see router for details)"
        }
      },
      "swapETHForExactTokens(uint256,address[],address,uint256)": {
        "params": {
          "_amountOut": "The amount of tokens to receive.",
          "_deadline": "Unix timestamp after which the transaction will revert.",
          "_path": "An array of token addresses. path.length must be >= 2. Pools for each consecutive pair of addresses must exist and have liquidity.",
          "_to": "Recipient of output tokens."
        },
        "returns": {
          "amountIn_": "The input token amount."
        }
      },
      "swapExactETHForTokens(uint256,address[],address,uint256)": {
        "params": {
          "_amountOutMin": "The minimum amount of output tokens that must be received for the transaction not to revert.",
          "_deadline": "Unix timestamp after which the transaction will revert.",
          "_path": "An array of token addresses. path.length must be >= 2. Pools for each consecutive pair of addresses must exist and have liquidity.",
          "_to": "Recipient of the output tokens."
        },
        "returns": {
          "amountOut_": "The input token amount."
        }
      },
      "swapExactTokensForETH(uint256,uint256,address[],address,uint256)": {
        "params": {
          "_amountIn": "The amount of input tokens to send.",
          "_amountOutMin": "The minimum amount of output tokens that must be received for the transaction not to revert.",
          "_deadline": "Unix timestamp after which the transaction will revert.",
          "_path": "An array of token addresses. path.length must be >= 2. Pools for each consecutive pair of addresses must exist and have liquidity.",
          "_to": "Recipient of ETH."
        },
        "returns": {
          "amountOut_": "The input token amount."
        }
      },
      "swapExactTokensForTokens(uint256,uint256,address[],address,uint256)": {
        "params": {
          "_amountIn": "The amount of input tokens to send.",
          "_amountOutMin": "The minimum amount of output tokens that must be received for the transaction not to revert.",
          "_deadline": "Unix timestamp after which the transaction will revert.",
          "_path": "An array of token addresses. path.length must be >= 2. Pools for each consecutive pair of addresses must exist and have liquidity.",
          "_to": "Recipient of the output tokens."
        },
        "returns": {
          "amountOut_": "The output token amount."
        }
      },
      "swapTokensForExactETH(uint256,uint256,address[],address,uint256)": {
        "params": {
          "_amountInMax": "The maximum amount of input tokens that can be required before the transaction reverts.",
          "_amountOut": "The amount of ETH to receive.",
          "_deadline": "Unix timestamp after which the transaction will revert.",
          "_path": "An array of token addresses. path.length must be >= 2. Pools for each consecutive pair of addresses must exist and have liquidity.",
          "_to": "Recipient of ETH."
        },
        "returns": {
          "amountIn_": "The input token amount."
        }
      },
      "swapTokensForExactTokens(uint256,uint256,address[],address,uint256)": {
        "params": {
          "_amountInMax": "The maximum amount of input tokens that can be required before the transaction reverts.",
          "_amountOut": "The amount of output tokens to receive.",
          "_deadline": "Unix timestamp after which the transaction will revert.",
          "_path": "An array of token addresses. path.length must be >= 2. Pools for each consecutive pair of addresses must exist and have liquidity.",
          "_to": "Recipient of the output tokens."
        },
        "returns": {
          "amountIn_": "The input token amount."
        }
      }
    },
    "stateVariables": {
      "DEFAULT_AMOUNT_IN_CACHED": {
        "details": "Used as the placeholder value for amountInCached, because the computed amount in for an exact output swap can never actually be this value"
      },
      "WETH": {
        "return": "address of the WETH token (Wrapped Ether)",
        "returns": {
          "_0": "address of the WETH token (Wrapped Ether)"
        }
      },
      "amountInCached": {
        "details": "Transient storage variable used for returning the computed amount in for an exact output swap."
      },
      "factory": {
        "return": "address of the factory",
        "returns": {
          "_0": "address of the factory"
        }
      }
    },
    "title": "SmardexRouter",
    "version": 1
  },
  "userdoc": {
    "kind": "user",
    "methods": {
      "WETH()": {
        "notice": "get WETH address"
      },
      "addLiquidity(address,address,uint256,uint256,uint256,uint256,address,uint256)": {
        "notice": "Add liquidity to an ERC-20=ERC-20 pool. Receive liquidity token to materialize shares in the pool"
      },
      "addLiquidityETH(address,uint256,uint256,uint256,address,uint256)": {
        "notice": "Adds liquidity to an ERC-20=WETH pool with ETH. msg.value is the amount of ETH to add as liquidity. if the token/WETH price is <= amountTokenDesired/msg.value (WETH depreciates)."
      },
      "factory()": {
        "notice": "get the factory address"
      },
      "getAmountIn(uint256,uint256,uint256,uint256,uint256,uint256,uint256)": {
        "notice": "return the amount of tokens the user should spend by doing a swap"
      },
      "getAmountOut(uint256,uint256,uint256,uint256,uint256,uint256,uint256)": {
        "notice": "return the amount of tokens the user would get by doing a swap"
      },
      "quote(uint256,uint256,uint256)": {
        "notice": "Given some asset amount and reserves, returns an amount of the other asset representing equivalent value."
      },
      "removeLiquidity(address,address,uint256,uint256,uint256,address,uint256)": {
        "notice": "Removes liquidity from an ERC-20=ERC-20 pool."
      },
      "removeLiquidityETH(address,uint256,uint256,uint256,address,uint256)": {
        "notice": "Removes liquidity from an ERC-20=WETH pool and receive ETH."
      },
      "removeLiquidityETHWithPermit(address,uint256,uint256,uint256,address,uint256,bool,uint8,bytes32,bytes32)": {
        "notice": "Removes liquidity from an ERC-20=WETTH pool and receive ETH without pre-approval"
      },
      "removeLiquidityWithPermit(address,address,uint256,uint256,uint256,address,uint256,bool,uint8,bytes32,bytes32)": {
        "notice": "Removes liquidity from an ERC-20=WETH pool and receive ETH."
      },
      "smardexMintCallback((address,address,uint256,uint256,address))": {
        "notice": "callback to implement when calling SmardexPair.mint"
      },
      "smardexSwapCallback(int256,int256,bytes)": {
        "notice": "callback data for swap"
      },
      "swapETHForExactTokens(uint256,address[],address,uint256)": {
        "notice": "Receive an exact amount of tokens for as little ETH as possible, along the route determined by the path. The first element of path must be WETH, the last is the output token and any intermediate elements represent intermediate pairs to trade through (if, for example, a direct pair does not exist). msg.value The maximum amount of ETH that can be required before the transaction reverts."
      },
      "swapExactETHForTokens(uint256,address[],address,uint256)": {
        "notice": "Swaps an exact amount of ETH for as many output tokens as possible, along the route determined by the path. The first element of path must be WETH, the last is the output token, and any intermediate elements represent intermediate pairs to trade through (if, for example, a direct pair does not exist)."
      },
      "swapExactTokensForETH(uint256,uint256,address[],address,uint256)": {
        "notice": "Swaps an exact amount of tokens for as much ETH as possible, along the route determined by the path. The first element of path is the input token, the last must be WETH, and any intermediate elements represent intermediate pairs to trade through (if, for example, a direct pair does not exist)."
      },
      "swapExactTokensForTokens(uint256,uint256,address[],address,uint256)": {
        "notice": "Swaps an exact amount of input tokens for as many output tokens as possible, along the route determined by the path. The first element of path is the input token, the last is the output token, and any intermediate elements represent intermediate pairs to trade through (if, for example, a direct pair does not exist)."
      },
      "swapTokensForExactETH(uint256,uint256,address[],address,uint256)": {
        "notice": "Receive an exact amount of ETH for as few input tokens as possible, along the route determined by the path. The first element of path is the input token, the last must be WETH, and any intermediate elements represent intermediate pairs to trade through (if, for example, a direct pair does not exist)."
      },
      "swapTokensForExactTokens(uint256,uint256,address[],address,uint256)": {
        "notice": "Receive an exact amount of output tokens for as few input tokens as possible, along the route determined by the path. The first element of path is the input token, the last is the output token, and any intermediate elements represent intermediate tokens to trade through (if, for example, a direct pair does not exist)."
      }
    },
    "notice": "Router for execution of swaps and liquidity management on SmardexPair",
    "version": 1
  },
  "storageLayout": {
    "storage": [
      {
        "astId": 4633,
        "contract": "contracts/periphery/SmardexRouter.sol:SmardexRouter",
        "label": "amountInCached",
        "offset": 0,
        "slot": "0",
        "type": "t_uint256"
      }
    ],
    "types": {
      "t_uint256": {
        "encoding": "inplace",
        "label": "uint256",
        "numberOfBytes": "32"
      }
    }
  }
}