{
  "address": "0x89c64B435947bFc0BF74B645F088d67206f0cc54",
  "abi": [
    {
      "inputs": [
        {
          "internalType": "contract ISmardexFactory",
          "name": "_factory",
          "type": "address"
        },
        {
          "internalType": "contract IERC20",
          "name": "_smardexToken",
          "type": "address"
        },
        {
          "internalType": "contract ISmardexRouter",
          "name": "_router",
          "type": "address"
        }
      ],
      "stateMutability": "nonpayable",
      "type": "constructor"
    },
    {
      "anonymous": false,
      "inputs": [
        {
          "indexed": true,
          "internalType": "address",
          "name": "previousOwner",
          "type": "address"
        },
        {
          "indexed": true,
          "internalType": "address",
          "name": "newOwner",
          "type": "address"
        }
      ],
      "name": "OwnershipTransferred",
      "type": "event"
    },
    {
      "anonymous": false,
      "inputs": [
        {
          "indexed": false,
          "internalType": "contract IERC20",
          "name": "_token0",
          "type": "address"
        },
        {
          "indexed": false,
          "internalType": "uint256",
          "name": "_amount0",
          "type": "uint256"
        },
        {
          "indexed": false,
          "internalType": "contract IERC20",
          "name": "_token1",
          "type": "address"
        },
        {
          "indexed": false,
          "internalType": "uint256",
          "name": "_amount1",
          "type": "uint256"
        },
        {
          "indexed": false,
          "internalType": "uint256",
          "name": "_stakedAmount",
          "type": "uint256"
        }
      ],
      "name": "workExecuted",
      "type": "event"
    },
    {
      "inputs": [
        {
          "internalType": "contract IERC20",
          "name": "_token0",
          "type": "address"
        },
        {
          "internalType": "contract IERC20",
          "name": "_token1",
          "type": "address"
        }
      ],
      "name": "executeWork",
      "outputs": [],
      "stateMutability": "nonpayable",
      "type": "function"
    },
    {
      "inputs": [],
      "name": "factory",
      "outputs": [
        {
          "internalType": "contract ISmardexFactory",
          "name": "",
          "type": "address"
        }
      ],
      "stateMutability": "view",
      "type": "function"
    },
    {
      "inputs": [],
      "name": "owner",
      "outputs": [
        {
          "internalType": "address",
          "name": "",
          "type": "address"
        }
      ],
      "stateMutability": "view",
      "type": "function"
    },
    {
      "inputs": [],
      "name": "renounceOwnership",
      "outputs": [],
      "stateMutability": "nonpayable",
      "type": "function"
    },
    {
      "inputs": [],
      "name": "router",
      "outputs": [
        {
          "internalType": "contract ISmardexRouter",
          "name": "",
          "type": "address"
        }
      ],
      "stateMutability": "view",
      "type": "function"
    },
    {
      "inputs": [
        {
          "internalType": "int256",
          "name": "_amount0Delta",
          "type": "int256"
        },
        {
          "internalType": "int256",
          "name": "_amount1Delta",
          "type": "int256"
        },
        {
          "internalType": "bytes",
          "name": "_dataFromPair",
          "type": "bytes"
        }
      ],
      "name": "smardexSwapCallback",
      "outputs": [],
      "stateMutability": "nonpayable",
      "type": "function"
    },
    {
      "inputs": [],
      "name": "smardexToken",
      "outputs": [
        {
          "internalType": "contract IERC20",
          "name": "",
          "type": "address"
        }
      ],
      "stateMutability": "view",
      "type": "function"
    },
    {
      "inputs": [
        {
          "internalType": "uint256",
          "name": "_amountToSwap",
          "type": "uint256"
        },
        {
          "internalType": "uint256",
          "name": "_amountOutMin",
          "type": "uint256"
        },
        {
          "internalType": "address[]",
          "name": "_path",
          "type": "address[]"
        },
        {
          "internalType": "uint256",
          "name": "_deadline",
          "type": "uint256"
        }
      ],
      "name": "swapTokenWithPath",
      "outputs": [],
      "stateMutability": "nonpayable",
      "type": "function"
    },
    {
      "inputs": [
        {
          "internalType": "address",
          "name": "newOwner",
          "type": "address"
        }
      ],
      "name": "transferOwnership",
      "outputs": [],
      "stateMutability": "nonpayable",
      "type": "function"
    },
    {
      "inputs": [],
      "name": "transferTokens",
      "outputs": [
        {
          "internalType": "uint256",
          "name": "_amount",
          "type": "uint256"
        }
      ],
      "stateMutability": "nonpayable",
      "type": "function"
    }
  ],
  "transactionHash": "0xbc35189e5da404065054061164bce062feaf22d47a853fa119367cab257ab9f3",
  "args": [
    "0x41A00e3FbE7F479A99bA6822704d9c5dEB611F22",
    "0xabD587f2607542723b17f14d00d99b987C29b074",
    "0xdd4536dD9636564D891c919416880a3e250f975A"
  ],
  "numDeployments": 2,
  "solcInputHash": "f221504ed38646ee69cfb1e042ac8e41",
  "bytecode": "0x60e0604052600180546001600160a01b03191690553480156200002157600080fd5b5060405162001d7a38038062001d7a8339810160408190526200004491620001a0565b6200004f3362000137565b6001600160a01b038316620000b75760405162461bcd60e51b8152602060048201526024808201527f4175746f537761707065723a20494e56414c49445f464143544f52595f4144446044820152635245535360e01b60648201526084015b60405180910390fd5b6001600160a01b038216620001195760405162461bcd60e51b815260206004820152602160248201527f4175746f537761707065723a20494e56414c49445f534445585f4144445245536044820152605360f81b6064820152608401620000ae565b6001600160a01b0392831660805290821660a0521660c052620001f4565b600080546001600160a01b038381166001600160a01b0319831681178455604051919092169283917f8be0079c531659141344cd1fd0a4f28419497f9722a3daafe3b4186f6b6457e09190a35050565b6001600160a01b03811681146200019d57600080fd5b50565b600080600060608486031215620001b657600080fd5b8351620001c38162000187565b6020850151909350620001d68162000187565b6040850151909250620001e98162000187565b809150509250925092565b60805160a05160c051611b0a6200027060003960008181610190015281816103cb015261040701526000818160eb01528181610219015281816104ae01528181610536015281816109f101528181610a4501528181610af301528181610eaa0152610efe0152600081816101560152610b210152611b0a6000f3fe608060405234801561001057600080fd5b506004361061009e5760003560e01c80638da5cb5b116100665780638da5cb5b1461012d578063a1dab4eb1461013e578063c45a015514610151578063f2fde38b14610178578063f887ea401461018b57600080fd5b80630d8e329f146100a35780631792b0bc146100b85780633048c029146100d3578063670b3a0b146100e6578063715018a614610125575b600080fd5b6100b66100b1366004611578565b6101b2565b005b6100c0610496565b6040519081526020015b60405180910390f35b6100b66100e1366004611618565b610562565b61010d7f000000000000000000000000000000000000000000000000000000000000000081565b6040516001600160a01b0390911681526020016100ca565b6100b66105e9565b6000546001600160a01b031661010d565b6100b661014c366004611651565b6105fd565b61010d7f000000000000000000000000000000000000000000000000000000000000000081565b6100b66101863660046116e1565b61079d565b61010d7f000000000000000000000000000000000000000000000000000000000000000081565b6101ba610816565b6001821161020f5760405162461bcd60e51b815260206004820152601960248201527f4175746f537761707065723a20494e56414c49445f504154480000000000000060448201526064015b60405180910390fd5b6001600160a01b037f0000000000000000000000000000000000000000000000000000000000000000168383610246600182611714565b81811061025557610255611727565b905060200201602081019061026a91906116e1565b6001600160a01b0316146102c05760405162461bcd60e51b815260206004820152601f60248201527f4175746f537761707065723a20494e56414c49445f4c4153545f544f4b454e006044820152606401610206565b6000838360008181106102d5576102d5611727565b90506020020160208101906102ea91906116e1565b6040516370a0823160e01b81523060048201529091506000906001600160a01b038316906370a0823190602401602060405180830381865afa158015610334573d6000803e3d6000fd5b505050506040513d601f19601f82011682018060405250810190610358919061173d565b9050808711156103aa5760405162461bcd60e51b815260206004820152601b60248201527f4175746f537761707065723a20494e56414c49445f414d4f554e5400000000006044820152606401610206565b600087156103b95750866103bc565b50805b6103f06001600160a01b0384167f000000000000000000000000000000000000000000000000000000000000000083610870565b6040516338ed173960e01b81526001600160a01b037f000000000000000000000000000000000000000000000000000000000000000016906338ed1739906104489084908b908b908b9061dead908c90600401611756565b6020604051808303816000875af1158015610467573d6000803e3d6000fd5b505050506040513d601f19601f8201168201806040525081019061048b919061173d565b505050505050505050565b6040516370a0823160e01b81523060048201526000907f00000000000000000000000000000000000000000000000000000000000000006001600160a01b0316906370a0823190602401602060405180830381865afa1580156104fd573d6000803e3d6000fd5b505050506040513d601f19601f82011682018060405250810190610521919061173d565b9050801561055f5761055f6001600160a01b037f00000000000000000000000000000000000000000000000000000000000000001661dead836109bd565b90565b600061056d836109ed565b9050600061057a836109ed565b90506000610586610496565b604080516001600160a01b03888116825260208201879052871681830152606081018590526080810183905290519192507f0b6eeea8768a790ff3f62dab688244fe95ad07a174472faf825b3a0f2cd74998919081900360a00190a15050505050565b6105f1610816565b6105fb6000611021565b565b600084138061060c5750600083135b6106675760405162461bcd60e51b815260206004820152602660248201527f536d6172646578526f757465723a2043616c6c6261636b20496e76616c696420604482015265185b5bdd5b9d60d21b6064820152608401610206565b60008061067683850185611839565b9150915060006106898360000151611071565b506001549091506001600160a01b031633146106e75760405162461bcd60e51b815260206004820152601b60248201527f536d6172446578526f757465723a20494e56414c49445f5041495200000000006044820152606401610206565b8160008812610706576107016106fc8861190f565b611092565b61070f565b61070f8861190f565b10156107675760405162461bcd60e51b815260206004820152602160248201527f536d61726465784175746f537761707065723a20496e76616c696420707269636044820152606560f81b6064820152608401610206565b61079433600089136107815761077c88611092565b610783565b885b6001600160a01b03841691906109bd565b50505050505050565b6107a5610816565b6001600160a01b03811661080a5760405162461bcd60e51b815260206004820152602660248201527f4f776e61626c653a206e6577206f776e657220697320746865207a65726f206160448201526564647265737360d01b6064820152608401610206565b61081381611021565b50565b6000546001600160a01b031633146105fb5760405162461bcd60e51b815260206004820181905260248201527f4f776e61626c653a2063616c6c6572206973206e6f7420746865206f776e65726044820152606401610206565b8015806108ea5750604051636eb1769f60e11b81523060048201526001600160a01b03838116602483015284169063dd62ed3e90604401602060405180830381865afa1580156108c4573d6000803e3d6000fd5b505050506040513d601f19601f820116820180604052508101906108e8919061173d565b155b6109555760405162461bcd60e51b815260206004820152603660248201527f5361666545524332303a20617070726f76652066726f6d206e6f6e2d7a65726f60448201527520746f206e6f6e2d7a65726f20616c6c6f77616e636560501b6064820152608401610206565b6040516001600160a01b0383166024820152604481018290526109b890849063095ea7b360e01b906064015b60408051601f198184030181529190526020810180516001600160e01b03166001600160e01b0319909316929092179091526110e8565b505050565b6040516001600160a01b0383166024820152604481018290526109b890849063a9059cbb60e01b90606401610981565b60007f00000000000000000000000000000000000000000000000000000000000000006001600160a01b0316826001600160a01b031603610a3057506000919050565b60408051610140810182526001600160a01b037f00000000000000000000000000000000000000000000000000000000000000008116908516908110825291516370a0823160e01b815230600482015260009260208301916370a0823190602401602060405180830381865afa158015610aae573d6000803e3d6000fd5b505050506040513d601f19601f82011682018060405250810190610ad2919061173d565b815260405163e6a4390560e01b81526001600160a01b0386811660048301527f0000000000000000000000000000000000000000000000000000000000000000811660248301526020909201917f0000000000000000000000000000000000000000000000000000000000000000169063e6a4390590604401602060405180830381865afa158015610b68573d6000803e3d6000fd5b505050506040513d601f19601f82011682018060405250810190610b8c919061192b565b6001600160a01b0316815260200160008152602001600081526020016000815260200160008152602001600081526020016000815260200160008152509050806020015160001480610be9575060408101516001600160a01b0316155b15610bf75750600092915050565b80604001516001600160a01b0316639a20767b6040518163ffffffff1660e01b81526004016040805180830381865afa158015610c38573d6000803e3d6000fd5b505050506040513d601f19601f82011682018060405250810190610c5c9190611948565b82606001836080018281525082815250505080604001516001600160a01b031663ee2046c76040518163ffffffff1660e01b8152600401606060405180830381865afa158015610cb0573d6000803e3d6000fd5b505050506040513d601f19601f82011682018060405250810190610cd4919061196c565b60e084015260c083015260a082018190521580610cf3575060c0810151155b15610d0d576060810151608082015160c083015260a08201525b805115610d4757610d36816060015182608001518360e001518460a001518560c00151426111bd565b610120830152610100820152610d76565b610d69816080015182606001518360e001518460c001518560a00151426111bd565b6101208301526101008201525b60006064826101000151610d8a919061199a565b610d9660026064611714565b8361012001518460200151610dab919061199a565b610db5919061199a565b610dbf91906119b1565b905080600003610e225760405162461bcd60e51b815260206004820152602860248201527f4175746f537761707065723a20736c6970706167652063616c63756c6174696f6044820152671b8819985a5b195960c21b6064820152608401610206565b604082810151600180546001600160a01b0319166001600160a01b039283169081179091558251808401909352601f83527f7377617028616464726573732c626f6f6c2c696e743235362c6279746573290060209384015291840151600092917f1f18b371673edaf789f1294779860fb7f197b936e2358a9ded3d78b4099e834f9161dead917f00000000000000000000000000000000000000000000000000000000000000008116908a161090610ed9906112ac565b604080518082019091526bffffffffffffffffffffffff1960608c811b8216818401527f0000000000000000000000000000000000000000000000000000000000000000901b166074820152806088810160408051601f198184030181529181529082523060209283015251610f5292918a9101611a23565b60408051601f1981840301815290829052610f7294939291602401611a60565b60408051601f198184030181529181526020820180516001600160e01b03166001600160e01b0319909416939093179092529051610fb09190611a99565b6000604051808303816000865af19150503d8060008114610fed576040519150601f19603f3d011682016040523d82523d6000602084013e610ff2565b606091505b5050600180546001600160a01b0319169055905080611012576000611018565b82602001515b95945050505050565b600080546001600160a01b038381166001600160a01b0319831681178455604051919092169283917f8be0079c531659141344cd1fd0a4f28419497f9722a3daafe3b4186f6b6457e09190a35050565b60008061107e8382611316565b915061108b836014611316565b9050915091565b6000808212156110e45760405162461bcd60e51b815260206004820181905260248201527f53616665436173743a2076616c7565206d75737420626520706f7369746976656044820152606401610206565b5090565b600061113d826040518060400160405280602081526020017f5361666545524332303a206c6f772d6c6576656c2063616c6c206661696c6564815250856001600160a01b03166113d09092919063ffffffff16565b905080516000148061115e57508080602001905181019061115e9190611ab5565b6109b85760405162461bcd60e51b815260206004820152602a60248201527f5361666545524332303a204552433230206f7065726174696f6e20646964206e6044820152691bdd081cdd58d8d9595960b21b6064820152608401610206565b600080858310156112105760405162461bcd60e51b815260206004820152601e60248201527f536d6172646578506169723a20494e56414c49445f54494d455354414d5000006044820152606401610206565b856000036112225750869050856112a1565b8286036112335750839050826112a1565b600061124a6112428886611714565b61012c6113e7565b899350905061012c61125c898361199a565b87858861126b8661012c611714565b611275919061199a565b61127f919061199a565b61128991906119b1565b6112939190611ad7565b61129d91906119b1565b9150505b965096945050505050565b60006001600160ff1b038211156110e45760405162461bcd60e51b815260206004820152602860248201527f53616665436173743a2076616c756520646f65736e27742066697420696e2061604482015267371034b73a191a9b60c11b6064820152608401610206565b600081611324816014611ad7565b10156113675760405162461bcd60e51b8152602060048201526012602482015271746f416464726573735f6f766572666c6f7760701b6044820152606401610206565b611372826014611ad7565b835110156113ba5760405162461bcd60e51b8152602060048201526015602482015274746f416464726573735f6f75744f66426f756e647360581b6044820152606401610206565b5081810160200151600160601b90045b92915050565b60606113df84846000856113ff565b949350505050565b60008183106113f657816113f8565b825b9392505050565b6060824710156114605760405162461bcd60e51b815260206004820152602660248201527f416464726573733a20696e73756666696369656e742062616c616e636520666f6044820152651c8818d85b1b60d21b6064820152608401610206565b600080866001600160a01b0316858760405161147c9190611a99565b60006040518083038185875af1925050503d80600081146114b9576040519150601f19603f3d011682016040523d82523d6000602084013e6114be565b606091505b50915091506114cf878383876114da565b979650505050505050565b60608315611549578251600003611542576001600160a01b0385163b6115425760405162461bcd60e51b815260206004820152601d60248201527f416464726573733a2063616c6c20746f206e6f6e2d636f6e74726163740000006044820152606401610206565b50816113df565b6113df838381511561155e5781518083602001fd5b8060405162461bcd60e51b81526004016102069190611aea565b60008060008060006080868803121561159057600080fd5b8535945060208601359350604086013567ffffffffffffffff808211156115b657600080fd5b818801915088601f8301126115ca57600080fd5b8135818111156115d957600080fd5b8960208260051b85010111156115ee57600080fd5b96999598505060200195606001359392505050565b6001600160a01b038116811461081357600080fd5b6000806040838503121561162b57600080fd5b823561163681611603565b9150602083013561164681611603565b809150509250929050565b6000806000806060858703121561166757600080fd5b8435935060208501359250604085013567ffffffffffffffff8082111561168d57600080fd5b818701915087601f8301126116a157600080fd5b8135818111156116b057600080fd5b8860208285010111156116c257600080fd5b95989497505060200194505050565b80356116dc81611603565b919050565b6000602082840312156116f357600080fd5b81356113f881611603565b634e487b7160e01b600052601160045260246000fd5b818103818111156113ca576113ca6116fe565b634e487b7160e01b600052603260045260246000fd5b60006020828403121561174f57600080fd5b5051919050565b868152602080820187905260a0604083018190528201859052600090869060c08401835b888110156117a857833561178d81611603565b6001600160a01b03168252928201929082019060010161177a565b506001600160a01b0396909616606085015250505060800152949350505050565b634e487b7160e01b600052604160045260246000fd5b6040805190810167ffffffffffffffff81118282101715611802576118026117c9565b60405290565b604051601f8201601f1916810167ffffffffffffffff81118282101715611831576118316117c9565b604052919050565b6000806040838503121561184c57600080fd5b823567ffffffffffffffff8082111561186457600080fd5b908401906040828703121561187857600080fd5b6118806117df565b82358281111561188f57600080fd5b8301601f810188136118a057600080fd5b80356020848211156118b4576118b46117c9565b6118c6601f8301601f19168201611808565b945081855289818385010111156118dc57600080fd5b818184018287013760008183870101528484526118fa8187016116d1565b84820152929997909201359750505050505050565b6000600160ff1b8201611924576119246116fe565b5060000390565b60006020828403121561193d57600080fd5b81516113f881611603565b6000806040838503121561195b57600080fd5b505080516020909101519092909150565b60008060006060848603121561198157600080fd5b8351925060208401519150604084015190509250925092565b80820281158282048414176113ca576113ca6116fe565b6000826119ce57634e487b7160e01b600052601260045260246000fd5b500490565b60005b838110156119ee5781810151838201526020016119d6565b50506000910152565b60008151808452611a0f8160208601602086016119d3565b601f01601f19169290920160200192915050565b6040815260008351604080840152611a3e60808401826119f7565b6020958601516001600160a01b03166060850152929094019290925292915050565b60018060a01b03851681528315156020820152826040820152608060608201526000611a8f60808301846119f7565b9695505050505050565b60008251611aab8184602087016119d3565b9190910192915050565b600060208284031215611ac757600080fd5b815180151581146113f857600080fd5b808201808211156113ca576113ca6116fe565b6020815260006113f860208301846119f756fea164736f6c6343000811000a",
  "devdoc": {
    "kind": "dev",
    "methods": {
      "executeWork(address,address)": {
        "params": {
          "_token0": "token to be converted to sdex",
          "_token1": "token to be converted to sdex"
        }
      },
      "owner()": {
        "details": "Returns the address of the current owner."
      },
      "renounceOwnership()": {
        "details": "Leaves the contract without owner. It will not be possible to call `onlyOwner` functions. Can only be called by the current owner. NOTE: Renouncing ownership will leave the contract without an owner, thereby disabling any functionality that is only available to the owner."
      },
      "smardexSwapCallback(int256,int256,bytes)": {
        "params": {
          "_amount0Delta": "amount of token0 for the swap (negative is incoming, positive is required to pay to pair)",
          "_amount1Delta": "amount of token1 for the swap (negative is incoming, positive is required to pay to pair)",
          "_data": "for Router path and payer for the swap (see router for details)"
        }
      },
      "swapTokenWithPath(uint256,uint256,address[],uint256)": {
        "params": {
          "_amountOutMin": "The minimum SDEX amount required to prevent the transaction from reverting",
          "_amountToSwap": "amount of tokens from _path[0] to be converted into SDEX",
          "_deadline": "Unix timestamp after which the transaction will revert",
          "_path": "An array of token addresses. path.length must be >= 2. Pools for each consecutive pair of addresses must exist and have liquidity. Last token must be SDEX"
        }
      },
      "transferOwnership(address)": {
        "details": "Transfers ownership of the contract to a new account (`newOwner`). Can only be called by the current owner."
      },
      "transferTokens()": {
        "returns": {
          "_amount": "the transferred SDEX amount"
        }
      }
    },
    "stateVariables": {
      "factory": {
        "return": "factory address",
        "returns": {
          "_0": "factory address"
        }
      },
      "smardexToken": {
        "return": "smardexToken address",
        "returns": {
          "_0": "smardexToken address"
        }
      }
    },
    "title": "AutoSwapper",
    "version": 1
  },
  "userdoc": {
    "events": {
      "workExecuted(address,uint256,address,uint256,uint256)": {
        "notice": "emitted every time the AutoSwapper swaps and stacks SDEXs"
      }
    },
    "kind": "user",
    "methods": {
      "executeWork(address,address)": {
        "notice": "public function for executing swaps on tokens and burn, will be called from a Smardex Pair on mint and burn, and can be forced call by anyone"
      },
      "factory()": {
        "notice": "return the factory address"
      },
      "smardexSwapCallback(int256,int256,bytes)": {
        "notice": "callback data for swap"
      },
      "smardexToken()": {
        "notice": "return the smardexToken address"
      },
      "swapTokenWithPath(uint256,uint256,address[],uint256)": {
        "notice": "onlyOwner function to swap token in SDEX and send it to the staking address (or burn on L2)"
      },
      "transferTokens()": {
        "notice": "transfer SDEX from here to address dead"
      }
    },
    "notice": "AutoSwapper makes it automatic and/or public to get fees from Smardex and burn it",
    "version": 1
  },
  "storageLayout": {
    "storage": [
      {
        "astId": 7,
        "contract": "contracts/rewards/AutoSwapperL2.sol:AutoSwapperL2",
        "label": "_owner",
        "offset": 0,
        "slot": "0",
        "type": "t_address"
      },
      {
        "astId": 6243,
        "contract": "contracts/rewards/AutoSwapperL2.sol:AutoSwapperL2",
        "label": "cachedPair",
        "offset": 0,
        "slot": "1",
        "type": "t_contract(ISmardexPair)3701"
      }
    ],
    "types": {
      "t_address": {
        "encoding": "inplace",
        "label": "address",
        "numberOfBytes": "20"
      },
      "t_contract(ISmardexPair)3701": {
        "encoding": "inplace",
        "label": "contract ISmardexPair",
        "numberOfBytes": "20"
      }
    }
  }
}