{
  "address": "0x863799a120EDD11CA8718a3a93F1BeB138a97c41",
  "abi": [
    {
      "inputs": [
        {
          "internalType": "address",
          "name": "_farming",
          "type": "address"
        }
      ],
      "stateMutability": "nonpayable",
      "type": "constructor"
    },
    {
      "inputs": [],
      "name": "farming",
      "outputs": [
        {
          "internalType": "contract IFarmingRange",
          "name": "",
          "type": "address"
        }
      ],
      "stateMutability": "view",
      "type": "function"
    },
    {
      "inputs": [
        {
          "internalType": "uint256",
          "name": "_campaignId",
          "type": "uint256"
        }
      ],
      "name": "resetAllowance",
      "outputs": [],
      "stateMutability": "nonpayable",
      "type": "function"
    },
    {
      "inputs": [
        {
          "internalType": "address",
          "name": "_token",
          "type": "address"
        },
        {
          "internalType": "uint256",
          "name": "_amount",
          "type": "uint256"
        },
        {
          "internalType": "address",
          "name": "_to",
          "type": "address"
        }
      ],
      "name": "withdrawFunds",
      "outputs": [],
      "stateMutability": "nonpayable",
      "type": "function"
    }
  ],
  "transactionHash": "0x20bd7f7afd9c4dc2e9c0460fa39b09d5b4db604f95999e1a9035062e751bffeb",
  "args": [
    "0x45C75bd8Bb9CF5263539b914925EabBF0441Eb14"
  ],
  "numDeployments": 1,
  "solcInputHash": "f447c3775d13fb550cefdc7d0a632a97",
  "bytecode": "0x60a060405234801561001057600080fd5b50604051613ec5380380613ec583398101604081905261002f9161014a565b803060405161003d9061013d565b6001600160a01b039091168152602001604051809103906000f080158015610069573d6000803e3d6000fd5b506001600160a01b039081166080819052604080518082018252601a81527f7472616e736665724f776e65727368697028616464726573732900000000000060209182015281519385166024808601919091528251808603909101815260449094018252830180516001600160e01b031663f2fde38b60e01b1790525190916100f19161017a565b6000604051808303816000865af19150503d806000811461012e576040519150601f19603f3d011682016040523d82523d6000602084013e610133565b606091505b50505050506101a9565b6134bd80610a0883390190565b60006020828403121561015c57600080fd5b81516001600160a01b038116811461017357600080fd5b9392505050565b6000825160005b8181101561019b5760208186018101518583015201610181565b506000920191825250919050565b60805161081c6101ec6000396000818160600152818160b3015281816101de015281816102d80152818161036a015281816103f70152610423015261081c6000f3fe608060405234801561001057600080fd5b50600436106100415760003560e01c806347c6b45e146100465780634e3ad80f1461005b578063eee4f11b1461009e575b600080fd5b6100596100543660046106bf565b6100b1565b005b6100827f000000000000000000000000000000000000000000000000000000000000000081565b6040516001600160a01b03909116815260200160405180910390f35b6100596100ac366004610701565b6101dc565b7f00000000000000000000000000000000000000000000000000000000000000006001600160a01b0316638da5cb5b6040518163ffffffff1660e01b8152600401602060405180830381865afa15801561010f573d6000803e3d6000fd5b505050506040513d601f19601f82011682018060405250810190610133919061071a565b6001600160a01b0316336001600160a01b0316146101cc5760405162461bcd60e51b815260206004820152604560248201527f5265776172644d616e616765723a776974686472617746756e64733a4f6e6c7960448201527f20746865206661726d696e67206f776e65722063616e2077697468647261772060648201526466756e647360d81b608482015260a4015b60405180910390fd5b6101d783828461044e565b505050565b7f00000000000000000000000000000000000000000000000000000000000000006001600160a01b0316634ad7ce806040518163ffffffff1660e01b8152600401602060405180830381865afa15801561023a573d6000803e3d6000fd5b505050506040513d601f19601f8201168201806040525081019061025e919061073e565b81106102bf5760405162461bcd60e51b815260206004820152602a60248201527f5265776172644d616e616765723a63616d706169676e49643a77726f6e672063604482015269185b5c185a59db88125160b21b60648201526084016101c3565b604051632ec88e3b60e21b8152600481018290526000907f00000000000000000000000000000000000000000000000000000000000000006001600160a01b03169063bb2238ec9060240160e060405180830381865afa158015610327573d6000803e3d6000fd5b505050506040513d601f19601f8201168201806040525081019061034b9190610757565b5050604051636eb1769f60e11b81523060048201526001600160a01b037f000000000000000000000000000000000000000000000000000000000000000081166024830152949650938616945063dd62ed3e9360440192506103ab915050565b602060405180830381865afa1580156103c8573d6000803e3d6000fd5b505050506040513d601f19601f820116820180604052508101906103ec919061073e565b1561041d5761041d817f0000000000000000000000000000000000000000000000000000000000000000600061057f565b61044a817f000000000000000000000000000000000000000000000000000000000000000060001961057f565b5050565b604080516001600160a01b038481166024830152604480830185905283518084039091018152606490920183526020820180516001600160e01b031663a9059cbb60e01b17905291516000928392908716916104aa91906107be565b6000604051808303816000865af19150503d80600081146104e7576040519150601f19603f3d011682016040523d82523d6000602084013e6104ec565b606091505b509150915081801561051657508051158061051657508080602001905181019061051691906107ed565b6105785760405162461bcd60e51b815260206004820152602d60248201527f5472616e7366657248656c7065723a3a736166655472616e736665723a20747260448201526c185b9cd9995c8819985a5b1959609a1b60648201526084016101c3565b5050505050565b604080516001600160a01b038481166024830152604480830185905283518084039091018152606490920183526020820180516001600160e01b031663095ea7b360e01b17905291516000928392908716916105db91906107be565b6000604051808303816000865af19150503d8060008114610618576040519150601f19603f3d011682016040523d82523d6000602084013e61061d565b606091505b509150915081801561064757508051158061064757508080602001905181019061064791906107ed565b6105785760405162461bcd60e51b815260206004820152602b60248201527f5472616e7366657248656c7065723a3a73616665417070726f76653a2061707060448201526a1c9bdd994819985a5b195960aa1b60648201526084016101c3565b6001600160a01b03811681146106bc57600080fd5b50565b6000806000606084860312156106d457600080fd5b83356106df816106a7565b92506020840135915060408401356106f6816106a7565b809150509250925092565b60006020828403121561071357600080fd5b5035919050565b60006020828403121561072c57600080fd5b8151610737816106a7565b9392505050565b60006020828403121561075057600080fd5b5051919050565b600080600080600080600060e0888a03121561077257600080fd5b875161077d816106a7565b602089015190975061078e816106a7565b604089015160608a015160808b015160a08c015160c0909c01519a9d939c50919a90999198509650945092505050565b6000825160005b818110156107df57602081860181015185830152016107c5565b506000920191825250919050565b6000602082840312156107ff57600080fd5b8151801515811461073757600080fdfea164736f6c6343000811000a60a06040523480156200001157600080fd5b50604051620034bd380380620034bd83398101604081905262000034916200012d565b806200004033620000dd565b6001805560346005556001600160a01b038116620000ca5760405162461bcd60e51b815260206004820152603860248201527f4661726d696e6752616e67653a3a636f6e7374727563746f723a3a526577617260448201527f64206d616e61676572206973206e6f7420646566696e65640000000000000000606482015260840160405180910390fd5b6001600160a01b0316608052506200015f565b600080546001600160a01b038381166001600160a01b0319831681178455604051919092169283917f8be0079c531659141344cd1fd0a4f28419497f9722a3daafe3b4186f6b6457e09190a35050565b6000602082840312156200014057600080fd5b81516001600160a01b03811681146200015857600080fd5b9392505050565b608051613318620001a56000396000818161020a015281816115b801528181611bdd01528181611c4c01528181611d11015281816123bf015261261301526133186000f3fe608060405234801561001057600080fd5b50600436106101e45760003560e01c80635d14b06f1161010f5780639a63bc16116100a2578063e2bbb15811610071578063e2bbb1581461047f578063eebdced514610492578063f2fde38b1461049a578063fa8f5f19146104ad57600080fd5b80639a63bc16146103f3578063bb2238ec14610406578063cdc8c93014610459578063cef7042d1461046c57600080fd5b80638d48aff0116100de5780638d48aff01461038a5780638da5cb5b1461039d57806393f1a40b146103ae57806398969e82146103e057600080fd5b80635d14b06f14610349578063715018a61461035c5780637bafb0291461036457806380637e891461037757600080fd5b80633bbda19b116101875780634ad7ce80116101565780634ad7ce80146103065780634ae56bae1461030e5780634eec62ce1461032e5780635312ea8e1461033657600080fd5b80633bbda19b146102ba578063409e00fc146102cd57806342ee0aba146102e0578063441a3e70146102f357600080fd5b80631693074b116101c35780631693074b1461026c5780632ea807c51461028157806330d78fda1461029457806333824b87146102a757600080fd5b8062d74850146101e95780630f4ef8a61461020557806310f7a6af14610244575b600080fd5b6101f260055481565b6040519081526020015b60405180910390f35b61022c7f000000000000000000000000000000000000000000000000000000000000000081565b6040516001600160a01b0390911681526020016101fc565b610257610252366004612c5f565b6104c0565b604080519283526020830191909152016101fc565b61027f61027a366004612c96565b6104fc565b005b61027f61028f366004612ce7565b610585565b61027f6102a2366004612d21565b6108c4565b61027f6102b5366004612d8f565b610921565b61027f6102c8366004612df4565b610964565b61027f6102db366004612e6e565b610a36565b61027f6102ee366004612f60565b610ca8565b61027f610301366004612c5f565b610da5565b6003546101f2565b6101f261031c366004612d8f565b60009081526002602052604090205490565b6101f2610dc4565b61027f610344366004612d8f565b610e2e565b61027f610357366004612ff2565b610ef6565b61027f610f3d565b6101f2610372366004612ce7565b610f51565b61027f610385366004612d8f565b610f9a565b6101f2610398366004612d8f565b6111ba565b6000546001600160a01b031661022c565b6102576103bc366004613034565b60046020908152600092835260408084209091529082529020805460019091015482565b6101f26103ee366004613034565b6111d3565b6101f2610401366004612d8f565b611208565b610419610414366004612d8f565b61121b565b604080516001600160a01b039889168152979096166020880152948601939093526060850191909152608084015260a083015260c082015260e0016101fc565b61027f610467366004613064565b611277565b61027f61047a366004612d8f565b6116a6565b61027f61048d366004612c5f565b6116c0565b61027f611822565b61027f6104a8366004613096565b611853565b61027f6104bb3660046130b3565b6118c9565b600260205281600052604060002081815481106104dc57600080fd5b600091825260209091206002909102018054600190910154909250905082565b33301461056a5760405162461bcd60e51b815260206004820152603160248201527f4661726d696e6752616e67653a3a617474656d70745472616e736665723a3a53604482015270656e646572206e6f74206661726d696e6760781b60648201526084015b60405180910390fd5b61057f6001600160a01b038516848484611aa0565b50505050565b61058d611b0b565b610595611b65565b600083815260026020526040812060038054919291869081106105ba576105ba613177565b9060005260206000209060070201905060055482805490501061064f5760405162461bcd60e51b815260206004820152604160248201527f4661726d696e6752616e67653a3a616464526577617264496e666f3a3a72657760448201527f61726420696e666f206c656e677468206578636565647320746865206c696d696064820152601d60fa1b608482015260a401610561565b815415806106955750610660610dc4565b82548390610670906001906131a3565b8154811061068057610680613177565b90600052602060002090600202016000015410155b6106fa5760405162461bcd60e51b815260206004820152603060248201527f4661726d696e6752616e67653a3a616464526577617264496e666f3a3a72657760448201526f185c99081c195c9a5bd908195b99195960821b6064820152608401610561565b815415806107395750815484908390610715906001906131a3565b8154811061072557610725613177565b906000526020600020906002020160000154105b61079b5760405162461bcd60e51b815260206004820152602d60248201527f4661726d696e6752616e67653a3a616464526577617264496e666f3a3a62616460448201526c206e657720656e64626c6f636b60981b6064820152608401610561565b8154600090156107dc57825483906107b5906001906131a3565b815481106107c5576107c5613177565b9060005260206000209060020201600001546107e2565b81600201545b905060006107f082876131a3565b905060006107fe82876131b6565b905080846006015461081091906131cd565b6006850155604080518082019091528781526020808201888152875460018181018a5560008a815293909320935160029091029093019283555191810191909155840154610868906001600160a01b0316828a611bbe565b8454610876906001906131a3565b60408051898152602081018990528a917fad90731bd0d97445f5af66088f3adebf343c520c20e033cc42f93b124258cdc2910160405180910390a350505050506108bf60018055565b505050565b61090e600388815481106108da576108da613177565b60009182526020909120600790910201546001600160a01b03163330886109015789610905565b6000195b88888888611d37565b61091887876116c0565b50505050505050565b610929611b0b565b60058190556040518181527fb64f58843e750a8bea7135ef396cf0a7790bfc9a8f43f11ac0e0aacc1b5787ba9060200160405180910390a150565b61096c611b0b565b8281146109e15760405162461bcd60e51b815260206004820152603860248201527f4661726d696e6752616e67653a3a6164645265776172644d756c7469706c653a60448201527f3a77726f6e6720706172616d6574657273206c656e67746800000000000000006064820152608401610561565b60005b808414610a2e57610a2686868684818110610a0157610a01613177565b90506020020135858585818110610a1a57610a1a613177565b90506020020135610585565b6001016109e4565b505050505050565b610a3e611b0b565b610a46610dc4565b8111610ac55760405162461bcd60e51b815260206004820152604260248201527f4661726d696e6752616e67653a3a61646443616d706169676e496e666f3a3a5360448201527f7461727420626c6f636b2073686f756c6420626520696e207468652066757475606482015261726560f01b608482015260a401610561565b6040805160e0810182526001600160a01b038086168252848116602083019081529282018481526060830185815260006080850181815260a0860182815260c08701838152600380546001818101835595829052985160079099027fc2575a0e9e593c00f959f8c92f12db2869c3395a3b0502d05e2516446f71f85b810180549a8a166001600160a01b03199b8c1617905599517fc2575a0e9e593c00f959f8c92f12db2869c3395a3b0502d05e2516446f71f85c8b0180549190991699169890981790965593517fc2575a0e9e593c00f959f8c92f12db2869c3395a3b0502d05e2516446f71f85d88015591517fc2575a0e9e593c00f959f8c92f12db2869c3395a3b0502d05e2516446f71f85e87015590517fc2575a0e9e593c00f959f8c92f12db2869c3395a3b0502d05e2516446f71f85f86015590517fc2575a0e9e593c00f959f8c92f12db2869c3395a3b0502d05e2516446f71f86085015590517fc2575a0e9e593c00f959f8c92f12db2869c3395a3b0502d05e2516446f71f8619093019290925554610c5891906131a3565b604080516001600160a01b038087168252851660208201529081018390527f9b2f18f9a188a5aec4a95ee3164fe234dfbb6117628b2ad1a581939e61c69f4e9060600160405180910390a2505050565b610cb0611b0b565b81518351148015610cc2575080518351145b610d345760405162461bcd60e51b815260206004820152603b60248201527f4661726d696e6752616e67653a3a7570646174655265776172644d756c74697060448201527f6c653a3a77726f6e6720706172616d6574657273206c656e67746800000000006064820152608401610561565b60005b83518114610d9e57610d9685858381518110610d5557610d55613177565b6020026020010151858481518110610d6f57610d6f613177565b6020026020010151858581518110610d8957610d89613177565b6020026020010151611277565b600101610d37565b5050505050565b610dad611b65565b610db78282611f0d565b610dc060018055565b5050565b600060646001600160a01b031663a3b1b31d6040518163ffffffff1660e01b8152600401602060405180830381865afa158015610e05573d6000803e3d6000fd5b505050506040513d601f19601f82011682018060405250810190610e2991906131e0565b905090565b610e36611b65565b600060038281548110610e4b57610e4b613177565b60009182526020808320858452600482526040808520338652909252922080546007929092029092016005810154909350610e879082906131a3565b6005840155600080835560018301558254610eac906001600160a01b031633836120be565b604080518281526020810186905233917fbb757047c2b5f3974fe26b7c10f732e7bce710b0952a71082702781e62ae0595910160405180910390a2505050610ef360018055565b50565b610efe611b65565b60005b808214610f3357610f2b838383818110610f1d57610f1d613177565b905060200201356000611f0d565b600101610f01565b50610dc060018055565b610f45611b0b565b610f4f60006120ee565b565b60008184101580610f6157508284115b15610f6e57506000610f93565b818311610f8657610f7f84846131a3565b9050610f93565b610f9084836131a3565b90505b9392505050565b610fa2611b0b565b60008181526002602052604081206003805491929184908110610fc757610fc7613177565b60009182526020822084546007909202019250908190036110495760405162461bcd60e51b815260206004820152603660248201527f4661726d696e6752616e67653a3a75706461746543616d706169676e7352657760448201527530b932399d1d3737903932bbb0b93224b73337a632b760511b6064820152608401610561565b6000836110576001846131a3565b8154811061106757611067613177565b600091825260209091206002909102018054909150611084610dc4565b81116110f85760405162461bcd60e51b815260206004820152603760248201527f4661726d696e6752616e67653a3a72656d6f76654c617374526577617264496e60448201527f666f3a3a72657761726420706572696f6420656e6465640000000000000000006064820152608401610561565b6111018661213e565b60018201541561114a5760008061112761111c6001876131a3565b8460008a8a896124f1565b9150915081156111475780866006015461114191906131a3565b60068701555b50505b8480548061115a5761115a6131f9565b600082815260208120600260001990930192830201818155600190810191909155915561118790846131a3565b60405187907f997b6670781194c0d30c477be41ce4ba9b7f3f12417aa00965b9d9f978251e2390600090a3505050505050565b60006111cd826111c8610dc4565b61264c565b92915050565b60008281526004602090815260408083206001600160a01b038516845290915281208054600190910154610f93918591612742565b60006111cd82611216610dc4565b612948565b6003818154811061122b57600080fd5b600091825260209091206007909102018054600182015460028301546003840154600485015460058601546006909601546001600160a01b039586169750949093169491939092919087565b61127f611b0b565b611287611b65565b600084815260026020526040812060038054919291879081106112ac576112ac613177565b9060005260206000209060070201905060008286815481106112d0576112d0613177565b6000918252602090912060029091020180549091506112ee8861213e565b6112f6610dc4565b8110156113615760405162461bcd60e51b815260206004820152603360248201527f4661726d696e6752616e67653a3a757064617465526577617264496e666f3a3a6044820152721c995dd85c99081c195c9a5bd908195b991959606a1b6064820152608401610561565b86156113fc57858461137460018a6131a3565b8154811061138457611384613177565b906000526020600020906002020160000154106113fc5760405162461bcd60e51b815260206004820152603060248201527f4661726d696e6752616e67653a3a757064617465526577617264496e666f3a3a60448201526f626164206e657720656e64626c6f636b60801b6064820152608401610561565b6114078760016131cd565b845411156114bc578361141b8860016131cd565b8154811061142b5761142b613177565b90600052602060002090600202016000015486106114bc5760405162461bcd60e51b815260206004820152604260248201527f4661726d696e6752616e67653a3a757064617465526577617264496e666f3a3a60448201527f72657761726420706572696f6420656e6420697320696e206e6578742072616e606482015261676560f01b608482015260a401610561565b6000806114cd8989898989896124f1565b91509150811580156114de57508015155b156114fc5760018501546114fc906001600160a01b0316828c611bbe565b828814158015611519575085548990611517906001906131a3565b115b156116215760008661152c8b60016131cd565b8154811061153c5761153c613177565b60009182526020822060029091020180549092509061155b86836131a3565b905060006115698c846131a3565b6001850154909150600061157d82856131b6565b90508261158a85846131b6565b611594919061320f565b915060006115a283856131b6565b60018801849055905081811015611619576115f67f00000000000000000000000000000000000000000000000000000000000000006115e183856131a3565b60018f01546001600160a01b031691906120be565b61160081836131a3565b8c600601600082825461161391906131a3565b90915550505b505050505050505b8161163b5780856006015461163691906131cd565b61164b565b80856006015461164b91906131a3565b60068601558784556001840187905560408051898152602081018990528a918c917fcd251e3ce758f4da844a7b790619743994a9ce956a4abb78aec611623ae8af5f910160405180910390a350505050505061057f60018055565b6116ae611b65565b6116b78161213e565b610ef360018055565b6116c8611b65565b6000600383815481106116dd576116dd613177565b6000918252602080832086845260048252604080852033865290925292206007909102909101915061170e8461213e565b805415611771576000816001015468056bc75e2d631000008460040154846000015461173a91906131b6565b611744919061320f565b61174e91906131a3565b9050801561176f57600183015461176f906001600160a01b031633836120be565b505b82156117b25780546117849084906131cd565b815560058201546117969084906131cd565b600583015581546117b2906001600160a01b0316333086611aa0565b6004820154815468056bc75e2d63100000916117cd916131b6565b6117d7919061320f565b6001820155604080518481526020810186905233917f90890809c654f11d6e72a28fa60149770a0d11ec6c92319d6ceb2bb0a4ea1a15910160405180910390a25050610dc060018055565b61182a611b65565b60035460005b818114611848576118408161213e565b600101611830565b5050610f4f60018055565b61185b611b0b565b6001600160a01b0381166118c05760405162461bcd60e51b815260206004820152602660248201527f4f776e61626c653a206e6577206f776e657220697320746865207a65726f206160448201526564647265737360d01b6064820152608401610561565b610ef3816120ee565b6118d1611b0b565b86851480156118df57508483145b80156118ea57508481145b61195c5760405162461bcd60e51b815260206004820152603d60248201527f4661726d696e6752616e67653a3a75706461746543616d706169676e7352657760448201527f617264733a3a77726f6e6720726577617264496e666f206c656e6774680000006064820152608401610561565b60005b808814611a9557611a8d89898381811061197b5761197b613177565b9050602002013588888481811061199457611994613177565b90506020028101906119a69190613231565b808060200260200160405190810160405280939291908181526020018383602002808284376000920191909152508a92508991508690508181106119ec576119ec613177565b90506020028101906119fe9190613231565b80806020026020016040519081016040528093929190818152602001838360200280828437600092019190915250899250889150879050818110611a4457611a44613177565b9050602002810190611a569190613231565b80806020026020016040519081016040528093929190818152602001838360200280828437600092019190915250610ca892505050565b60010161195f565b505050505050505050565b6040516001600160a01b038085166024830152831660448201526064810182905261057f9085906323b872dd60e01b906084015b60408051601f198184030181529190526020810180516001600160e01b03166001600160e01b031990931692909217909152612a65565b6000546001600160a01b03163314610f4f5760405162461bcd60e51b815260206004820181905260248201527f4f776e61626c653a2063616c6c6572206973206e6f7420746865206f776e65726044820152606401610561565b600260015403611bb75760405162461bcd60e51b815260206004820152601f60248201527f5265656e7472616e637947756172643a207265656e7472616e742063616c6c006044820152606401610561565b6002600155565b604051631693074b60e01b81526001600160a01b0380851660048301527f000000000000000000000000000000000000000000000000000000000000000016602482015230604482018190526064820184905290631693074b90608401600060405180830381600087803b158015611c3557600080fd5b505af1925050508015611c46575060015b6108bf577f00000000000000000000000000000000000000000000000000000000000000006001600160a01b031681604051602401611c8791815260200190565b60408051601f198184030181529181526020820180516001600160e01b031663eee4f11b60e01b17905251611cbc919061329f565b6000604051808303816000865af19150503d8060008114611cf9576040519150601f19603f3d011682016040523d82523d6000602084013e611cfe565b606091505b506108bf9150506001600160a01b0384167f00000000000000000000000000000000000000000000000000000000000000003085611aa0565b604051623f675f60e91b81526001600160a01b038881166004830152600091908a1690637ecebe0090602401602060405180830381865afa158015611d80573d6000803e3d6000fd5b505050506040513d601f19601f82011682018060405250810190611da491906131e0565b60405163d505accf60e01b81526001600160a01b038a811660048301528981166024830152604482018990526064820188905260ff8716608483015260a4820186905260c48201859052919250908a169063d505accf9060e401600060405180830381600087803b158015611e1857600080fd5b505af1158015611e2c573d6000803e3d6000fd5b5050604051623f675f60e91b81526001600160a01b038b81166004830152600093508c169150637ecebe0090602401602060405180830381865afa158015611e78573d6000803e3d6000fd5b505050506040513d601f19601f82011682018060405250810190611e9c91906131e0565b9050611ea98260016131cd565b8114611f015760405162461bcd60e51b815260206004820152602160248201527f5361666545524332303a207065726d697420646964206e6f74207375636365656044820152601960fa1b6064820152608401610561565b50505050505050505050565b600060038381548110611f2257611f22613177565b600091825260208083208684526004825260408085203386529092529220805460079092029092019250831115611faf5760405162461bcd60e51b815260206004820152602b60248201527f4661726d696e6752616e67653a3a77697468647261773a3a626164207769746860448201526a191c985dc8185b5bdd5b9d60aa1b6064820152608401610561565b611fb88461213e565b6000816001015468056bc75e2d6310000084600401548460000154611fdd91906131b6565b611fe7919061320f565b611ff191906131a3565b90508015612012576001830154612012906001600160a01b031633836120be565b83156120525781546120259085906131a3565b825560058301546120379085906131a3565b60058401558254612052906001600160a01b031633866120be565b6004830154825468056bc75e2d631000009161206d916131b6565b612077919061320f565b6001830155604080518581526020810187905233917ff279e6a1f5e320cca91135676d9cb6e44ca8a08c0b88342bcdb1144f6511b568910160405180910390a25050505050565b6040516001600160a01b0383166024820152604481018290526108bf90849063a9059cbb60e01b90606401611ad4565b600080546001600160a01b038381166001600160a01b0319831681178455604051919092169283917f8be0079c531659141344cd1fd0a4f28419497f9722a3daafe3b4186f6b6457e09190a35050565b60035481106121ac5760405162461bcd60e51b815260206004820152603460248201527f4661726d696e6752616e67653a3a5f75706461746543616d706169676e3a3a43604482015273185b5c185a59db881a59081b9bdd081d985b1a5960621b6064820152608401610561565b6000600382815481106121c1576121c1613177565b60009182526020808320858452600282526040808520805482518186028101860190935280835260079095029092019550929091849084015b82821015612240578382906000526020600020906002020160405180604001604052908160008201548152602001600182015481525050815260200190600101906121fa565b5050505090506000612250610dc4565b9050826003015481116122635750505050565b82600501546000036123f2576000805b835181146123a457846003015484828151811061229257612292613177565b6020026020010151600001511061239c576000816000036122b75785600301546122e0565b846122c36001846131a3565b815181106122d3576122d3613177565b6020026020010151600001515b90506000848684815181106122f7576122f7613177565b60200260200101516000015111905060008760030154831161231d57876003015461231f565b825b826123475787858151811061233657612336613177565b602002602001015160000151612349565b865b61235391906131a3565b90508087858151811061236857612368613177565b60200260200101516020015161237e91906131b6565b61238890866131cd565b94508115612398575050506123a4565b5050505b600101612273565b5080156123e45760018401546123e4906001600160a01b03167f0000000000000000000000000000000000000000000000000000000000000000836120be565b506003909201919091555050565b60005b82518114610d9e57600061242b85600301548486858151811061241a5761241a613177565b602002602001015160000151610f51565b905080156124e85783828151811061244557612445613177565b6020026020010151600001518311156124805783828151811061246a5761246a613177565b6020908102919091010151516003860155612488565b600385018390555b846005015484838151811061249f5761249f613177565b602002602001015160200151826124b691906131b6565b6124c99068056bc75e2d631000006131b6565b6124d3919061320f565b85600401546124e291906131cd565b60048601555b506001016123f5565b60008060006124fe610dc4565b90506000891561253b578661251460018c6131a3565b8154811061252457612524613177565b906000526020600020906002020160000154612541565b85600201545b905060008183116125525781612554565b825b9050600082876000015461256891906131a3565b90506000612576838d6131a3565b600189015490915060008161258b87876131a3565b61259591906131b6565b905060006125a385846131b6565b90506000848f6125b391906131b6565b90506125bf83826131cd565b82119a508a6125e257816125d384836131cd565b6125dd91906131a3565b6125f7565b826125ed82846131a3565b6125f791906131a3565b99508a156126385760018d0154612638906001600160a01b03167f00000000000000000000000000000000000000000000000000000000000000008c6120be565b505050505050505050965096945050505050565b600082815260026020908152604080832080548251818502810185019093528083528493849084015b828210156126bb57838290600052602060002090600202016040518060400160405290816000820154815260200160018201548152505081526020019060010190612675565b50508251929350505060008190036126d8576000925050506111cd565b60005b818114612736578281815181106126f4576126f4613177565b602002602001015160000151851161272e5782818151811061271857612718613177565b60200260200101516020015193505050506111cd565b6001016126db565b50600095945050505050565b6000806003858154811061275857612758613177565b600091825260208083206040805160e081018252600790940290910180546001600160a01b03908116855260018201541684840152600280820154858401526003820154606086015260048201546080860152600582015460a086015260069091015460c08501528985528252808420805482518185028101850190935280835293955090929091849084015b8282101561282b578382906000526020600020906002020160405180604001604052908160008201548152602001600182015481525050815260200190600101906127e5565b5050505060808301519091506000612841610dc4565b9050836060015181118015612859575060a084015115155b1561291357606084015160005b84518114612910576000612887838588858151811061241a5761241a613177565b90508015612907578582815181106128a1576128a1613177565b60200260200101516000015192508660a001518683815181106128c6576128c6613177565b602002602001015160200151826128dd91906131b6565b6128f09068056bc75e2d631000006131b6565b6128fa919061320f565b61290490866131cd565b94505b50600101612866565b50505b8568056bc75e2d63100000612928848a6131b6565b612932919061320f565b61293c91906131a3565b98975050505050505050565b600082815260026020908152604080832080548251818502810185019093528083528493849084015b828210156129b757838290600052602060002090600202016040518060400160405290816000820154815260200160018201548152505081526020019060010190612971565b50508251929350505060008190036129d4576000925050506111cd565b60005b818114612a32578281815181106129f0576129f0613177565b6020026020010151600001518511612a2a57828181518110612a1457612a14613177565b60200260200101516000015193505050506111cd565b6001016129d7565b5081612a3f6001836131a3565b81518110612a4f57612a4f613177565b6020026020010151600001519250505092915050565b6000612aba826040518060400160405280602081526020017f5361666545524332303a206c6f772d6c6576656c2063616c6c206661696c6564815250856001600160a01b0316612b3a9092919063ffffffff16565b9050805160001480612adb575080806020019051810190612adb91906132bb565b6108bf5760405162461bcd60e51b815260206004820152602a60248201527f5361666545524332303a204552433230206f7065726174696f6e20646964206e6044820152691bdd081cdd58d8d9595960b21b6064820152608401610561565b6060610f90848460008585600080866001600160a01b03168587604051612b61919061329f565b60006040518083038185875af1925050503d8060008114612b9e576040519150601f19603f3d011682016040523d82523d6000602084013e612ba3565b606091505b5091509150612bb487838387612bc1565b925050505b949350505050565b60608315612c30578251600003612c29576001600160a01b0385163b612c295760405162461bcd60e51b815260206004820152601d60248201527f416464726573733a2063616c6c20746f206e6f6e2d636f6e74726163740000006044820152606401610561565b5081612bb9565b612bb98383815115612c455781518083602001fd5b8060405162461bcd60e51b815260040161056191906132d8565b60008060408385031215612c7257600080fd5b50508035926020909101359150565b6001600160a01b0381168114610ef357600080fd5b60008060008060808587031215612cac57600080fd5b8435612cb781612c81565b93506020850135612cc781612c81565b92506040850135612cd781612c81565b9396929550929360600135925050565b600080600060608486031215612cfc57600080fd5b505081359360208301359350604090920135919050565b8015158114610ef357600080fd5b600080600080600080600060e0888a031215612d3c57600080fd5b87359650602088013595506040880135612d5581612d13565b945060608801359350608088013560ff81168114612d7257600080fd5b9699959850939692959460a0840135945060c09093013592915050565b600060208284031215612da157600080fd5b5035919050565b60008083601f840112612dba57600080fd5b50813567ffffffffffffffff811115612dd257600080fd5b6020830191508360208260051b8501011115612ded57600080fd5b9250929050565b600080600080600060608688031215612e0c57600080fd5b85359450602086013567ffffffffffffffff80821115612e2b57600080fd5b612e3789838a01612da8565b90965094506040880135915080821115612e5057600080fd5b50612e5d88828901612da8565b969995985093965092949392505050565b600080600060608486031215612e8357600080fd5b8335612e8e81612c81565b92506020840135612e9e81612c81565b929592945050506040919091013590565b634e487b7160e01b600052604160045260246000fd5b600082601f830112612ed657600080fd5b8135602067ffffffffffffffff80831115612ef357612ef3612eaf565b8260051b604051601f19603f83011681018181108482111715612f1857612f18612eaf565b604052938452858101830193838101925087851115612f3657600080fd5b83870191505b84821015612f5557813583529183019190830190612f3c565b979650505050505050565b60008060008060808587031215612f7657600080fd5b84359350602085013567ffffffffffffffff80821115612f9557600080fd5b612fa188838901612ec5565b94506040870135915080821115612fb757600080fd5b612fc388838901612ec5565b93506060870135915080821115612fd957600080fd5b50612fe687828801612ec5565b91505092959194509250565b6000806020838503121561300557600080fd5b823567ffffffffffffffff81111561301c57600080fd5b61302885828601612da8565b90969095509350505050565b6000806040838503121561304757600080fd5b82359150602083013561305981612c81565b809150509250929050565b6000806000806080858703121561307a57600080fd5b5050823594602084013594506040840135936060013592509050565b6000602082840312156130a857600080fd5b8135610f9381612c81565b6000806000806000806000806080898b0312156130cf57600080fd5b883567ffffffffffffffff808211156130e757600080fd5b6130f38c838d01612da8565b909a50985060208b013591508082111561310c57600080fd5b6131188c838d01612da8565b909850965060408b013591508082111561313157600080fd5b61313d8c838d01612da8565b909650945060608b013591508082111561315657600080fd5b506131638b828c01612da8565b999c989b5096995094979396929594505050565b634e487b7160e01b600052603260045260246000fd5b634e487b7160e01b600052601160045260246000fd5b818103818111156111cd576111cd61318d565b80820281158282048414176111cd576111cd61318d565b808201808211156111cd576111cd61318d565b6000602082840312156131f257600080fd5b5051919050565b634e487b7160e01b600052603160045260246000fd5b60008261322c57634e487b7160e01b600052601260045260246000fd5b500490565b6000808335601e1984360301811261324857600080fd5b83018035915067ffffffffffffffff82111561326357600080fd5b6020019150600581901b3603821315612ded57600080fd5b60005b8381101561329657818101518382015260200161327e565b50506000910152565b600082516132b181846020870161327b565b9190910192915050565b6000602082840312156132cd57600080fd5b8151610f9381612d13565b60208152600082518060208401526132f781604085016020870161327b565b601f01601f1916919091016040019291505056fea164736f6c6343000811000a",
  "devdoc": {
    "kind": "dev",
    "methods": {
      "resetAllowance(uint256)": {
        "params": {
          "_campaignId": "campaign id"
        }
      },
      "withdrawFunds(address,uint256,address)": {
        "params": {
          "_amount": "amount of token to retrieve",
          "_to": "address to send the tokens",
          "_token": "token contract address to retrieve"
        }
      }
    },
    "title": "RewardManagerWithdrawableArbitrum",
    "version": 1
  },
  "userdoc": {
    "kind": "user",
    "methods": {
      "farming()": {
        "notice": "used to get the farming contract address"
      },
      "resetAllowance(uint256)": {
        "notice": "used to resetAllowance with farming contract to take rewards"
      },
      "withdrawFunds(address,uint256,address)": {
        "notice": "used to get retrieve tokens"
      }
    },
    "notice": "RewardManagerWithdrawableArbitrum handles the creation of the contract farming The RewardManager is the owner of the funds in the FarmingRange, only the RewardManager is capable of sending funds to be farmed and only the RewardManager will get the funds back when updating of removing campaigns. The specificity of the withdrawable reward manager is that it's used for promoted campaigns, and thus the needs to be able to withdraw funds is here.",
    "version": 1
  },
  "storageLayout": {
    "storage": [],
    "types": null
  }
}